:100000000C94C5000C94ED000C94ED000C94ED00E4
:100010000C94ED000C94ED000C94ED000C94ED00AC
:100020000C94ED000C94ED000C94ED000C94ED009C
:100030000C94ED000C94ED000C94ED000C94ED008C
:100040000C94B2090C94ED000C94220A0C94FC0957
:100050000C94ED000C94ED000C94ED000C94ED006C
:100060000C94ED000C94ED0078292045786974001B
:1000700035292052657365727665640034292052F3
:10008000656164205363616C6520436F6E74696EB3
:10009000756F75736C790033292043616C696272E6
:1000A000617465205363616C65003229205461726C
:1000B00065205363616C6500312920436F6E76655E
:1000C00079204B61626F6F6D004D61696E204D65E7
:1000D0006E753A000A0D47657474696E6720546145
:1000E000726520706F696E743A2000457869746596
:1000F000642053797374656D20436F6E6669672C55
:1001000020707265737320616E79206B657920743D
:100110006F20676F206261636B20696E746F20537C
:10012000797374656D20436F6E6669670000000027
:1001300000240027002A0000000000250028002BD2
:100140000000000000230026002900040404040429
:100150000404040202020202020303030303030174
:10016000020408102040800102040810200102044B
:10017000081020000000080002010000030407002E
:100180000000000000000000540A11241FBECFEF41
:10019000D8E0DEBFCDBF23E0ACE9B2E001C01D92E4
:1001A000AA39B207E1F712E0A0E0B1E0ECE7F5E22E
:1001B00002C005900D92AC39B107D9F710E0C5EC3B
:1001C000D0E004C02197FE010E941710C43CD10763
:1001D000C9F70E94810B0C94BC120C940000833070
:1001E00081F028F4813099F08230A9F008958730A9
:1001F000A9F08830C9F08430B1F4809180008F7DFF
:1002000003C0809180008F7780938000089584B52B
:100210008F7784BD089584B58F7DFBCF8091B0002A
:100220008F778093B00008958091B0008F7DF9CFD3
:10023000CF93DF93282F30E0F901ED58FE4F8491E2
:10024000F901E15AFE4FD491F901E55BFE4FC491EB
:10025000CC23A1F081110E94EF00EC2FF0E0EE0F13
:10026000FF1FEF5BFE4FA591B491EC91ED2381E070
:1002700090E009F480E0DF91CF91089580E090E074
:10028000FACF1F93CF93DF93282F30E0F901ED5879
:10029000FE4F8491F901E15AFE4FD491F901E55BDB
:1002A000FE4FC491CC23A9F0162F81110E94EF00BC
:1002B000EC2FF0E0EE0FFF1FE95CFE4FA591B4912B
:1002C0008FB7F894EC91111108C0D095DE23DC9320
:1002D0008FBFDF91CF911F910895DE2BF8CFCF9381
:1002E000DF9390E0FC01E15AFE4F2491855B9E4F25
:1002F000FC0184918823D1F090E0880F991FFC01C4
:10030000E35DFE4FA591B491FC01E95CFE4FC59100
:10031000D49161110EC09FB7F8948C91E22FE095B3
:100320008E238C932881E223E8839FBFDF91CF91B6
:1003300008958FB7F894EC91E22BEC938FBFF6CF32
:100340003FB7F8948091A4029091A502A091A602D3
:10035000B091A70226B5A89B05C02F3F19F00196C2
:10036000A11DB11D3FBFBA2FA92F982F8827BC010F
:10037000CD01620F711D811D911D42E0660F771F37
:10038000881F991F4A95D1F708958F929F92AF9237
:10039000BF92CF92DF92EF92FF926B017C010E949D
:1003A000A0014B015C01C114D104E104F104B9F0D6
:1003B0000E94A001681979098A099B09683E734067
:1003C0008105910580F321E0C21AD108E108F10806
:1003D00088EE880E83E0981EA11CB11CE4CFFF902C
:1003E000EF90DF90CF90BF90AF909F908F90089547
:1003F000AF92BF92CF92DF92EF92FF920F931F9333
:10040000CF93DF936C017B018B01040F151FEB0170
:100410005E01AE18BF08C017D10759F06991D60127
:10042000ED91FC910190F081E02DC6010995892B99
:1004300079F7C501DF91CF911F910F91FF90EF9058
:10044000DF90CF90BF90AF900895FC01538D448D05
:10045000252F30E0842F90E0821B930B541710F06F
:10046000CF96089501970895FC01918D828D98177C
:1004700061F0A28DAE0FBF2FB11D5D968C91928D54
:100480009F5F9F73928F90E008958FEF9FEF089585
:10049000FC01918D828D981731F0828DE80FF11D4E
:1004A000858D90E008958FEF9FEF0895FC01918D69
:1004B000228D892F90E0805C9F4F821B91098F7362
:1004C0009927089588EA92E00E94560221E0892B3C
:1004D00009F420E0822F089580E090E0892B29F034
:1004E0000E94620281110C9400000895FC01A48D09
:1004F000A80FB92FB11DA35ABF4F2C91848D90E046
:1005000001968F739927848FA689B7892C93A08928
:10051000B1898C91837080648C93938D848D9813B2
:1005200006C00288F389E02D80818F7D8083089545
:10053000EF92FF920F931F93CF93DF93EC0181E033
:10054000888F9B8D8C8D98131AC0E889F9898081DA
:1005500085FF15C09FB7F894EE89FF896083E8890D
:10056000F98980818370806480839FBF81E090E0FF
:10057000DF91CF911F910F91FF90EF900895F62E8C
:100580000B8D10E00F5F1F4F0F731127E02E8C8D26
:100590008E110CC00FB607FCFACFE889F98980816B
:1005A00085FFF5CFCE010E947602F1CFEB8DEC0FE7
:1005B000FD2FF11DE35AFF4FF0829FB7F8940B8F88
:1005C000EA89FB8980818062CFCF0F931F93CF93FD
:1005D000DF938C01D0E0C0E0F801EC0FFD1F6491C7
:1005E000662341F088EA92E00E949802892B11F07C
:1005F0002196F2CFCE01DF91CF911F910F910895F7
:10060000CF93DF93EC01888D8823B9F0AA89BB8949
:10061000E889F9898C9185FD03C0808186FD0DC034
:100620000FB607FCF7CF8C9185FFF2CF808185FF55
:10063000EDCFCE010E947602E9CFDF91CF910895F0
:10064000CF93DF93FC012781222359F1EC0161E074
:1006500080850E946F0161E089850E946F018F8112
:10066000843011F08830B1F461E08A850E946F0116
:1006700061E08B850E946F018FA58F3F91F061E053
:100680000E946F016EA581E068278FA5DF91CF9151
:100690000C944101833011F0863071F761E08A8556
:1006A000E9CFDF91CF910895CF93DF93FC012781AC
:1006B0002223A9F0EC010190F081E02D0284F38562
:1006C000E02D60E009958FA58F3F49F061E00E9421
:1006D0006F016EA58FA5DF91CF910C944101DF9141
:1006E000CF910895DC01ED91FC912285338547700F
:1006F000552766277727415051096109710947300D
:1007000051056105710560F4FA01E757FC4F0C943F
:10071000171093039503970399039B039D039F036E
:1007200061E0F901099465E0FCCF64E0FACF66E08E
:10073000F8CF62E0F6CF6AE0F4CF68E0F2CF69E08C
:10074000F0CFCF93DF93EC01CB01BA0126E030E08C
:1007500040E050E00E94F80F62307105810591057C
:1007600089F16CF46115710581059105D1F0613055
:10077000710581059105F9F0DF91CF9108956430FD
:1007800071058105910561F124F1653071058105DF
:10079000910591F7E881F9810284F385E02D66E007
:1007A00006C0E881F9810284F385E02D64E0CE0182
:1007B000DF91CF910994E881F9810284F385E02DDE
:1007C00065E0F5CFE881F9810284F385E02D61E0F1
:1007D000EECFE881F9810284F385E02D63E0E7CF75
:1007E000E881F9810284F385E02D62E0E0CFDC014D
:1007F000ED91FC910284F385E02D43705527662727
:100800007727423051056105710571F0433051057C
:100810006105710559F0413051056105710511F00F
:1008200065E0099466E0FDCF6AE0FBCF69E0F9CFAF
:10083000CF93DF93EC01CB01BA0123E030E040E03D
:1008400050E00E94F80F613071058105910599F023
:100850006230710581059105A9F0672B682B692B22
:10086000C1F4E881F9810284F385E02D64E0CE01D2
:10087000DF91CF910994E881F9810284F385E02D1D
:1008800061E0F5CFE881F9810284F385E02D62E033
:10089000EECFDF91CF910895DC01ED91FC910284C0
:1008A000F385E02D437055276627772742305105A1
:1008B0006105710571F0433051056105710559F00D
:1008C000413051056105710511F062E0099463E062
:1008D000FDCF61E0FBCF60E0F9CFCF93DF93EC0178
:1008E000E881F9810284F385E02D8A8160E081113D
:1008F00062E0CE010995E881F9810284F385E02D5B
:100900008A8161E0811163E0CE0109958CA59DA5E6
:100910008230910538F0880F991F880F991F05972D
:100920000197F1F7E881F9810284F385E02D8A814E
:1009300060E0811162E0CE01DF91CF910994CF9305
:10094000DF93EC0120E030E0A901688D798D8A8D7C
:100950009B8D0E94321118162CF4E8A9F9A9DF9199
:10096000CF910994EAA9FBA9FACFCF92DF92EF9237
:10097000FF920F931F93CF93DF93DC011796CC91D7
:10098000C43039F0C83059F1C33019F0C63049F1DC
:10099000C2E08C01085F1F4FF12CE12CC62ED12C38
:1009A000D1E0F8016481C6010E2C02C095958795AF
:1009B0000A94E2F780FD6D270F5F1F4F80810E9430
:1009C0004101BFEFEB1AFB0AEC1658F3DF91CF9110
:1009D0001F910F91FF90EF90DF90CF900895C4E0AA
:1009E000D8CFC3E0D6CFDC011796EC911797E9304A
:1009F00008F038C0F0E0E150FB4F0C9417100805E8
:100A00000E0514051A0520053205260532052C05AC
:100A1000ED91FC910684F785E02D0994ED91FC9110
:100A20000088F189E02DF9CFED91FC910288F389DE
:100A3000E02DF3CFED91FC910488F589E02DEDCF09
:100A4000ED91FC910688F789E02DE7CFED91FC91BF
:100A5000008CF18DE02DE1CFED91FC91028CF38DB6
:100A6000E02DDBCF08954F925F926F927F928F922D
:100A70009F92AF92BF92CF92DF92EF92FF920F932D
:100A80001F93CF93DF93EC01CC88DD88EE88FF883D
:100A900088899989AA89BB89C81AD90AEA0AFB0AEE
:100AA000688D798D8A8D9B8D9B01AC010E94180FFA
:100AB0004B015C0168A179A18AA19BA19B01AC01BA
:100AC0000E941E109B01AC01C501B4010E948A1056
:100AD0000E94FC10C114D104E104F10409F0B6C075
:100AE00062307105810591050CF0D0C01B821C821B
:100AF0001D821E82188E198E1A8E1B8E1CAA1DAA8C
:100B00001EAA1FAAC12CD12C7601C701B601DF9104
:100B1000CF911F910F91FF90EF90DF90CF90BF90FA
:100B2000AF909F908F907F906F905F904F900895BF
:100B30001016110612061306B4F46C157D058E0509
:100B40009F051CF42A812111A1C09B01AC018827BB
:100B50009927DC01821B930BA40BB50B8CAB9DABCF
:100B6000AEABBFAB93C0011511052105310509F4EA
:100B70008DC06C157D058E059F050CF087C08A81A0
:100B8000882309F483C030952095109501951F4F57
:100B90002F4F3F4F0CAB1DAB2EAB3FAB77C00115BA
:100BA00011052105310509F471C0882499245401E7
:100BB0008C189D08AE08BF08681579058A059B0545
:100BC0000CF064C08A81811161C0DDCFCCACDDAC9A
:100BD000EEACFFACA7019601C701B6010E941E1042
:100BE0002B013C01C501B4010E94B90E20E030E0A8
:100BF00040E850E40E94180F20E030E040E85FE356
:100C00000E941E109B01AC01C301B2010E948A1018
:100C10009B01AC01C701B6010E941D103B016C0194
:100C2000FE01E05CFF4FE080F180028113819701BB
:100C3000A8010E943211181614F473018601C7012D
:100C4000D8018CAF9DAFAEAFBFAF3AC00CA91DA904
:100C50002EA93FA91C141D041E041F040CF468CF08
:100C600010161106120613060CF099CF0027112753
:100C700098010C191D092E093F0960177107820799
:100C800093070CF062CF2A8121115FCF8CA89DA819
:100C9000AEA8BFA881149104A104B10409F096CFB5
:100CA00088AD99ADAAADBBAD8CAF9DAFAEAFBFAFB8
:100CB00081E01C141D041E041F040CF080E08A83D4
:100CC0003FEF831A930AA30AB30A8CAA9DAAAEAA7D
:100CD000BFAA8CAC9DACAEACBFACC501B4010E9448
:100CE00003116B017C01CB82DC82ED82FE82A501C7
:100CF000940160E074E284E799E40E948A10688FAE
:100D0000798F8A8F9B8F2A812111FFCE9058688F0F
:100D1000798F8A8F9B8FF9CECF92DF92EF92FF92DD
:100D2000CF93DF93C5E4D3E0688D798D8A8D9B8D59
:100D30009B01AC010E94180F6B017C0168A179A195
:100D40008AA19BA19B01AC010E941E109B01AC01DA
:100D5000C701B6010E948A100E94FC106CAB7DABEB
:100D60008EAB9FABCE01DF91CF91FF90EF90DF90E4
:100D7000CF900C94330508950895FF920F931F931D
:100D8000CF93DF93F82E062FC7E0D0E010E061E0AC
:100D9000802F0E9441018F2D0E9418010C2E01C04E
:100DA000880F0A94EAF7182B60E0802F0E94410117
:100DB000219768F7812FDF91CF911F910F91FF90BD
:100DC0000895EF92FF920F931F93CF93DF9380913B
:100DD0008C030E941801892B31F060E070E0CB0198
:100DE0000E94C501F4CFDFB7F89460918B03809126
:100DF0008C030E94BD06082F60918B0380918C03A9
:100E00000E94BD06C82F60918B0380918C030E94C5
:100E1000BD06182FF12CE12C80918D038E151F0437
:100E200079F070F061E080918B030E94410160E0F5
:100E300080918B030E9441018FEFE81AF80AECCFF2
:100E4000DFBF6C2F70E090E080E0982F872F762F27
:100E50006627802B612B000F000B10E030E020E0B4
:100E6000302F222711270027602B712B822B932BE9
:100E7000DF91CF911F910F91FF90EF900895CF9246
:100E8000DF92EF92FF92CF93DF93D82FC0E0C12C77
:100E9000D12C7601CD1769F00E94E106C60ED71E4F
:100EA000E81EF91E60E070E0CB010E94C501CF5F33
:100EB000F1CF2C2F30E050E040E0C701B6010E9496
:100EC000F80FCA01B901DF91CF91FF90EF90DF9049
:100ED000CF900895FC0101900020E9F73197AF0110
:100EE000481B590BBC0188EA92E00C94F80180E49D
:100EF00091E00C946A07CF93DF930E94E502EC0126
:100F00000E9477078C0F9D1FDF91CF910895CF939B
:100F1000DF93682F88EA92E00E949802EC010E9419
:100F200077078C0F9D1FDF91CF9108950E9477075F
:100F300089EC90E00E947B0788EB90E00E947B07A1
:100F40008AEA90E00E947B0787E990E00E947B0795
:100F50008CE790E00E947B0780E790E00E947B078F
:100F600088E690E00C947B078F929F92AF92BF929D
:100F70000F931F93CF93DF93CDB7DEB7A1970FB633
:100F8000F894DEBF0FBECDBF19A2423008F44AE08C
:100F90008E010F5D1F4F842E912CB12CA12CA50129
:100FA00094010E94D60FE62FB901CA01EA30F4F489
:100FB000E05DD801EE938D01232B242B252B79F7AF
:100FC00090E080E0109719F0CD010E946A07A19689
:100FD0000FB6F894DEBF0FBECDBFDF91CF911F914A
:100FE0000F91BF90AF909F908F900895E95CE1CFF3
:100FF000CF92DF92EF92FF92CF93DF936B017C0150
:101000006DE288EA92E00E949802EC016627772759
:10101000CB016C197D098E099F094AE00E94B40733
:101020008C0F9D1FDF91CF91FF90EF90DF90CF90BD
:101030000895CF93DF9397FF0AC00E94F807EC0151
:101040000E9477078C0F9D1FDF91CF9108954AE092
:101050000E94B407F4CFCF93DF93BC01990F880BA4
:10106000990B97FF0AC00E94F807EC010E947707CE
:101070008C0F9D1FDF91CF9108954AE00E94B40725
:10108000F4CF4F925F926F927F928F929F92AF9226
:10109000BF92CF92DF92EF92FF921F93CF93DF9395
:1010A0006B017C01C42FAC019B010E947D11882340
:1010B000C9F083E491E00E946A07EC010E9477077F
:1010C0008C0F9D1FDF91CF911F91FF90EF90DF90CC
:1010D000CF90BF90AF909F908F907F906F905F90D8
:1010E0004F90089546015701E894B7F82FEF3FEF6E
:1010F0004FE75FE7C501B4010E947D1181110DC06A
:101100002FEF3FEF4FE75FE7C501B4010E94B20E3A
:1011100018161CF487E491E0CECF2FEF3FEF4FE796
:101120005FE4C701B6010E94321118161CF48BE46B
:1011300091E0C1CF2FEF3FEF4FE75FECC701B60162
:101140000E94B20E87FDF3CF20E030E0A901C70175
:10115000B6010E94B20EB12CA12C87FF0AC06DE22D
:1011600088EA92E00E9498025C01F7FAF094F7F89E
:10117000F0941C2F60E070E080E09FE3D0E020E07E
:1011800030E040E251E40E948A1021E02D0FD1E0CE
:101190002C17A8F3A70196010E941E106B017C0179
:1011A0000E9403112B013C010E94B70E9B01AC0170
:1011B000C701B6010E941D106B017C014AE0C3010A
:1011C000B2010E94B407EC016EE288EA92E00E944C
:1011D0009802C80FD91FCA0DDB1D115008F46ECF3D
:1011E00020E030E040E251E4C701B6010E94180F50
:1011F0004B015C010E9403116B01F12CE12C4AE0D0
:10120000C701B6010E94B407C80FD91FC701B601B4
:101210000E94B70E9B01AC01C501B4010E941D10D4
:101220006B017C01DACFCF93DF930E946A07EC0158
:101230000E9477078C0F9D1FDF91CF9108954F92E9
:101240005F926F927F928F929F92AF92BF92CF9256
:10125000DF92EF92FF926B017C0120E030E0A90168
:101260000E94B20E87FF04C0F7FAF094F7F8F094EA
:101270008090650390906603A0906703B090680328
:10128000A7019601C501B4010E94B20E882309F49A
:1012900058C06091790370917A0380917B0390919B
:1012A0007C030E94B90E2B013C01A7019601C501E8
:1012B000B4010E948A109B01AC01C301B2010E94DB
:1012C000180F0E94FC106093790370937A03809347
:1012D0007B0390937C03A701960160E070E080E0BF
:1012E00090E40E948A100E943D1126E53EE04DE206
:1012F0005FE30E94180F20E034E244E759E40E94C3
:10130000180F60937D0370937E0380937F03909307
:101310008003C0926503D0926603E0926703F09267
:10132000680385E493E0FF90EF90DF90CF90BF904B
:10133000AF909F908F907F906F905F904F900C94A4
:101340003305FF90EF90DF90CF90BF90AF909F90CC
:101350008F907F906F905F904F9008950C94331210
:101360000C9433121F920F920FB60F9211242F93E9
:101370003F938F939F93AF93BF938091A0029091DF
:10138000A102A091A202B091A30230919F0223E09A
:10139000230F2D3758F50196A11DB11D20939F02F3
:1013A0008093A0029093A102A093A202B093A30203
:1013B0008091A4029091A502A091A602B091A702EB
:1013C0000196A11DB11D8093A4029093A502A09344
:1013D000A602B093A702BF91AF919F918F913F91C9
:1013E0002F910F900FBE0F901F90189526E8230F96
:1013F0000296A11DB11DD2CF1F920F920FB60F9270
:1014000011242F933F934F935F936F937F938F9309
:101410009F93AF93BF93EF93FF9388EA92E00E946C
:101420007602FF91EF91BF91AF919F918F917F9144
:101430006F915F914F913F912F910F900FBE0F9041
:101440001F9018951F920F920FB60F9211242F9391
:101450008F939F93EF93FF93E091B802F091B902BD
:101460008081E091BE02F091BF0282FD1BC090819D
:101470008091C1028F5F8F732091C202821741F069
:10148000E091C102F0E0E855FD4F958F8093C102D5
:10149000FF91EF919F918F912F910F900FBE0F9021
:1014A0001F9018958081F4CFCF92DF92EF92FF9238
:1014B0001092AB021092AA0288EE93E0A0E0B0E096
:1014C0008093AC029093AD02A093AE02B093AF02B2
:1014D0008AE091E09093A9028093A80285EC90E0C5
:1014E0009093B5028093B40284EC90E09093B7029D
:1014F0008093B60280EC90E09093B9028093B8029A
:1015000081EC90E09093BB028093BA0282EC90E071
:101510009093BD028093BC0286EC90E09093BF0252
:101520008093BE021092C1021092C2021092C302B6
:101530001092C4028CE391E090938A038093890314
:1015400010928E0310928F031092900310929103C9
:10155000C12CD12C80E8E82E8FE3F82EC0929203A4
:10156000D0929303E0929403F09295038CE191E082
:10157000909346038093450381E080934C0310923F
:10158000550310925603109257031092580310926D
:10159000590310925A0310925B0310925C0310924D
:1015A0005D0310925E0310925F031092600310922D
:1015B000610310926203109263031092640310920D
:1015C0006503109266031092670310926803C0923D
:1015D0006903D0926A03E0926B03F0926C0310925D
:1015E00048031092490310924A0310924B0381E082
:1015F00090E090937203809371038FEF8093740354
:1016000010926D0310926E0310926F03109270038C
:1016100084E080934D0396E090934E0380934F03B4
:1016200085E0809350031092730310927903109217
:101630007A0310927B0310927C0310927D03109228
:101640007E0310927F031092800310928103109208
:1016500082031092830310928403C0928503D09278
:101660008603E0928703F09288031092470310925A
:10167000510310925203109253031092540385E4C5
:1016800093E00E942003C701B6010E941F09A70131
:101690009601609161037091620380916303909160
:1016A00064030E94B20E882339F1C0926103D09284
:1016B0006203E0926303F092640380E094E2A4E7A3
:1016C000B9E48093850390938603A0938703B09336
:1016D00088038091790390917A03A0917B03B09164
:1016E0007C03181619061A061B0634F4FF90EF90B7
:1016F000DF90CF900C948C06FF90EF90DF90CF900E
:101700000895789484B5826084BD84B5816084BD79
:1017100085B5826085BD85B5816085BD80916E008F
:10172000816080936E0010928100809181008260C0
:1017300080938100809181008160809381008091FD
:1017400080008160809380008091B10084608093EC
:10175000B1008091B00081608093B00080917A00E8
:10176000846080937A0080917A00826080937A000E
:1017700080917A00816080937A0080917A008068FD
:1017800080937A001092C100E091B802F091B90202
:1017900082E08083E091B402F091B5021082E09182
:1017A000B602F091B70280E180831092C002E0910E
:1017B000BC02F091BD0286E08083E091BA02F09114
:1017C000BB02808180618083E091BA02F091BB020C
:1017D000808188608083E091BA02F091BB028081B1
:1017E00080688083E091BA02F091BB0280818F7D96
:1017F00080838FE491E00E94130920E030E046E905
:1018000054E460916103709162038091630390914D
:1018100064030E94B20E882339F180E090E0A6E9CB
:10182000B4E48093610390936203A0936303B09345
:10183000640385E595E5A0E5B4E480938503909382
:101840008603A0938703B0938803809179039091D6
:101850007A03A0917B03B0917C03181619061A062F
:101860001B0614F40E948C0620E030E04AE754E4A2
:1018700060915D0370915E0380915F0390916003BE
:101880000E94B20E8823E9F1809061039090620378
:10189000A0906303B090640375016401F7FAF094BB
:1018A000F7F8F09420E030E04AE754ECC501B401C9
:1018B0000E94B20E87FD0CC020E030E04AE754E4FD
:1018C000C501B4010E94B20E87FF12C17501640107
:1018D00020E030E0A901C701B6010E94B20E8111DB
:1018E0000DC1109248031092490310924A031092BE
:1018F0004B03C0925D03D0925E03E0925F03F092CF
:10190000600360E070E086E994E40E941F0984E6C9
:1019100091E00E94130980E891E00E946A0783E049
:1019200090E00E942B0886E891E00E946A0782E01E
:1019300090E00E942B0882E080938B0383E08093E9
:101940008C0361E082E00E946F0160E080918C0373
:101950000E946F0181E080938D030E949607C0E092
:10196000D0E0812C912C88E4A82E82E4B82E88EA5D
:1019700092E00E945602892B09F465C188EA92E040
:101980000E94340280939E028CE891E00E946A07D4
:1019900080919E020E94870780919E02813309F008
:1019A000D2C080919C0290919D02181619060CF4E9
:1019B0004AC188EA92E00E945602892B91F088EA97
:1019C00092E00E94340280939E028CE891E00E9493
:1019D0006A0780919E020E94870787E991E00E9432
:1019E0006A078091550390915603A0915703B091D7
:1019F00058030196A11DB11D4091590350915A03FE
:101A000060915B0370915C0384179507A607B70785
:101A100061F08093590390935A03A0935B03B093B2
:101A20005C0385E493E00E94330580914803909124
:101A30004903A0914A03B0914B03892B8A2B8B2B2E
:101A400009F44FC00E94A0016B017C0180916D03DD
:101A500090916E03A0916F03B0917003B701A6013E
:101A6000481B590B6A0B7B0B8091480390914903EB
:101A7000A0914A03B0914B03481759076A077B07A7
:101A800080F18091550390915603A0915703B09136
:101A9000580320914703222309F451C00196A11D48
:101AA000B11D8093550390935603A0935703B093B1
:101AB000580340915503509156036091570370911C
:101AC000580385E493E00E94F304C0926D03D09222
:101AD0006E03E0926F03F092700385E493E00E943E
:101AE00033050E94E10670939D0260939C0259CFDA
:101AF000C12CD12C9AE7E92E94E4F92EA701960186
:101B000060E074E284E799E40E948A109F770E9463
:101B10000311609348037093490380934A039093A1
:101B20004B03C1E020E030E0A901C701B6010E94EB
:101B3000321118160CF0C0E0C0934703DACE0197BB
:101B4000A109B109AECF823399F584ED90E00E94EE
:101B5000E5028AE00E943F070E94B90E0E94FC1035
:101B600060938E0370938F038093900390939103FF
:101B70008AE00E943F07CB010E942B0881EB91E095
:101B80000E9413090AE010E080918C030E94180162
:101B9000892B09F488C060E070E0CB010E94C50188
:101BA0000150110989F78AE892E00E9413094BC09D
:101BB000833309F053C082EC91E00E94130983EF54
:101BC00091E00E94130988EA92E00E945602892B54
:101BD00049F48092920390929303A0929403B0925E
:101BE0009503F1CF82E092E00E94130960918E0389
:101BF00070918F0380919003909191030E94190836
:101C00008DE192E00E94130981E00E943F0700915C
:101C10008E0310918F032091900330919103601BEC
:101C2000710B820B930B0E94B90E2091920330919D
:101C3000930340919403509195030E948A1042E0CF
:101C400050E00E944108209709F491CE0E94620260
:101C5000882309F48CCE0E94000089CE843399F445
:101C600088EA92E00E945602892B31F485E00E94B6
:101C70003F070E941908F4CF84E292E00E94130902
:101C80000E949607E0CF853339F464EF71E080E07D
:101C900090E00E94C501D7CF8837A9F68BEE90E07F
:101CA0000E947B07D0CF8AE00E943F070E94B90EB6
:101CB0000E94FC1060938E0370938F0380939003B7
:101CC000909391038DE392E00E946A070E94E106DF
:101CD0000E9419088DE492E00E946A0785E00E9444
:101CE0003F070E94190881E692E00E946A0785E09A
:101CF0000E943F0700918E0310918F032091900363
:101D000030919103601B710B820B930B0E94B90EF3
:101D100042E050E00E9441088FE692E00E946A078C
:101D200085E00E943F0700918E0310918F03209160
:101D3000900330919103601B710B820B930B0E94F7
:101D4000B90E2091920330919303409194035091E6
:101D500095030E948A1041E050E00E9441088DE7FF
:101D600092E08CCF0E94F40E08F481E00895E8948C
:101D700009C097FB3EF490958095709561957F4FD3
:101D80008F4F9F4F9923A9F0F92F96E9BB27939581
:101D9000F695879577956795B795F111F8CFFAF491
:101DA000BB0F11F460FF1BC06F5F7F4F8F4F9F4FC2
:101DB00016C0882311F096E911C0772321F09EE820
:101DC000872F762F05C0662371F096E8862F70E086
:101DD00060E02AF09A95660F771F881FDAF7880F60
:101DE0009695879597F90895990F0008550FAA0BB6
:101DF000E0E8FEEF16161706E807F907C0F012161E
:101E00001306E407F50798F0621B730B840B950B20
:101E100039F40A2661F0232B242B252B21F4089575
:101E20000A2609F4A140A6958FEF811D811D089512
:101E30000E942B0F0C949C0F0E948E0F38F00E9472
:101E4000950F20F0952311F00C94850F0C948B0FB7
:101E500011240C94D00F0E94AD0F70F3959FC1F325
:101E6000950F50E0551F629FF001729FBB27F00D48
:101E7000B11D639FAA27F00DB11DAA1F649F66279D
:101E8000B00DA11D661F829F2227B00DA11D621FEC
:101E9000739FB00DA11D621F839FA00D611D221FA6
:101EA000749F3327A00D611D231F849F600D211D8A
:101EB000822F762F6A2F11249F5750409AF0F1F00D
:101EC00088234AF0EE0FFF1FBB1F661F771F881F76
:101ED00091505040A9F79E3F510580F00C94850F1A
:101EE0000C94D00F5F3FE4F3983ED4F3869577953A
:101EF0006795B795F795E7959F5FC1F7FE2B880F1C
:101F0000911D9695879597F9089597F99F6780E8B1
:101F100070E060E008959FEF80EC089500240A943B
:101F20001616170618060906089500240A941216B4
:101F30001306140605060895092E0394000C11F4E7
:101F4000882352F0BB0F40F4BF2B11F460FF04C094
:101F50006F5F7F4F8F4F9F4F089557FD9058440FED
:101F6000551F59F05F3F71F04795880F97FB991FF8
:101F700061F09F3F79F087950895121613061406B5
:101F8000551FF2CF4695F1DF08C016161706180642
:101F9000991FF1CF86957105610508940895E8941D
:101FA000BB2766277727CB0197F90895A1E21A2E60
:101FB000AA1BBB1BFD010DC0AA1FBB1FEE1FFF1FED
:101FC000A217B307E407F50720F0A21BB30BE40B3D
:101FD000F50B661F771F881F991F1A9469F7609584
:101FE0007095809590959B01AC01BD01CF0108953E
:101FF000052E97FB1EF400940E940F1057FD07D08A
:102000000E94D60F07FC03D04EF40C940F1050958D
:102010004095309521953F4F4F4F5F4F08959095D4
:102020008095709561957F4F8F4F9F4F0895EE0F6C
:10203000FF1F0590F491E02D09945058BB27AA2763
:102040000E9435100C949C0F0E948E0F38F00E9455
:10205000950F20F039F49F3F19F426F40C948B0F60
:102060000EF4E095E7FB0C94850FE92F0E94AD0F6D
:1020700058F3BA17620773078407950720F079F4BD
:10208000A6F50C94CF0F0EF4E0950B2EBA2FA02DD1
:102090000B01B90190010C01CA01A0011124FF2715
:1020A000591B99F0593F50F4503E68F11A16F04010
:1020B000A22F232F342F4427585FF3CF469537950F
:1020C0002795A795F0405395C9F77EF41F16BA0BD4
:1020D000620B730B840BBAF09150A1F0FF0FBB1F82
:1020E000661F771F881FC2F70EC0BA0F621F731FCB
:1020F000841F48F4879577956795B795F7959E3F28
:1021000008F0B0CF9395880F08F09927EE0F9795B8
:10211000879508950E949E100C949C0F0E94950F25
:1021200058F00E948E0F40F029F45F3F29F00C9484
:10213000850F51110C94D00F0C948B0F0E94AD0F92
:1021400068F39923B1F3552391F3951B550BBB27E6
:10215000AA2762177307840738F09F5F5F4F220F2B
:10216000331F441FAA1FA9F335D00E2E3AF0E0E822
:1021700032D091505040E695001CCAF72BD0FE2F6C
:1021800029D0660F771F881FBB1F26173707480700
:10219000AB07B0E809F0BB0B802DBF01FF279358B8
:1021A0005F4F3AF09E3F510578F00C94850F0C94E8
:1021B000D00F5F3FE4F3983ED4F38695779567950B
:1021C000B795F7959F5FC9F7880F911D96958795ED
:1021D00097F90895E1E0660F771F881FBB1F62170C
:1021E00073078407BA0720F0621B730B840BBA0BCA
:1021F000EE1F88F7E09508950E9403116894B111CD
:102200000C94D00F08950E94B50F88F09F5798F056
:10221000B92F9927B751B0F0E1F0660F771F881FEB
:10222000991F1AF0BA95C9F714C0B13091F00E9405
:10223000CF0FB1E008950C94CF0F672F782F882728
:10224000B85F39F0B93FCCF3869577956795B3952C
:10225000D9F73EF490958095709561957F4F8F4F9B
:102260009F4F08950E94F40E08F48FEF089519F41B
:1022700016F40C948B0F0C9482110E94B50FB8F3D6
:102280009923C9F3B6F39F57550B87FF0E9490110E
:102290000024A0E640EA900180585695979528F4CE
:1022A000805C660F771F881F20F0261737074807C6
:1022B00030F4621B730B840B202931294A2BA6951D
:1022C00017940794202531254A2758F7660F771F62
:1022D000881F20F026173707480730F4620B730B6E
:1022E000840B200D311D411DA09581F7B901842F6C
:1022F0009158880F9695879508950E94F40E880B43
:10230000990B08959F3F31F0915020F48795779570
:102310006795B795880F911D9695879597F90895BC
:1023200091505040660F771F881FD2F708950F9382
:102330001F93CF93DF938230910510F482E090E0F9
:10234000E0919803F091990330E020E0B0E0A0E044
:10235000309799F42115310509F44AC0281B390B2F
:1023600024303105D8F58A819B816115710589F189
:10237000FB0193838283FE0111C040815181028160
:10238000138148175907E0F04817590799F4109737
:1023900061F012960C93129713961C933296CF010C
:1023A000DF91CF911F910F9108950093980310939F
:1023B0009903F4CF2115310551F04217530738F036
:1023C000A901DB019A01BD01DF01F801C1CFEF01D5
:1023D000F9CF9093990380939803CDCFFE01E20F3C
:1023E000F31F819391932250310939832883D7CFEA
:1023F0002091960330919703232B41F42091020101
:1024000030910301309397032093960320910001AC
:10241000309101012115310541F42DB73EB74091AE
:10242000040150910501241B350BE0919603F091B6
:102430009703E217F307A0F42E1B3F0B2817390769
:1024400078F0AC014E5F5F4F2417350748F04E0F10
:102450005F1F5093970340939603819391939FCF6F
:10246000F0E0E0E09CCFCF93DF930097E9F0FC0130
:10247000329713821282A0919803B0919903ED01D3
:1024800030E020E01097A1F420813181820F931F6A
:1024900020919603309197032817390709F061C0FE
:1024A000F0939703E0939603DF91CF910895EA01AB
:1024B000CE17DF07E8F54A815B819E014115510582
:1024C000B1F7E901FB83EA8349915991C40FD51F04
:1024D000EC17FD0761F4808191810296840F951FAE
:1024E000E90199838883828193819B838A83F0E0C9
:1024F000E0E012968D919C9113970097B9F52D917C
:102500003C911197CD010296820F931F2091960363
:10251000309197032817390739F6309751F5109203
:10252000990310929803B0939703A0939603BCCF9E
:10253000D383C28340815181840F951FC817D90767
:1025400061F44E5F5F4F88819981480F591F518315
:1025500040838A819B81938382832115310509F011
:10256000B0CFF0939903E09398039ECFFD01DC0177
:0C257000C0CF13821282D7CFF894FFCFA7
:10257C0000009A038000000000009802F801250278
:10258C0000035602340248020000000054032003EA
:10259C00BB06AE093305B504F3049F046D044C046B
:1025AC001804F703A103720300000000BC06B00975
:1025BC000D0A006E616E00696E66006F7666004BE8
:1025CC0061626F6F6D204B6F6E7665796F722056FE
:1025DC00302E3100496E697469616C697A696E6775
:1025EC00205363616C65206F6E2070696E733A00C6
:1025FC005344413A2000434C4B3A200072656369C6
:10260C00657665643A200065786974696E67206B3D
:10261C0061626F6F6D20636F6E766579616E636555
:10262C000074617265696E67207363616C652E2E30
:10263C002E005075742074686520353067207765DE
:10264C0069676874206F6E20746865207363616CB1
:10265C006520616E6420656E7465722073657269A5
:10266C00616C0063616C6962726174696E672E2EB5
:10267C002E00646F6E652063616C696272617469AF
:10268C006E672C206F66667365743A2000756E69F0
:10269C0074733A0071756974696E67207363616C49
:1026AC00652072656164696E672E2E2E00726177EB
:1026BC002072656164696E673A200909004176658C
:1026CC00726167652052656164696E673A20090919
:1026DC00006765742076616C75653A20090900679E
:1026EC00657420756E6974733A20090900646F6E05
:1026FC00652074617265696E670048583731312006
:0C270C006E6F7420666F756E642E000006
:00000001FF
