:100000000C9485060C94AD060C94AD060C94AD06CC
:100010000C94AD060C94AD060C94AD060C94AD0694
:100020000C94AD060C94AD060C94AD060C94AD0684
:100030000C94AD060C94AD060C94AD060C94AD0674
:100040000C94DE210C94AD060C944E220C942822C4
:100050000C94AD060C94AD060C94AD060C94AD0654
:100060000C94AD060C94AD0600000000003E5B4F02
:100070005B3E3E6B4F6B3E1C3E7C3E1C183C7E3C08
:10008000181C577D571C1C5E7F5E1C00183C180016
:10009000FFE7C3E7FF0018241800FFE7DBE7FF30A6
:1000A000483A060E2629792926407F050507407F14
:1000B00005253F5A3CE73C5A7F3E1C1C08081C1C87
:1000C0003E7F14227F22145F5F005F5F06097F017D
:1000D0007F006689956A606060606094A2FFA29468
:1000E00008047E040810207E201008082A1C080836
:1000F0001C2A08081E101010100C1E0C1E0C303884
:100100003E3830060E3E0E06000000000000005F84
:1001100000000007000700147F147F14242A7F2AA0
:100120001223130864623649562050000807030062
:10013000001C2241000041221C002A1C7F1C2A08AE
:10014000083E080800807030000808080808000011
:1001500060600020100804023E5149453E00427F85
:10016000400072494949462141494D331814127FD4
:100170001027454545393C4A494931412111090774
:100180003649494936464949291E000014000000F5
:1001900040340000000814224114141414140041C7
:1001A00022140802015909063E415D594E7C121184
:1001B000127C7F494949363E414141227F414141BC
:1001C0003E7F494949417F090909013E4141517337
:1001D0007F0808087F00417F41002040413F017FA8
:1001E000081422417F404040407F021C027F7F0470
:1001F00008107F3E4141413E7F090909063E4151B9
:10020000215E7F09192946264949493203017F01A8
:10021000033F4040403F1F2040201F3F4038403FA9
:10022000631408146303047804036159494D4300BF
:100230007F4141410204081020004141417F0402F6
:10024000010204404040404000030708002054548D
:1002500078407F284444383844444428384444286B
:100260007F385454541800087E090218A4A49C78BE
:100270007F0804047800447D40002040403D007F1A
:100280001028440000417F40007C047804787C08FA
:100290000404783844444438FC18242418182424CE
:1002A00018FC7C08040408485454542404043F44B3
:1002B000243C4040207C1C2040201C3C4030403CE2
:1002C00044281028444C9090907C4464544C440042
:1002D00008364100000077000000413608000201A6
:1002E0000204023C2623263C1EA1A161123A404092
:1002F000207A38545455592155557941225454780F
:1003000042215554784020545579400C1E527212A7
:100310003955555559395454545939555454580030
:1003200000457C410002457D420001457C407D1234
:1003300011127DF0282528F07C5455450020545496
:100340007C547C0A097F4932494949323A44444441
:100350003A324A4848303A4141217A3A424020787C
:10036000009DA0A07D3D4242423D3D4040403D3C7D
:1003700024FF2424487E4943662B2FFC2F2BFF09A2
:1003800029F620C0887E0903205454794100004496
:100390007D413048484A32384040227A007A0A0A81
:1003A000727D0D19317D2629292F282629292926F4
:1003B00030484D4020380808080808080808382F39
:1003C00010C8ACBA2F102834FA00007B00000814C3
:1003D0002A142222142A14085500550055AA55AA99
:1003E00055AAFF55FF55FF000000FF00101010FF39
:1003F00000141414FF001010FF00FF1010F010F094
:10040000141414FC001414F700FF0000FF00FF1484
:1004100014F404FC141417101F10101F101F1414D0
:10042000141F00101010F0000000001F101010101A
:100430001F10101010F010000000FF10101010100E
:1004400010101010FF10000000FF140000FF00FF4C
:1004500000001F10170000FC04F4141417101714E8
:1004600014F404F40000FF00F7141414141414140A
:10047000F700F7141414171410101F101F1414147D
:10048000F4141010F010F000001F101F0000001FE7
:1004900014000000FC140000F010F01010FF10FF1A
:1004A000141414FF141010101F00000000F010FFAF
:1004B000FFFFFFFFF0F0F0F0F0FFFFFF0000000093
:1004C00000FFFF0F0F0F0F0F3844443844FC4A4A17
:1004D0004A347E02020606027E027E0263554941CC
:1004E000633844443C04407E201E2006027E020203
:1004F00099A5E7A5991C2A492A1C4C7201724C3017
:100500004A4D4D303048784830BC625A463D3E49ED
:100510004949007E0101017E2A2A2A2A2A44445F91
:10052000444440514A444040444A51400000FF0185
:1005300003E080FF000008086B6B08361236243693
:10054000060F090F060000181800000010100030F8
:1005500040FF0101001F01011E00191D1712003C80
:100560003C3C3C000000000011007F962900010087
:100570007F9628003A0155C0021010C10141C50400
:1005800000228040360168B00100B102B011B40110
:1005900002B60302023BB701C63A0155F704A9515E
:1005A0002C82B701C6E808408A00002919A533C08B
:1005B000020D0DC1024300C20100C50400480048FD
:1005C000B40100B60302023BE00F0F211C0B0E0822
:1005D000499838091103141000E10F0F2F2B0C0E4E
:1005E00006477637071104231E00B00100B304024A
:1005F000000000B40100D003074218D10300071027
:10060000D2020102D3020102D4020102C005123B50
:10061000000211C103101088C50103C60102C80CF5
:10062000003236450616377577540C00CC0100F6BB
:1006300003010100CF03008130ED0464031281E85F
:1006400003851078CB05392C003402F70120EA022B
:100650000000B00100B102001BB40100C00121C1C3
:100660000111C5023F3CC701B5360148F201002621
:100670000101E00F0F26240B0E0954A8460C1709A0
:100680000F0700E10F00191B0410072A4739030662
:100690000630380F360100B80101C0010EB001006C
:1006A000C10410100202C006003500000102C5019D
:1006B00004D2020104CA0100EA0180B903FF835792
:1006C0007F967F96B60125C0065050013C1E08B4A7
:1006D000070240002A2A0D787F01F20B1616030844
:1006E00008080810041616FD03110235B2050C0C9B
:1006F000003333B70135BB012BC00104C20201FF37
:10070000C30111C40120C6010FD002A4A1E00ED084
:1007100000050E150D3743470915121619E10ED0C5
:1007200000050D0C062D44400E1C1816193A0155F3
:100730007F0A06000700B1020012B40102B60400ED
:10074000202700CA0101CB0103C001137F14C5019A
:10075000CCC60100C70104C80103CC0106CD011CB1
:10076000F9021515F3030A020AF603011000FA0054
:10077000FB00E2031E0254E001017F0AE001037F57
:100780000A01007F64E60303FFFFB0072400031F94
:1007900001DF00B40803A0002E30000F00B60702EE
:1007A0000D0010100008BA010FB8020701F0010097
:1007B0007F01280011007F642900BE0606F001F0C9
:1007C0000000D0010DB00103E2013FC00122E201AF
:1007D00000B00100C0010AB00100000000000000EC
:1007E00000000000000000000000FFFF0F000004F8
:1007F0000062080008080003000C01030B5A020302
:10080000060903031710040300230503001706035A
:1008100009630703090C08030C10090332221000B6
:100820001600110001011200000013000100000178
:100830003003010137020301000D80020061020153
:10084000B0C1FFFF320001000001020000010300FF
:100850003010090001000C000000900000800F0023
:100860000000100200001102EF001202000013024B
:100870008F01000500000105000002055F00010472
:10088000010004040000FFFF320007000001FFFF29
:100890003200000200000102000000000000000021
:1008A00000000000000000000100A4000100FFFFA4
:1008B0000A00600000270800080830001402310018
:1008C0001537320004063300160E340011223500AD
:1008D0000015360007853700071438000314390067
:1008E00020009000150010001004110037022900AC
:1008F00046002A004600070000001200890113008C
:100900000011FFFF96001200B90101000001020072
:10091000000203003010090001000A0000000D0071
:1009200000000E003000610001006A00000080003D
:1009300000008100000082005F009200000193002F
:100940000107FFFF500007000001E500F0780100FB
:100950000001020000020300301004000000050046
:10096000000008000702090000000A0000000C0057
:1009700000000D0000000F0000001000000011003A
:100980000700120000001300000007000100FFFF35
:10099000C8001000901611002702FFFF320012005D
:1009A0000D00FFFF32001300001229000A002B0087
:1009B0000D00FFFF32002000000021000000300089
:1009C0000000310004043200030035000504360045
:1009D00008083700070438000303390007073C0004
:1009E00004053D00080860000027610001006A005E
:1009F00000008000000081000000820000008300F1
:100A000000008400000085000000900010009200AB
:100A1000000007003301E500008000000100010034
:100A2000000102000007030030100400000008006D
:100A30000202090000000A0000000C0000000D0086
:100A400000000F000000100000001100070012005D
:100A5000000013000000FFFF32001000B01711006B
:100A60000700FFFF0A0012003A01FFFF0A0013000F
:100A7000001A29000C00FFFF0A00300000003100BE
:100A80000505320004003500060036000707370070
:100A9000050138000200390007073C0004073D004B
:100AA0000708600000A7610001006A000000210043
:100AB0000000200000008000000081000000820093
:100AC000000083000000840000008500000090000A
:100AD00010009200000093000300950010019700A1
:100AE00000009800000007007301FFFF32000100C2
:100AF0000001020000070300301008000203090093
:100B000000000A000800100000001100050012009B
:100B1000000013000000FFFF64001000B012FFFF90
:100B2000320011000700FFFF320012008C0013009A
:100B3000001729002000FFFF3200300000003100C4
:100B400006013200010135000601360003023700BC
:100B5000000038000707390004023C0006013D0090
:100B60000301600000A76100010090003000070051
:100B70003301FFFF3200150030009A001000110011
:100B80002000100028341200020013003810FFFF6C
:100B9000280012001200FFFF28001000203413006C
:100BA0004530FFFF460030000000310002043200F3
:100BB0000703330004033400040035000104360049
:100BC000070737000503380010063900100601003A
:100BD00000010200000303003010080008080A00AA
:100BE0000800600000276100010090003E019200B3
:100BF000000193000001A0000030A30010000700D6
:100C00000100070021000700230007003300070050
:100C1000330111001A001200213113006C0014007E
:100C2000494210000008FFFF0A0011001A01FFFFEF
:100C30000A0011001A03FFFF0A0011001A07FFFF44
:100C40000A0011001A0FFFFF0A0011003A0FFFFF00
:100C50001E000100280102000001030030100700FF
:100C60001210080003030B0000110C0000000F001D
:100C70000118150020005000010151000306520028
:100C800008045300000054000506550006045600F1
:100C90000303570003035800100059000010070019
:100CA0001200FFFF280007001300070017000000D4
:100CB0000000240027002A00000000002300260076
:100CC00029000000000800020100000304070000E2
:100CD0000000000000000102040810204080010212
:100CE0000408102001020408102000000000250064
:100CF00028002B0004040404040404040202020279
:100D00000202030303030303802211241FBECFEF5B
:100D1000D8E0DEBFCDBF13E0A0E0B1E0E2E1FBE749
:100D200002C005900D92A238B107D9F727E0A2E8DA
:100D3000B3E001C01D92A836B207E1F716E0C5E89E
:100D4000D6E004C02197FE010E942D38C438D10797
:100D5000C9F70E94A0240C94873D0C9400008330B6
:100D600081F028F4813099F08230A9F0089587301D
:100D7000A9F08830C9F08430B1F4809180008F7D73
:100D800003C0809180008F7780938000089584B5A0
:100D90008F7784BD089584B58F7DFBCF8091B0009F
:100DA0008F778093B00008958091B0008F7DF9CF48
:100DB000CF93DF93282F30E0F901EE53F34F849166
:100DC000F901EA52F34FD491F901EC50F34FC49179
:100DD000CC23A1F081110E94AF06EC2FF0E0EE0FC2
:100DE000FF1FE854F34FA591B491EC91ED2381E0FE
:100DF00090E009F480E0DF91CF91089580E090E0E9
:100E0000FACF1F93CF93DF93282F30E0F901EE53F1
:100E1000F34F8491F901EA52F34FD491F901EC5068
:100E2000F34FC491CC23A9F0162F81110E94AF0675
:100E3000EC2FF0E0EE0FFF1FE651F34FA591B491B8
:100E40008FB7F894EC91111108C0D095DE23DC9394
:100E50008FBFDF91CF911F910895DE2BF8CFCF93F5
:100E6000DF9390E0FC01EA52F34F24918C50934FB2
:100E7000FC0184918823D1F090E0880F991FFC0138
:100E8000E255F34FA591B491FC01E651F34FC591A2
:100E9000D49161110EC09FB7F8948C91E22FE09528
:100EA0008E238C932881E223E8839FBFDF91CF912B
:100EB00008958FB7F894EC91E22BEC938FBFF6CFA7
:100EC0008E3008F08E508770806480937C00809113
:100ED0007A00806480937A0080917A0086FDFCCF4E
:100EE000809178009091790008953FB7F8948091AF
:100EF000B2039091B303A091B403B091B50326B5AA
:100F0000A89B05C02F3F19F00196A11DB11D3FBF41
:100F1000BA2FA92F982F8827BC01CD01620F711D10
:100F2000811D911D42E0660F771F881F991F4A950A
:100F3000D1F708958F929F92AF92BF92CF92DF9296
:100F4000EF92FF926B017C010E9475074B015C01DF
:100F5000C114D104E104F104B9F00E9475076819C5
:100F600079098A099B09683E73408105910580F3E0
:100F700021E0C21AD108E108F10888EE880E83E06A
:100F8000981EA11CB11CE4CFFF90EF90DF90CF9092
:100F9000BF90AF909F908F900895DC01ED91FC91F0
:100FA0000190F081E02D0994AF92BF92CF92DF9231
:100FB000EF92FF920F931F93CF93DF936C017B010E
:100FC0008B01040F151FEB015E01AE18BF08C0179F
:100FD000D10759F06991D601ED91FC910190F08112
:100FE000E02DC6010995892B79F7C501DF91CF91D5
:100FF0001F910F91FF90EF90DF90CF90BF90AF9037
:101000000895FC01538D448D252F30E0842F90E00E
:10101000821B930B541710F0CF96089501970895F3
:10102000FC01918D828D981761F0A28DAE0FBF2FBC
:10103000B11D5D968C91928D9F5F9F73928F90E012
:1010400008958FEF9FEF0895FC01918D828D981781
:1010500031F0828DE80FF11D858D90E008958FEFBE
:101060009FEF0895FC01918D228D892F90E0805C87
:101070009F4F821B91098F739927089587EB93E007
:101080000E94320821E0892B09F420E0822F089584
:1010900080E090E0892B29F00E943E0881110C9499
:1010A00000000895FC01A48DA80FB92FB11DA35A0B
:1010B000BF4F2C91848D90E001968F739927848F78
:1010C000A689B7892C93A089B1898C91837080649B
:1010D0008C93938D848D981306C00288F389E02D3C
:1010E00080818F7D80830895EF92FF920F931F93ED
:1010F000CF93DF93EC0181E0888F9B8D8C8D9813CB
:101100001AC0E889F989808185FF15C09FB7F894D6
:10111000EE89FF896083E889F98980818370806422
:1011200080839FBF81E090E0DF91CF911F910F916D
:10113000FF90EF900895F62E0B8D10E00F5F1F4F7C
:101140000F731127E02E8C8D8E110CC00FB607FC8B
:10115000FACFE889F989808185FFF5CFCE010E9419
:101160005208F1CFEB8DEC0FFD2FF11DE35AFF4F2D
:10117000F0829FB7F8940B8FEA89FB8980818062A7
:10118000CFCFCF93DF93EC01888D8823B9F0AA8964
:10119000BB89E889F9898C9185FD03C0808186FD32
:1011A0000DC00FB607FCF7CF8C9185FFF2CF808181
:1011B00085FFEDCFCE010E945208E9CFDF91CF919C
:1011C000089508950F931F93CF93DF93EC018B0144
:1011D000FE0194913196649122969F3799F470E0C4
:1011E00090E080E00E949A0760E0E62FF0E03296FF
:1011F0000E1B1F0B101611065CF3DF91CF911F9190
:101200000F9108954398429885B18C7F292F2370C0
:10121000822B85B98BB183709C7F892B8BB94198C8
:10122000419A30E020E02617A8F4FE01E20FF31FF8
:10123000E491429A85B18C7F9E2F9370892B85B95A
:101240008BB18370EC7FE82BEBB94198419A2F5F0B
:101250003F4FE9CFC60FD11D439AC7CF439842985D
:1012600025B12C7F392F3370232B25B92BB1237057
:101270009C7F922B9BB94198419A95B19C7F282FD6
:101280002370922B95B99BB193708C7F892B8BB96E
:101290004198419A429AFA01615078F0219195B1B2
:1012A0009C7F822F8370982B95B98BB183702C7F94
:1012B000822B8BB94198419AEFCF439A0895439876
:1012C000429825B12C7F392F3370232B25B92BB1B0
:1012D00023709C7F922B9BB94198419A95B19C7F3A
:1012E000282F2370922B95B99BB193708C7F892BFB
:1012F0008BB94198419A429A85B18C7F972F937010
:10130000892B85B98BB183707C7F782B7BB9419811
:10131000419A85B18C7F962F9370892B85B98BB1BB
:1013200083706C7F682B6BB94198419A439A0895FA
:1013300081E08093B60384B1836084B98AB18C6FF5
:101340008AB9389A399A3A9A3B9A3C9A439A409A7F
:10135000419A449A62E370E080E090E00E949A072C
:10136000449864E670E080E090E00E949A07449A16
:1013700064E670E080E090E00E949A0770E060E030
:1013800080EB90E00C945F091F93CF93DF93C82FFD
:10139000162F8091B603811102C00E9498094398CC
:1013A000429885B18C7F85B98BB183708BB9419898
:1013B000419A95B19C7F8C2F8370982B95B98BB1F6
:1013C0008370CC7F8C2B8BB94198419A429A84B11F
:1013D0008C7F84B98AB183708AB961E070E080E063
:1013E00090E00E949A0761E070E080E090E00E9447
:1013F0009A07409A409840984098C3B1D9B1409A12
:1014000061E070E080E090E00E949A07409A409886
:101410004098409883B199B1409A115020F7409A72
:10142000439A24B1236024B92AB12C6F2AB9C3701E
:10143000DC7FCD2B83709C7F892B9C2FDF91CF91FC
:101440001F9108950F931F93CF93DF938C0160E05A
:101450000E94C409EC0161E0C8010E94C4098C012A
:10146000BE0190E080E0CB017727662730E020E0E6
:10147000602B712B822B932BDF91CF911F910F91BA
:101480000895FF920F931F93CF93DF938C0160E039
:101490000E94C409EC0161E0C8010E94C409F82E51
:1014A00062E0C8010E94C409AE0170E060E0742FE0
:1014B00066275527442700E030E020E0402B5F29D5
:1014C000622B732B292F30E0C901B0E0A0E08A0124
:1014D0009B01082B192B2A2B3B2BC901B801DF914B
:1014E000CF911F910F91FF9008950F931F93CF936A
:1014F000DF93EC018B01FE0185919491FE01329600
:101500002496659174918F3F980771F490E080E084
:101510000E949A07045011091016110664F3DF9116
:10152000CF911F910F9108950E945F09F3CFFC01A5
:10153000262F358D868D82958170982F9627692F5D
:1015400070E072A361A330FF0CC0821307C080E279
:1015500090E050E040E060E00C942E0981E290E0E1
:10156000F8CF878D90A1833927E7920741F058F48F
:10157000843521E0920791F080329445C1F4626095
:1015800081E094E012C0863223E99207C1F38930EA
:1015900025EB9207A1F38532924949F4660F771F34
:1015A000660F771F636187E090E00C945F0981E626
:1015B00090E0FBCF8F929F92AF92BF92CF92DF923B
:1015C000EF92FF920F931F93CF93DF9300D000D041
:1015D000CDB7DEB77C014B015A016901FC01878D53
:1015E00090A18632954151F4F701868980FF06C0AB
:1015F000C801841B950B81F50F5F1F4FF701858D87
:1016000080FF31C085A599828A82DB82CC82AE01BF
:101610004F5F5F4F64E090E00E942E09F70181A9BF
:10162000B982AA821B830C83AE014F5F5F4F64E0D7
:1016300090E00E942E090F900F900F900F90DF9175
:10164000CF911F910F91FF90EF90DF90CF90BF90BF
:10165000AF909F908F9008952617370779F6C80EA0
:10166000D91E8A01CBCFB40187A190A50E945F0942
:10167000B501F70181A592A50E945F09C814D9049C
:1016800019F40A151B05B9F2F701858D85FF08C00D
:10169000868980FF1EC0102F0027A02AB12A85014D
:1016A000B401F70185A596A50E945F09B501F70170
:1016B00081A992A90E945F09B601F70187A590A9A7
:1016C0000E945F09B801F70183A994A90E945F09EC
:1016D000B2CFDC2CCC248C289D286401E1CFAF92C2
:1016E000BF92CF92DF92EF92FF920F931F93CF930F
:1016F000DF93EC0180918203882349F0C701880FB2
:10170000991F8E739927E1ECEE22E82AF92A37FF18
:1017100005C0620F731F319521953109260F371FC0
:1017200077FF02C070E060E0888599852817390747
:101730000CF4C9016C01C61AD70A17FF05C0400F87
:10174000511F119501951109040F151F57FF02C074
:1017500050E040E02A853B85021713070CF49801FE
:101760005901A41AB50A8901015011099C0121509F
:101770003109CE010E94DA0A439842983BA58CA514
:1017800025B12C7F982F9370292B25B99BB193708D
:101790008C7F982B9BB94198419A95B19C7F832F60
:1017A0008370982B95B98BB183703C7F832B8BB959
:1017B0004198419A429ACA14DB042CF09A2D8B2D41
:1017C0005601C92ED82E8F2DA70193E05695479527
:1017D0009A95E1F74C7F5E2D550F550F550F6F2DE4
:1017E00063707F2D7C7FEE2DE3702E2D2C7FE22EFB
:1017F000887F1C141D040CF03FC090918303950159
:10180000992311F195B19C7F95B99BB19370982B59
:101810009BB94198419A95B19C7F95B99BB19370C2
:10182000942B9BB94198419A95B19C7F95B99BB1F6
:101830009370952B9BB94198419A2150310911F72A
:1018400091E0C91AD108D5CF95B19C7F962B95B957
:101850009BB19370972B9BB94198419A95B19C7F0E
:101860009E2B95B99BB193709E299BB94198419A43
:101870002150310949F7E4CF439A8D8D80FF08C08C
:101880008F8D98A18632954191F48E8980FF0FC08B
:101890000A851B8501501109288539852150310998
:1018A00050E040E070E060E0CE010E94DA0ADF9193
:1018B000CF911F910F91FF90EF90DF90CF90BF904D
:1018C000AF900895EF92FF920F931F93CF93DF9302
:1018D0007C01E90177FD6DC057FD6BC0FC0180857F
:1018E0009185681779070CF064C082859385481745
:1018F00059070CF05EC080918203882341F0C90132
:10190000880F991F8E739927C17CC82BD92B8A0108
:101910009B01C7010E94DA0A80918303882309F49E
:101920004FC043984298F70133A584A525B12C7F79
:10193000982F9370292B25B99BB193708C7F982B8E
:101940009BB94198419A95B19C7F832F8370982BC6
:1019500095B98BB183703C7F832B8BB94198419AA9
:10196000429A85B18C7F85B99BB18D2F887F93700A
:10197000892B8BB94198419A85B18C7F85B92BB160
:10198000CE0133E0969587953A95E1F78C7F2370E9
:10199000822B8BB94198419A85B18C7F85B98BB1E7
:1019A000CC0FCC0FCC0F8370C82BCBB94198419A88
:1019B000439ADF91CF911F910F91FF90EF9008957F
:1019C000BE01F70183A594A5DF91CF911F910F91DF
:1019D000FF90EF900C945F09EF92FF920F931F938B
:1019E000CF93DF93CDB7DEB72A970FB6F894DEBF5B
:1019F0000FBECDBF7C01862F8370F701868B962F9B
:101A0000917060FFE3C026813781F701318720871D
:101A1000992309F4DEC024813581F70133872287B9
:101A2000823009F4DBC0833009F4DAC0813009F474
:101A3000D3C088E48A87F701858D968D90FF03C017
:101A40002A8520582A8791FF04C02A8530E423275D
:101A50002A8793FF04C02A8538E023272A87F701C5
:101A6000278D30A180FF00C12431F8E63F0709F03F
:101A7000B9C09A85892F88728A871F82892F859598
:101A80008074282F2260892F90E095958795807229
:101A90009927822B88878BE38987AE01495F5F4F47
:101AA00063E086EB90E00E942E092AE230E0F70125
:101AB00030A727A38BE290E092A781A74CE250E0E9
:101AC00054A743A736A725A730AB27A792AB81AB76
:101AD00094AB83ABAE01465F5F4F61E086E390E07D
:101AE0000E942E098A8590E0F70194A383A3F70151
:101AF000868980FF1CC0858D968D92FD18C087A1B8
:101B000090A521A532A530A727A392A781A785A5D7
:101B100096A521A932A936A725A792AB81AB87A5A7
:101B200090A923A934A930AB27A794AB83ABF701C5
:101B30000285138501501109208531852150310915
:101B400050E040E070E060E0C7010E94DA0AF7016F
:101B500066817781878D90A120E08732F3E99F0726
:101B600009F420E2F701358D30FF39C119821A825C
:101B70007B836C831D822E83AE014F5F5F4F66E0D7
:101B800083E390E00E942E0919821A82AE014F5F12
:101B90005F4F62E087E390E00E942E09F701858D98
:101BA00080FF07C050E040E060E083E190E00E94E9
:101BB0002E092A960FB6F894DEBF0FBECDBFDF9177
:101BC000CF911F910F91FF90EF900895248135815F
:101BD0001CCF2681378121CF88E22CCF88E92ACFFC
:101BE00088EF28CF273243E9340789F41F8281E345
:101BF00088878A8585958595859585958870898757
:101C0000AE01495F5F4F63E080EC90E04CCF23363C
:101C100089E1380749F02138E4E93E0729F021310C
:101C2000F5E13F0709F041CF8A8587FF02C0816057
:101C30008A878A8586FF02C082608A878A858F7339
:101C4000233649E1340731F0213884E9380721F49B
:101C50008A858F728A8729CF2131354109F025CFB6
:101C60008A858F7E806CF6CF6A85862F062E000CC3
:101C7000990B2339F7E73F0751F0A8F52435E1E048
:101C80003E0709F45CC02032F4E53F07A1F540E0CF
:101C900052E0F70150A747A341E052E052A741A705
:101CA00042E052E054A743A740E152E056A745A7BF
:101CB00041E152E050AB47A742E152E052AB41ABA9
:101CC00043E152E054AB43AB882790782632F3E9E6
:101CD0003F0721F02032344509F071C067FD846070
:101CE00060E071E36EC0263243E9340781F22930A7
:101CF000E5EB3E0761F220E230E0F70130A727A3D1
:101D000021E230E032A721A722E230E034A723A766
:101D100020E530E036A725A721E530E030AB27A746
:101D200022E530E032AB21AB23E530E034AB23AB2E
:101D3000BC0166277078776280E690E046C027E3B2
:101D400030E0F70136A725A726E330E030AB27A720
:101D500029E330E032AB21AB28E330E034AB23ABF6
:101D600020E230E030A727A321E230E032A721A70C
:101D700022E230E034A723A7F4E06F9FB0011124E2
:101D800066277170882792708862682B792B81E0B2
:101D900090E00E945F098A85682F70E075956795CD
:101DA000759567956870772783FD70616063F701AB
:101DB00074A363A383E090E00E945F0998CE60E083
:101DC00072E6682B792B80E094E00E945F096A85B7
:101DD000F4E06F9FB001112466277170D8CF83396A
:101DE000F7E79F07D9F1F0F4803244E59407B1F1A9
:101DF0008338E7E79E0731F184359140F1F4615073
:101E0000710981E390E00E945F0970E060E082E385
:101E100090E00E945F0970E060E083E390E00E9440
:101E20005F09C7CE863223E99207C1F0893045EBBE
:101E30009407A1F08532924911F3F70161A172A1D3
:101E4000626003C0F70161A172A181E690E00E9487
:101E50005F0970E060E08AE690E0E1CFF70161A100
:101E600072A1626081E094E00E945F0970E060E02E
:101E700084E094E0D4CFEF92FF920F931F93DC01A4
:101E8000ED91FC9100A0F1A1E02D780101E010E0BE
:101E900009951F910F91FF90EF900895EF92FF9297
:101EA0000F931F93DC01ED91FC9100A0F1A1E02DB7
:101EB0007801890121E030E009951F910F91FF9091
:101EC000EF900895FC01248D211102C0858D0895A5
:101ED00080E00895FC01848D882319F0858D91E0C0
:101EE00089270895FC018281938168177907A4F0FE
:101EF00026813781820F931F681779076CF424813C
:101F000035814217530744F080859185280F391F8A
:101F100081E0421753070CF080E008950895FC011A
:101F20006370668B8481958126813781613039F0B9
:101F3000633029F09187808733872287089531871E
:101F400020879387828708952F923F924F925F92C6
:101F50006F927F928F929F92AF92BF92CF92DF92B9
:101F6000EF92FF920F931F93CF93DF93CDB7DEB71E
:101F70006A970FB6F894DEBF0FBECDBF9A8F898FD8
:101F80007A8369834A01D22E18870F833701BC2CCC
:101F9000DC0159962D913C915A972115310509F094
:101FA00015C118968D919C911997681779070CF0B7
:101FB000D7C11A968D919C91481759070CF0D0C142
:101FC0004C2C512CB6E0CB9E600D711D11247C87EA
:101FD0006B87161617060CF0C3C1EA2DF0E0FA87DE
:101FE000E98793E0EE0FFF1F9A95E1F7F88BEF87F3
:101FF000CF01840F951F181619060CF0B1C1A98DD9
:10200000BA8D58968C91811104C0BFEABD1508F4B1
:10201000D394A98DBA8DED91FC9111970284F3852B
:10202000E02DCD010995B5E0DB9EC0011124E981C9
:10203000FA81FC83EB83312C212C9C0128593F4FE2
:10204000388F2F8B4A2D50E05E8B4D8BEF89F88DAA
:10205000E20DF31D44919E828D82D12CC12C6981A9
:102060007A81620D731D7A8B698B842F90E09C8B33
:102070008B8BE98DFA8DA081B18140FF82C0F1E0A8
:10208000BF126FC0AF126DC01C96ED91FC912F81F5
:102090003885A4014C0D5D1D69897A89898D9A8DD9
:1020A0000995EB89FC89F595E7954E2F5FEFC51AE9
:1020B000D50A6D817E818D899E89680F791F7E8307
:1020C0006D8398E0C916D10481F6AFEF2A1A3A0A57
:1020D000EB81FC81E40DF51DFC83EB83F5E02F160D
:1020E000310409F0B3CF2F81388526153705B9F0B3
:1020F000A98DBA8DED91FC91B1E0BB1257C0AB1226
:1021000055C069817A816B5F7F4F0088F189E02D2E
:10211000830128E030E0A401898D9A8D0995A98D6D
:10212000BA8DED91FC9111970688F789E02DCD01CC
:102130006A960FB6F894DEBF0FBECDBFDF91CF9188
:102140001F910F91FF90EF90DF90CF90BF90AF90D5
:102150009F908F907F906F905F904F903F902F90C7
:1021600009941E96ED91FC91EF80F88409851A85FB
:1021700092014D815E816B817C81898D9A8D09955B
:1021800090CF2F8138852615370509F48ACF31E0A5
:10219000B31207C0A31205C01C96ED91FC919301E8
:1021A00078CF1E96ED91FC917301E0CF6B857C8515
:1021B000641975090684F785E02D73010F85188968
:1021C0009201A401898D9A8D0995A9CFF9013496C0
:1021D0009491329745915491D91AB7E0DB9E400D06
:1021E000511D1124F901259134913C8B2B8BFA015F
:1021F00025903490FA013296749031963491398B4F
:10220000329664903196449041E04C1518F04A158E
:1022100008F07FC0662D062C000C770B7C836B8347
:10222000842D042C000C990B9E838D83A98DBA8D6F
:10223000ED91FC9111970284F385E02DCD01099574
:10224000512CD12CC12CEA2DF0E0FA87E9872B2DF7
:1022500030E03C872B87A401440D511D47FC5A9563
:10226000588F4F8B69817A81660D711D67FC7A9555
:102270007E876D877989C71608F051CF2C2D30E005
:102280004D815E81420F531FA985BA854A9FC001C7
:102290004B9F900D5A9F900D1124FC01E80DF91DE4
:1022A000F88BEF87852D612C4F89588D420F531F76
:1022B0005E8B4D8B671408F050C044244394480E45
:1022C000877041F4C1010196EB89FC89E20DF31D91
:1022D000D4901C01D7FE19C0A98DBA8DED91FC9147
:1022E000662D70E0B1E0BB1219C0AB1217C02D858E
:1022F0003E85620F731F0484F585E02D2F8138859C
:102300004D895E89898D9A8D0995DD0C6394842DA4
:10231000D1CF1E821D821C821B8288CF4B815C81A3
:10232000640F751FAB85BC856A9FC0016B9F900DC4
:102330007A9F900D112469817A81680F791F068434
:10234000F785E02DEF80F88409851A859D014F857A
:102350005889898D9A8D0995D8CF570CC3948ACF07
:102360006A960FB6F894DEBF0FBECDBFDF91CF9156
:102370001F910F91FF90EF90DF90CF90BF90AF90A3
:102380009F908F907F906F905F904F903F902F9095
:1023900008958F929F92AF92CF92EF92FF920F93F8
:1023A0001F93CF93DF93EC01262F898D9A8D009791
:1023B00009F051C06A30D1F41D861C868D8948E031
:1023C000849F900111248E859F85820F931F9F8784
:1023D0008E8781E090E0DF91CF911F910F91FF9068
:1023E000EF90CF90AF909F908F9008956D3089F3CC
:1023F000CC88AD888F898823C1F08C859D8536E097
:10240000C39E800D911D1124488559854817590791
:1024100064F44E855F851D861C8638E0A39EC0014E
:102420001124840F951F9F878E87EA88FB8808896F
:1024300019894E855F856C857D85CE010E94A40F2C
:102440002C898C859D8546E0249F800D911D11244B
:102450009D878C87BECF6A3069F41D861C86FC017F
:102460003896E4912D898E859F85E29F800D911D80
:102470001124ADCF6D3009F4ACCFFC01349634910A
:10248000631708F4A6CF3296E491E61708F4A1CFBB
:10249000FC01329685909490462F431B342F47E0E1
:1024A000349F800C911C1124F401329634913196A2
:1024B000E4913323A9F1EE2399F1CC88F401359608
:1024C000E491AD884F89442301F10E2E000CFF0BDF
:1024D000E30FF11DCE9EA001CF9E500D11246C85FF
:1024E0007D85460F571F68857985641775076CF4DD
:1024F0004E855F851D861C86FC013896E491AE9E54
:10250000400D511D11245F874E87EA88FB8808899A
:1025100019894E855F856C857D85CE010E94A40F4B
:10252000F4013496E4912C898C859D85E29F800D81
:10253000911D11248DCF6F927F928F929F92AF92B7
:10254000BF92CF92DF92EF92FF920F931F93CF93A0
:10255000DF93EC016B015A0139014801E881F981EF
:102560000284F385E02D0995E881F9810288F389D9
:10257000E02D87019301A501B601CE010995A501C2
:10258000480D591D41505109E881F9810288F389AC
:10259000E02D9301B601CE010995E881F98100880B
:1025A000F189E02D9401A501B601CE010995C60C73
:1025B000D71CB60161507109E881F9810088F18961
:1025C000E02D9401A501CE010995E881F9810688E5
:1025D000F789E02DCE01DF91CF911F910F91FF90F0
:1025E000EF90DF90CF90BF90AF909F908F907F90B3
:1025F0006F9009942F923F924F925F926F927F92C9
:102600008F929F92AF92BF92CF92DF92EF92FF9202
:102610000F931F93CF93DF93CDB7DEB72D970FB6F0
:10262000F894DEBF0FBECDBF5C011B0158874F83FE
:102630003D872C870987FC82EB82360181E090E0A0
:102640006C01C21AD30AC9019195819591099C0127
:10265000220F331F3A832983C70101969E838D83FE
:10266000F12CE12C44244394512CDA011196BB87C0
:10267000AA872C853D85E216F3060CF070C08C8489
:102680009D84D7FC0BC0490131E0831A91088981F0
:102690009A8102969A838983C80ED91E9FEFE91A00
:1026A000F90AA2E04A0E511CC40CD51C8E149F04DA
:1026B00044F42C853D8528153905F1F49D868C86DA
:1026C000D8CF9401220F331F4F81588548195909DB
:1026D000D501ED91FC91B9858D819E81280F391F1F
:1026E0000088F189E02D8301B101B13009F56E0D4B
:1026F0007F1DC5010995DDCF9985913019F59201AE
:1027000022503109AB81BC812A0F3B1F6C857D852E
:10271000620D731DD501ED91FC910088F189E02DCA
:1027200083014A855B854E195F09C5010995C6CFAE
:102730006E197F09C5010995AC85BD85A815B90538
:1027400009F4BCCF9201225031098B819C81280F62
:10275000391FB101AC85BD856A1B7B0BDBCF2D9684
:102760000FB6F894DEBF0FBECDBFDF91CF911F91A2
:102770000F91FF90EF90DF90CF90BF90AF909F9020
:102780008F907F906F905F904F903F902F90089523
:102790002F923F924F925F926F927F928F929F9271
:1027A000AF92BF92CF92DF92EF92FF920F931F935F
:1027B000CF93DF9300D000D000D0CDB7DEB79E839B
:1027C0008D834B013A016901802F21E030E029011E
:1027D0004C185D08222433242C183D08220C331C8D
:1027E000B12CA12C01E010E0982F94709983A82FB0
:1027F000A270AA83B82FB870BB8381708C83AC148D
:10280000BD040CF0A7C057FC08C081E0C81AD1086D
:1028100092E0290E311C420C531CAFEFAA1ABA0ADF
:102820000E5F1F4F400E511EB981BB2311F1AD81C8
:10283000BE81ED91FC9111970484F585E02D9701FF
:10284000A601460D571DB4016A0D7B1DCD010995EA
:10285000AD81BE81ED91FC9111970484F585E02D49
:102860009701A3014A0D5B1DB601680D791DCD01CD
:102870000995BA81BB2311F1AD81BE81ED91FC9127
:1028800011970484F585E02D9701A3014C195D098A
:10289000B4016A0D7B1DCD010995AD81BE81ED911D
:1028A000FC9111970484F585E02D9701A3014A1945
:1028B0005B09B601680D791DCD010995BB81BB236C
:1028C00011F1AD81BE81ED91FC9111970484F585E4
:1028D000E02D9701A3014A0D5B1DB4016C197D0920
:1028E000CD010995AD81BE81ED91FC9111970484D4
:1028F000F585E02D9701A601460D571DB4016A1913
:102900007B09CD010995BC81BB2309F478CFAD814A
:10291000BE81ED91FC9111970484F585E02D97011E
:10292000A3014A195B09B4016C197D09CD01099510
:10293000AD81BE81ED91FC9111970484F585E02D68
:102940009701A3014C195D09B4016A197B09CD01F6
:10295000099555CF26960FB6F894DEBF0FBECDBFB2
:10296000DF91CF911F910F91FF90EF90DF90CF906B
:10297000BF90AF909F908F907F906F905F904F909F
:102980003F902F9008956F927F928F929F92AF9277
:10299000BF92CF92DF92EF92FF920F931F93CF934C
:1029A000DF935C01EB016A01490138018701DC0119
:1029B000ED91FC916217730719F5641675062CF0FA
:1029C000962D872D3A01C92ED82E96012619370942
:1029D0002F5F3F4F048CF58DE02DA301BE01C50193
:1029E0000995DF91CF911F910F91FF90EF90DF90AC
:1029F000CF90BF90AF909F908F907F906F900895F1
:102A00004615570591F42617370724F0892D4B01F9
:102A1000C22FD82F9E01281939092F5F3F4F068CEE
:102A2000F78DE02DA601B401DACF0284F385E02D05
:102A30000995D501ED91FC910488F589E02D83017C
:102A40009401A601BE01C5010995D501ED91FC9146
:102A50000688F789E02DC501DF91CF911F910F9175
:102A6000FF90EF90DF90CF90BF90AF909F908F90AE
:102A70007F906F900994EF92FF920F931F93DC0168
:102A80001A960D911C911B9718962D913C911997B0
:102A9000ED91FC9100A0F1A1E02D7B0150E040E020
:102AA00070E060E009951F910F91FF90EF900895FD
:102AB0004F925F926F927F928F929F92AF92BF924E
:102AC000CF92DF92EF92FF920F931F93CF93DF93FA
:102AD0006C012B015A0139014801DC01ED91FC9197
:102AE0000284F385E02D0995E201640C751CD60182
:102AF000ED91FC91C615D7055CF40088F189E02DB5
:102B000087019401A501BE01C60109952196EFCF69
:102B10000688F789E02DC601DF91CF911F910F91B3
:102B2000FF90EF90DF90CF90BF90AF909F908F90ED
:102B30007F906F905F904F9009948F929F92AF9289
:102B4000BF92CF92DF92EF92FF920F931F93CF939A
:102B5000DF93EC015B014A016901E881F98102849C
:102B6000F385E02D099595012C0D3D1D215031096E
:102B7000E881F9810488F589E02D78018401A401B8
:102B8000B501CE010995E881F9810688F789E02D24
:102B9000CE01DF91CF911F910F91FF90EF90DF90C9
:102BA000CF90BF90AF909F908F9009948F929F92FB
:102BB000AF92BF92CF92DF92EF92FF920F931F934B
:102BC000CF93DF93EC015B014A0169017801E88151
:102BD000F9810284F385E02D0995C80CD91C860182
:102BE00001501109E881F9810488F589E02D9501EA
:102BF000A401B501CE010995E881F9810688F7891C
:102C0000E02DCE01DF91CF911F910F91FF90EF90BA
:102C1000DF90CF90BF90AF909F908F9009940895D0
:102C2000EF92FF920F931F93DC01ED91FC9100A0B6
:102C3000F1A1E02D09951F910F91FF90EF9008955C
:102C40000F931F93DC01ED91FC91068CF78DE02D25
:102C500009951F910F9108950F931F93DC01ED913A
:102C6000FC91048CF58DE02D09951F910F9108952D
:102C7000DC01ED91FC910084F185E02D09942F9207
:102C80003F924F925F926F927F928F929F92AF92FC
:102C9000BF92CF92DF92EF92FF920F931F93CF9349
:102CA000DF9300D000D000D0CDB7DEB73C016A0181
:102CB0003E832D83FC82EB825801A41AB50AB7FE2D
:102CC00003C0B194A194B1088D809E80861A970AA2
:102CD00097FE03C09194819491088A149B045CF040
:102CE000902F812F0D811E819D838E839C2D8D2D94
:102CF0006B01692F782F0C151D055CF09D818E816D
:102D00007E836D83692F782F902F812F8601C92EA6
:102D1000D82E1601201A310A2B012D813E81421A2C
:102D2000530A57FE03C0519441945108710137FE74
:102D300003C03FEFE31AF30AF594E7948D819E8177
:102D4000861797075CF5A1E0B0E0BA83A983C016A7
:102D5000D1064CF1D301ED91FC910484F585E02D71
:102D60002B813C81A8016D817E818A149B041CF01B
:102D70004D815E81B801C3010995E418F508F7FE9D
:102D80000AC02D813E8189819A81280F391F3E8397
:102D90002D83E20CF31C0F5F1F4FD9CF2FEF3FEFB6
:102DA0003A832983D4CF26960FB6F894DEBF0FBEA0
:102DB000CDBFDF91CF911F910F91FF90EF90DF90EA
:102DC000CF90BF90AF909F908F907F906F905F90CB
:102DD0004F903F902F900895089590E080E00895DF
:102DE000CF93DF93FC012781222359F1EC0161E0AD
:102DF00080850E942F0761E089850E942F078F81BF
:102E0000843011F08830B1F461E08A850E942F0788
:102E100061E08B850E942F078FA58F3F91F061E0C5
:102E20000E942F076EA581E068278FA5DF91CF91C3
:102E30000C940107833011F0863071F761E08A85C8
:102E4000E9CFDF91CF910895CF93DF93FC012781E4
:102E50002223A9F0EC010190F081E02D0284F3859A
:102E6000E02D60E009958FA58F3F49F061E00E9459
:102E70002F076EA58FA5DF91CF910C940107DF91ED
:102E8000CF910895DC01ED91FC9122853385477047
:102E90005527662777274150510961097109473045
:102EA00051056105710560F4FA01E75AF84E0C947A
:102EB0002D3863176517671769176B176D176F172D
:102EC00061E0F901099465E0FCCF64E0FACF66E0C7
:102ED000F8CF62E0F6CF6AE0F4CF68E0F2CF69E0C5
:102EE000F0CFCF93DF93EC01CB01BA0126E030E0C5
:102EF00040E050E00E9493376230710581059105F2
:102F000089F16CF46115710581059105D1F061308D
:102F1000710581059105F9F0DF91CF910895643035
:102F200071058105910561F124F165307105810517
:102F3000910591F7E881F9810284F385E02D66E03F
:102F400006C0E881F9810284F385E02D64E0CE01BA
:102F5000DF91CF910994E881F9810284F385E02D16
:102F600065E0F5CFE881F9810284F385E02D61E029
:102F7000EECFE881F9810284F385E02D63E0E7CFAD
:102F8000E881F9810284F385E02D62E0E0CFDC0185
:102F9000ED91FC910284F385E02D4370552766275F
:102FA0007727423051056105710571F043305105B5
:102FB0006105710559F0413051056105710511F048
:102FC00065E0099466E0FDCF6AE0FBCF69E0F9CFE8
:102FD000CF93DF93EC01CB01BA0123E030E040E076
:102FE00050E00E949337613071058105910599F099
:102FF0006230710581059105A9F0672B682B692B5B
:10300000C1F4E881F9810284F385E02D64E0CE010A
:10301000DF91CF910994E881F9810284F385E02D55
:1030200061E0F5CFE881F9810284F385E02D62E06B
:10303000EECFDF91CF910895DC01ED91FC910284F8
:10304000F385E02D437055276627772742305105D9
:103050006105710571F0433051056105710559F045
:10306000413051056105710511F062E0099463E09A
:10307000FDCF61E0FBCF60E0F9CFCF93DF93EC01B0
:10308000E881F9810284F385E02D8A8160E0811175
:1030900062E0CE010995E881F9810284F385E02D93
:1030A0008A8161E0811163E0CE0109958CA59DA51F
:1030B0008230910538F0880F991F880F991F059766
:1030C0000197F1F7E881F9810284F385E02D8A8187
:1030D00060E0811162E0CE01DF91CF910994CF933E
:1030E000DF93EC0120E030E0A901688D798D8A8DB5
:1030F0009B8D0E94483918162CF4E8A9F9A9DF9194
:10310000CF910994EAA9FBA9FACFCF92DF92EF926F
:10311000FF920F931F93CF93DF93DC011796CC910F
:10312000C43039F0C83059F1C33019F0C63049F114
:10313000C2E08C01085F1F4FF12CE12CC62ED12C70
:10314000D1E0F8016481C6010E2C02C095958795E7
:103150000A94E2F780FD6D270F5F1F4F80810E9468
:103160000107BFEFEB1AFB0AEC1658F3DF91CF9182
:103170001F910F91FF90EF90DF90CF900895C4E0E2
:10318000D8CFC3E0D6CFDC011796EC911797E93082
:1031900008F038C0F0E0E153F74E0C942D38D81801
:1031A000DE18E418EA18F0180219F6180219FC18CB
:1031B000ED91FC910684F785E02D0994ED91FC9149
:1031C0000088F189E02DF9CFED91FC910288F38917
:1031D000E02DF3CFED91FC910488F589E02DEDCF42
:1031E000ED91FC910688F789E02DE7CFED91FC91F8
:1031F000008CF18DE02DE1CFED91FC91028CF38DEF
:10320000E02DDBCF08954F925F926F927F928F9265
:103210009F92AF92BF92CF92DF92EF92FF920F9365
:103220001F93CF93DF93EC01CC88DD88EE88FF8875
:1032300088899989AA89BB89C81AD90AEA0AFB0A26
:10324000688D798D8A8D9B8D9B01AC010E94D5364E
:103250004B015C0168A179A18AA19BA19B01AC01F2
:103260000E9434389B01AC01C501B4010E94A03812
:103270000E941239C114D104E104F10409F0B6C06E
:1032800062307105810591050CF0D0C01B821C8253
:103290001D821E82188E198E1A8E1B8E1CAA1DAAC4
:1032A0001EAA1FAAC12CD12C7601C701B601DF913D
:1032B000CF911F910F91FF90EF90DF90CF90BF9033
:1032C000AF909F908F907F906F905F904F900895F8
:1032D0001016110612061306B4F46C157D058E0542
:1032E0009F051CF42A812111A1C09B01AC018827F4
:1032F0009927DC01821B930BA40BB50B8CAB9DAB08
:10330000AEABBFAB93C0011511052105310509F422
:103310008DC06C157D058E059F050CF087C08A81D8
:10332000882309F483C030952095109501951F4F8F
:103330002F4F3F4F0CAB1DAB2EAB3FAB77C00115F2
:1033400011052105310509F471C08824992454011F
:103350008C189D08AE08BF08681579058A059B057D
:103360000CF064C08A81811161C0DDCFCCACDDACD2
:10337000EEACFFACA7019601C701B6010E9434383C
:103380002B013C01C501B4010E94763620E030E0FB
:1033900040E850E40E94D53620E030E040E85FE3AA
:1033A0000E9434389B01AC01C301B2010E94A038D5
:1033B0009B01AC01C701B6010E9433383B016C018F
:1033C000FE01E05CFF4FE080F180028113819701F4
:1033D000A8010E944839181614F473018601C70128
:1033E000D8018CAF9DAFAEAFBFAF3AC00CA91DA93D
:1033F0002EA93FA91C141D041E041F040CF468CF41
:1034000010161106120613060CF099CF002711278B
:1034100098010C191D092E093F09601771078207D1
:1034200093070CF062CF2A8121115FCF8CA89DA851
:10343000AEA8BFA881149104A104B10409F096CFED
:1034400088AD99ADAAADBBAD8CAF9DAFAEAFBFAFF0
:1034500081E01C141D041E041F040CF080E08A830C
:103460003FEF831A930AA30AB30A8CAA9DAAAEAAB5
:10347000BFAA8CAC9DACAEACBFACC501B4010E9480
:1034800019396B017C01CB82DC82ED82FE82A501C1
:10349000940160E074E284E799E40E94A038688FA8
:1034A000798F8A8F9B8F2A812111FFCE9058688F48
:1034B000798F8A8F9B8FF9CECF92DF92EF92FF9216
:1034C000CF93DF93C3E1D7E0688D798D8A8D9B8D93
:1034D0009B01AC010E94D5366B017C0168A179A1EA
:1034E0008AA19BA19B01AC010E9434389B01AC01D5
:1034F000C701B6010E94A0380E9412396CAB7DABA7
:103500008EAB9FABCE01DF91CF91FF90EF90DF901C
:10351000CF900C94031908954F925F926F927F920F
:10352000AF92BF92DF92EF92FF920F931F93CF93D0
:10353000DF9360E08091CC060E942F0760E08091CD
:10354000CD060E942F0761E08091CF060E942F07D1
:1035500061E08091CE060E942F078091DA06E0910B
:10356000D206F091D3069081892B80838091DB066F
:10357000E091D606F091D7069081809589238083CB
:103580008091CC060E946007EC018091CC060E94DD
:1035900060079E01281B390B2C5F3F4FD12C29302F
:1035A000310530F48C0F9D1F95958795DD24D394BC
:1035B0000FEF13E0081B190B60E08091CF060E940B
:1035C0002F0760E08091CE060E942F0761E0809176
:1035D000CC060E942F0761E08091CD060E942F0744
:1035E0008091DD06E091D806F091D9069081809512
:1035F000892380838091DC06E091D406F091D50682
:103600009081892B80838091CE060E946007EC0117
:103610008091CE060E9460077C01CE018E199F0921
:103620000496099708F0D2C0EC0EFD1EF594E794BD
:1036300061E08091CF060E942F0760E08091CC0668
:103640000E942F078091DA06E091D206F091D3060E
:1036500090818095892380838091DD06E091D80652
:10366000F091D9069081892B80838091CE060E94AB
:103670006007EC018091CC060E946007A090D00604
:10368000B090D106A114B10409F4A2C0BC01990FF5
:10369000880B990B0E9476362B013C01BE01DD0F91
:1036A000880B990B0E9476369B01AC01C301B201D5
:1036B0000E94A03820E030E040E85FE30E94333809
:1036C0002B013C01B801012E000C880B990B0E94C4
:1036D0007636A30192010E94D5362B013C01B5013B
:1036E00090E080E00E947436A30192010E94D536DA
:1036F00020E030E040E85AE30E94D5360E941239BB
:10370000EB01D11002C0D0E0C0E061E080E10E9496
:103710002F0761E08FE00E942F0761E080E10E94A7
:10372000010761E08FE00E940107BE01695C710939
:10373000C1E06F3183E0780708F0C0E06F3173407B
:10374000B0F5A091E606B091E706012E000C220B21
:10375000330BA9019801205B3109410951090E94ED
:10376000BD3729EE32E040E050E00E9493373093BD
:10377000AA032093A9032FEF33E02E193F09032E4C
:10378000000C440B550B215B310941095109A091F3
:10379000E806B091E9060E94BD372AEF32E040E02A
:1037A00050E00E9493373093AC032093AB038C2FEF
:1037B000DF91CF911F910F91FF90EF90DF90BF901D
:1037C000AF907F906F905F904F900895D12C30CF45
:1037D000C81BD90BC150DC4F94CFEF92FF920F93CF
:1037E0001F93DC011A960D911C911B9718962D9131
:1037F0003C911997ED91FC9100A0F1A1E02D7B0186
:1038000050E040E070E060E009951F910F91FF905B
:10381000EF900895FF920F931F93CF93DF93F82EAD
:10382000062FC7E0D0E010E061E0802F0E94010782
:103830008F2D0E94D8060C2E01C0880F0A94EAF73B
:10384000182B60E0802F0E940107219768F7812FD5
:10385000DF91CF911F910F91FF900895EF92FF920A
:103860000F931F93CF93DF9380915A070E94D8063E
:10387000892B31F060E070E0CB010E949A07F4CF11
:10388000DFB7F8946091590780915A070E940A1C8B
:10389000082F6091590780915A070E940A1CC82F6F
:1038A0006091590780915A070E940A1C182FF12C29
:1038B000E12C80915B078E151F0479F070F061E0B8
:1038C000809159070E94010760E0809159070E948A
:1038D00001078FEFE81AF80AECCFDFBF6C2F70E01A
:1038E00090E080E0982F872F762F6627802B612B22
:1038F000000F000B10E030E020E0302F22271127CE
:103900000027602B712B822B932BDF91CF911F917E
:103910000F91FF90EF900895CF92DF92EF92FF9278
:10392000CF93DF93D82FC0E0C12CD12C7601CD17D7
:1039300069F00E942E1CC60ED71EE81EF91E60E01C
:1039400070E0CB010E949A07CF5FF1CF2C2F30E0BF
:1039500050E040E0C701B6010E949337CA01B901A7
:10396000DF91CF91FF90EF90DF90CF9008954F922D
:103970005F926F927F928F929F92AF92BF92CF92FF
:10398000DF92EF92FF926B017C0120E030E0A90111
:103990000E946F3687FF04C0F7FAF094F7F8F094AE
:1039A0008090330790903407A0903507B090360789
:1039B000A7019601C501B4010E946F36882309F45E
:1039C00058C06091470770914807809149079091CE
:1039D0004A070E9476362B013C01A7019601C501DA
:1039E000B4010E94A0389B01AC01C301B2010E9446
:1039F000D5360E9412396093470770934807809329
:103A0000490790934A07A701960160E070E080E0C3
:103A100090E40E94A0380E94533926E53EE04DE232
:103A20005FE30E94D53620E034E244E759E40E9487
:103A3000D53660934B0770934C0780934D07909356
:103A40004E07C0923307D0923407E0923507F092C8
:103A5000360783E197E0FF90EF90DF90CF90BF9023
:103A6000AF909F908F907F906F905F904F900C944D
:103A70000319FF90EF90DF90CF90BF90AF909F9091
:103A80008F907F906F905F904F9008950E94D23AF0
:103A9000FB0101900020E9F73197AF01461B570B5E
:103AA000DC01ED91FC910280F381E02D09948F926D
:103AB0009F92AF92BF92EF92FF920F931F93CF937B
:103AC000DF93CDB7DEB7A1970FB6F894DEBF0FBE78
:103AD000CDBF7C01FA01CB0119A2223008F42AE003
:103AE0008E010F5D1F4F822E912CB12CA12CBF0196
:103AF000A50194010E94FC37F901CA016A300CF556
:103B0000605DD8016E938D01232B242B252B79F733
:103B100090E080E0109721F0BD01C7010E94481D90
:103B2000A1960FB6F894DEBF0FBECDBFDF91CF9147
:103B30001F910F91FF90EF90BF90AF909F908F904B
:103B40000895695CDECFCF93DF93AC01990F660BCC
:103B5000770B2AE087EB93E00E94571DEC0161E7A9
:103B600071E087EB93E00E94481D8C0F9D1FDF9151
:103B7000CF910895CF93DF93BC0187EB93E00E9430
:103B8000481DEC0161E771E087EB93E00E94481D5E
:103B90008C0F9D1FDF91CF9108952F923F924F92EE
:103BA0005F926F927F928F929F92AF92BF92CF92CD
:103BB000DF92EF92FF921F93CF93DF93EC016A01A4
:103BC0007B01722EAB019601CB01B6010E949339A5
:103BD00064E771E0811126C046015701E894B7F807
:103BE0002FEF3FEF4FE75FE7C501B4010E94933924
:103BF00081110CC02FEF3FEF4FE75FE7C501B40124
:103C00000E946F3668E771E0181664F02FEF3FEFFF
:103C10004FE75FE4C701B6010E9448391816B4F4B3
:103C20006CE771E0CE01DF91CF911F91FF90EF9093
:103C3000DF90CF90BF90AF909F908F907F906F90CC
:103C40005F904F903F902F900C94481D2FEF3FEFC7
:103C50004FE75FECC701B6010E946F3687FDE0CFEA
:103C600020E030E0A901C701B6010E946F36312C77
:103C7000212C87FF09C06DE2CE010E94CD071C01F7
:103C8000F7FAF094F7F8F09410E060E070E080E06C
:103C90009FE3711641F020E030E040E251E40E94E1
:103CA000A0381F5FF6CFA70196010E9434382B0180
:103CB0003C010E9419394B015C012AE0BC01A401BE
:103CC000CE010E94571D7C01E20CF31C1123C1F1AF
:103CD000C501B4010E9474369B01AC01C301B2015D
:103CE0000E9433384B015C016EE2CE010E94CD0789
:103CF000E80EF91E115020F120E030E040E251E4DE
:103D0000C501B4010E94D5362B013C010E9419392E
:103D10004B01B12CA12C2AE0B501A401CE010E94D7
:103D2000571DE80EF91EC501B4010E9474369B01AF
:103D3000AC01C301B2010E9433384B015C01DACF00
:103D4000C701DF91CF911F91FF90EF90DF90CF904F
:103D5000BF90AF909F908F907F906F905F904F90AB
:103D60003F902F9008956115710511F00C94481D36
:103D700090E080E008952F923F924F925F926F9271
:103D80007F928F929F92AF92BF92CF92DF92EF92EB
:103D9000FF920F931F93CF93DF93CDB7DEB72E978C
:103DA0000FB6F894DEBF0FBECDBF9E878D87DC01B6
:103DB0005096BC91B987FC01F189FA87DC011C9609
:103DC0000D90BC91A02DBA83A983FC0186849784B1
:103DD000662331F0982D892D89849A8499878A8762
:103DE000AD85BE851696CD90DC9017971896AD9050
:103DF000BC90C601CA14DB0408F0C50196958795EE
:103E000096958795ED85FE8540805180282F30E07E
:103E10003C832B8364807580828193819E838D8314
:103E2000CA14DB042CF4C601D7FE05C0019603C0FA
:103E3000C501B7FCFBCF959587952B803C808215FB
:103E400093050CF41C01D201ED91FC910284F385E1
:103E5000E02DC2010995F101EE0FFF1FF887EF83F6
:103E60002D813E81220D331D3C872B8796012E1B11
:103E70003F0BD201ED91FC910684F785E02D740192
:103E80008501A3016B857C85C2010995EF81F885C9
:103E9000AE1ABF0AF1E0AF1AB108620C731C6D8153
:103EA0007E816C0D7D1D6219730961507109640179
:103EB000750101E09101A301C2010E94FA1202E022
:103EC0009101A3016B857C85C2010E94FA12D20187
:103ED000ED91FC910688F789E02DC2010995ED85E9
:103EE000FE85C080D180A084B184E680F7806480A4
:103EF0007580228133813E832D83EA14FB042CF4E8
:103F0000C701F7FE05C0019603C0C501B7FCFBCF92
:103F1000959587958B809C80881599050CF44C01AC
:103F2000D601ED91FC910284F385E02DC60109953F
:103F30001401220C331CF701E219F309FC83EB8313
:103F40004D805E80480C591CD601ED91FC91028891
:103F5000F389E02D09811A812B813C81A301B201F3
:103F6000C6010995F501E60DF71DF887EF83AF014E
:103F700041505109D601ED91FC910288F389E02D61
:103F800009811A812B813C81B201C6010995F50195
:103F9000E219F3091F01680C791CD601ED91FC911F
:103FA0000088F189E02D09811A819101A3016D81B9
:103FB0007E81C6010995AD80BE80AE0CBF1CB501E7
:103FC00061507109D601ED91FC910088F189E02DD5
:103FD00009811A819101A301C6010995E980FA803E
:103FE00001E09401A301B201C6010E94C813A81800
:103FF000B908B1E0AB1AB108E980FA8002E0940197
:10400000A301B501C6010E94C8136F8078846818A7
:104010007908E1E06E1A7108E980FA8004E0940101
:10402000A301B501C6010E94C813E980FA8008E027
:104030009401A301B201C6010E94C813D601ED91FB
:10404000FC910688F789E02DC6010995AD85BE85EE
:10405000ED91FC91119718968D919C9119979695D9
:10406000879514962D913C911597820F931F1B965F
:104070002C91B4E02B9F8019910911246D857E85C8
:104080006E5E7F4FDB010D900020E9F7AD014150DE
:104090005109461B570BAD85BE8516962D913C9157
:1040A0001797369527951296ED90FC9013972E0D45
:1040B0003F1D1A96FC9013E0F19ED0011124A49F9D
:1040C0007001A59FF00CB49FF00C11242E193F092C
:1040D0003587248797878687AD85BE85ED91FC91CE
:1040E000B985B28B1A85138BB08B118BAD85BE85CC
:1040F000ED91FC9111971B968C911B971A969C91B0
:10410000911101C091E0948B811101C081E0858BF8
:10411000ED85FE85808191812E960FB6F894DEBFE5
:104120000FBECDBFDF91CF911F910F91FF90EF9008
:10413000DF90CF90BF90AF909F908F907F906F90C7
:104140005F904F903F902F900C94B31ECF930E949E
:104150008C1AC82F80E0CC2361F04091AB035091C2
:10416000AC036091A9037091AA0380E994E00E94D6
:10417000720F9091AC049093AD048093AC0480E0F6
:10418000CC2361F04091AB035091AC036091A90343
:104190007091AA0382E794E00E94720F90918E04BE
:1041A00090938F0480938E04CC2369F04091AB03ED
:1041B0005091AC036091A9037091AA0384E594E047
:1041C0000E94720FC82F8091700480937104C09375
:1041D000700480E994E00E94620F882329F060E077
:1041E00080E994E00E94BB1E82E794E00E94620F87
:1041F000882329F060E082E794E00E94BB1E84E5FA
:1042000094E00E94620F882329F060E084E594E046
:104210000E94BB1E80E994E00E946A0F8823F1F19E
:1042200061E080E994E00E94BB1E8FEF9FEF9093C6
:10423000EF068093EE061092F1061092F00683E0EE
:104240008093F2068093F30680E891E09F938F932A
:104250008BE891E09F938F938EE993E09F938F93E8
:104260000E94E63A1092EB061092EA0684E190E092
:104270009093ED068093EC066EE973E08EED96E088
:104280000E94B31E8091000191E089278093000174
:104290000F900F900F900F900F900F9082E794E087
:1042A0000E946A0F8823F1F161E082E794E00E94A6
:1042B000BB1E8FEF9FEF9093EF068093EE06109258
:1042C000F1061092F00683E08093F2068093F306E5
:1042D00080E991E09F938F938BE891E09F938F9378
:1042E0008EE993E09F938F930E94E63A8CE390E0EF
:1042F0009093EB068093EA069093ED068093EC068C
:104300006EE973E08EED96E00E94B31E809101018C
:1043100091E08927809301010F900F900F900F90EB
:104320000F900F9084E594E00E946A0F8823F1F1CA
:1043300061E084E594E00E94BB1E8FEF9FEF9093B5
:10434000EF068093EE061092F1061092F00683E0DD
:104350008093F2068093F3068EE991E09F938F930A
:104360008BE891E09F938F938EE993E09F938F93D7
:104370000E94E63A8CE390E09093EB068093EA0685
:104380009093ED068093EC066EE973E08EED96E077
:104390000E94B31E8091010191E089278093010161
:1043A0000F900F900F900F900F900F908091010140
:1043B000CF9108950C94493A0C94493A1F920F9268
:1043C0000FB60F9211242F933F938F939F93AF9328
:1043D000BF938091AE039091AF03A091B003B091D1
:1043E000B1033091AD0323E0230F2D3758F501962B
:1043F000A11DB11D2093AD038093AE039093AF0335
:10440000A093B003B093B1038091B2039091B30332
:10441000A091B403B091B5030196A11DB11D809385
:10442000B2039093B303A093B403B093B503BF91C9
:10443000AF919F918F913F912F910F900FBE0F9051
:104440001F90189526E8230F0296A11DB11DD2CF0B
:104450001F920F920FB60F9211242F933F934F93F9
:104460005F936F937F938F939F93AF93BF93EF93DC
:10447000FF9387EB93E00E945208FF91EF91BF9169
:10448000AF919F918F917F916F915F914F913F91EC
:104490002F910F900FBE0F901F9018951F920F92A3
:1044A0000FB60F9211242F938F939F93EF93FF9347
:1044B000E091C703F091C8038081E091CD03F091B2
:1044C000CE0382FD1BC090818091D0038F5F8F73DC
:1044D0002091D103821741F0E091D003F0E0E9543C
:1044E000FC4F958F8093D003FF91EF919F918F9117
:1044F0002F910F900FBE0F901F9018958081F4CFD1
:10450000CF92DF92EF92FF921092BA031092B9030A
:1045100088EE93E0A0E0B0E08093BB039093BC03EF
:10452000A093BD03B093BE038FE091E09093B803D6
:104530008093B70385EC90E09093C4038093C3030A
:1045400084EC90E09093C6038093C50380EC90E0E8
:104550009093C8038093C70381EC90E09093CA03C3
:104560008093C90382EC90E09093CC038093CB03BB
:1045700086EC90E09093CE038093CD031092D0030D
:104580001092D1031092D2031092D3038DE691E0E2
:10459000909358078093570710925C0710925D071D
:1045A00010925E0710925F07C12CD12C40E8E42ED8
:1045B0004FE3F42EC0926007D0926107E092620749
:1045C000F09263078DE491E09093140780931307B2
:1045D00081E080931A07109223071092240710920B
:1045E000250710922607109227071092280710928D
:1045F000290710922A0710922B0710922C0710926D
:104600002D0710922E0710922F071092300710924C
:10461000310710923207109233071092340710922C
:10462000350710923607C0923707D0923807E092CC
:104630003907F0923A071092160710921707109256
:1046400018071092190781E090E09093400780933B
:104650003F078FEF8093420710923B0710923C0771
:1046600010923D0710923E0784E080931B0796E06E
:1046700090931C0780931D0785E080931E0710927E
:10468000410710924707109248071092490710926D
:104690004A0710924B0710924C0710924D07109248
:1046A0004E0710924F071092500710925107109228
:1046B0005207C0925307D0925407E0925507F092E8
:1046C00056071092150710921F071092200710929C
:1046D00021071092220783E197E00E94F016C7019C
:1046E000B6010E94B71CA701960160912F07709137
:1046F000300780913107909132070E946F368823EE
:1047000019F1C0922F07D0923007E0923107F09252
:10471000320780E094E2A4E7B9E4809353079093D2
:104720005407A0935507B09356078091470790917F
:104730004807A0914907B0914A07181619061A06AA
:104740001B0614F40E945C1A1092E1061092E00617
:1047500020EF30E03093E3062093E20680E491E01E
:104760009093E5068093E4063093E7062093E606EF
:104770009093E9068093E8061092F4061092EB06F7
:104780001092EA061092ED061092EC0681E08093FA
:10479000F3068093F2062FEF3FEF3093F10620935C
:1047A000F0063093EF062093EE068093F506109204
:1047B000F6061092F8061092F70681E291E09093C7
:1047C000DF068093DE0680E18093CC068FE0809345
:1047D000CE0686E08093CD0687E08093CF068CE2FC
:1047E00091E09093D1068093D006EBEFFCE0E4914A
:1047F000F0E0EE0FFF1FE651F34F859194919093F7
:10480000D3068093D206E4E0FDE0E491F0E0EE0F01
:10481000FF1FE651F34F859194919093D5068093B5
:10482000D406E3E0FDE0E491F0E0EE0FFF1FE65177
:10483000F34F859194919093D7068093D606EAEF33
:10484000FCE0E491F0E0EE0FFF1FE651F34F85919D
:1048500094919093D9068093D806EDEDFCE0E49115
:10486000E093DA06E6EEFCE0E491E093DC06E5EEA8
:10487000FCE0E491E093DB06ECEDFCE0E491E093F6
:10488000DD068AE090E09093CB068093CA061092F2
:10489000AD061092AC0610928F0610928E06109202
:1048A00071061092700610925306109252061092E2
:1048B00035061092340610921706109216061092C2
:1048C000F9051092F8051092DB051092DA051092A6
:1048D000BD051092BC0510929F0510929E05109286
:1048E0008105109280051092630510926205109266
:1048F0004505109244051092270510922605109246
:104900000905109208051092EB041092EA04109227
:10491000CD041092CC041092AF041092AE04109209
:1049200091041092900410927304109272041092E9
:10493000550410925404FF90EF90DF90CF900895AB
:10494000CF93DF9300D01F92CDB7DEB7789484B5B4
:10495000826084BD84B5816084BD85B5826085BD7B
:1049600085B5816085BD80916E00816080936E0009
:1049700010928100809181008260809381008091FB
:1049800081008160809381008091800081608093AC
:1049900080008091B10084608093B1008091B0006C
:1049A00081608093B00080917A00846080937A0067
:1049B00080917A00826080937A0080917A00816091
:1049C00080937A0080917A00806880937A001092B8
:1049D000C100E091C703F091C80382E08083E091B9
:1049E000C303F091C4031082E091C503F091C603A4
:1049F00080E180831092CF03E091CB03F091CC0350
:104A000086E08083E091C903F091CA0380818061D0
:104A10008083E091C903F091CA038081886080831C
:104A2000E091C903F091CA03808180688083E0919E
:104A3000C903F091CA0380818F7D80838DEA91E064
:104A40000E94BA1D20E030E046E954E460912F074F
:104A50007091300780913107909132070E946F3634
:104A6000882339F180E090E0A6E9B4E480932F0731
:104A700090933007A0933107B093320785E595E511
:104A8000A0E5B4E48093530790935407A09355078F
:104A9000B09356078091470790914807A091490726
:104AA000B0914A07181619061A061B0614F40E943C
:104AB0005C1A20E030E04AE754E460912B077091E3
:104AC0002C0780912D0790912E070E946F36882326
:104AD000E9F180902F0790903007A0903107B090B7
:104AE000320775016401F7FAF094F7F8F09420E0CA
:104AF00030E04AE754ECC501B4010E946F3687FDEF
:104B00000CC020E030E04AE754E4C501B4010E9443
:104B10006F3687FFBBC07501640120E030E0A9015A
:104B2000C701B6010E946F368111B6C010921607F8
:104B3000109217071092180710921907C0922B07AE
:104B4000D0922C07E0922D07F0922E0760E070E0E3
:104B500086E994E40E94B71C82EC91E00E94BA1DA1
:104B60006EED71E087EB93E00E94B31E84E190E06C
:104B70000E94A31D64EE71E087EB93E00E94B31ED8
:104B800085E190E00E94A31D85E18093590784E1AF
:104B900080935A0761E085E10E942F0760E08091D1
:104BA0005A070E942F0781E080935B0760E090E046
:104BB00080E00E94C4097C01883024E5920781F1DD
:104BC000803244E5940761F18938994809F469C154
:104BD00060E087E690E00E94C40947E4E42E43E8E1
:104BE000F42E87349744E1F08FEE90E00E94410A62
:104BF0007B0167327349A1F081EA90E00E94220AAA
:104C000033E6E32E39E1F32E613021E6720741F0FD
:104C10006F3F760709F062C096E2E92E95E1F92E22
:104C20000E9498091092FA061092F906F092FE0678
:104C3000E092FD0651E3E51650E8F50611F40C94F8
:104C4000CC3008F014C293E5E91690E2F90611F4AD
:104C50000C94323108F094C1B1E1EB16B5E1FB06DA
:104C600009F401C308F041C149E9E416F10411F463
:104C70000C94DD3008F029C1EA94EF2811F40C946B
:104C8000F6301092E3061092E206EAC2C12CD12C53
:104C90002AE7E22E24E4F22EA701960160E074E2F6
:104CA00084E799E40E94A0389F770E9419396093A5
:104CB0001607709317078093180790931907BB2462
:104CC000B39420E030E0A901C701B6010E94483941
:104CD00018160CF0B12CB092150730CF61155FEFAC
:104CE000750729F480E2E82E85E1F82E99CF21EAB4
:104CF000E22E25E0F22E6115704F09F491CF8FEB73
:104D000090E00E94410A7B0197E5E91693E8F906D5
:104D100009F486CFA1E8EA16A4E9FA0609F480CFDF
:104D2000B1E1EB16B5E1FB0609F47ACF20E2E21619
:104D300025E1F206B9F246E2E41645E1F40609F48B
:104D40006BCF51E8E51655E1F50609F469CFE1149A
:104D500084E1F80609F4AAC084ED90E00E94220ADA
:104D60007B0190E1E91693E5F90609F459CF87ED47
:104D700090E00E94220A7B016133704809F450CF11
:104D80008EEF90E00E94220A672F782F892F9927B3
:104D90007B016335704209F443CF84E090E00E94C8
:104DA000220A7B01833E31F4672B59F5E12C83EE17
:104DB000F82E36CF811125C06115704811F580910C
:104DC000080190910901A0910A0189839A83AB831C
:104DD000AE014F5F5F4F63E089EB90E00E942E09C8
:104DE00060E080ED90E00E94C409A9E9EA2EF12C70
:104DF000893909F415CF8039E1F4F0E9EF2EFE2C62
:104E00000FCF46E2E41645E1F40609F405CF50EF72
:104E1000E51659E8F50609F44EC082E5E81685E87E
:104E2000F80609F44DC091E1E9169CEAF90609F487
:104E3000F7CE83ED90E00E94220A672F782F892F0A
:104E400099277B016336714909F4EACE83ED90E03E
:104E50000E94220A872FE62EF72EB9E2EB16B2E364
:104E6000FB0609F4DDCE8359823008F4D9CE7839B7
:104E700009F4D6CE773709F4D3CE763109F4D0CE03
:104E800023EDE216F10409F4CBCE43EDE416F4066B
:104E900009F4C6CE60E090E080E00E94C4097C0185
:104EA000BFCE59E8E52E52E1F52EBACE94E1E92EB7
:104EB00098E6F92EB5CEB5E3EB2EB7E7FB2EB0CED4
:104EC000A9E8EA2EA7E7FA2EABCE94E5E91691E021
:104ED000F90609F4B9C1A5E0EA16A5E1FA0609F058
:104EE000D0CE84E090E10C94F830B1E8EB16B5E157
:104EF000FB0611F40C944231D0F440E2E41645E193
:104F0000F40611F40C94753056E2E51655E1F506F9
:104F100009F0B7CE83E194E09093FC068093FB0602
:104F20000CE010E075ECE72E77E0F72EB4C182E0DC
:104F3000E81686E1F80611F40C94253193E6E9169B
:104F400099E1F90609F09DCE81E08093830383E522
:104F50009AE09093FC068093FB0680EE91E090939C
:104F6000E5068093E40680E293E09093E306809365
:104F7000E20603E510E062E7E62E67E0F62E8BC15D
:104F8000A9E0EA16A8E6FA0611F40C94013148F5F6
:104F900025E3E21625E4F20611F40C94823098F42D
:104FA00059E2E51652E3F50609F06BCE83E096E090
:104FB0009093FC068093FB0600E410E052E3E52E9C
:104FC00057E0F52E68C180E1E81683E5F80611F494
:104FD0000C948D3098E0E91694E5F90609F481CF38
:104FE00050CEA9E8EA16A7E7FA0611F40C94BF30F0
:104FF000C0F424E1E21628E6F20611F40C94A6307F
:1050000043E8E41647E7F40609F03BCE82E091E17D
:105010009093FC068093FB0668E870E08EEE9AE0C1
:105020001DC153E9E51657E7F50611F40C947931E3
:1050300086E9E81687E7F80609F023CE83E094E0D6
:105040009093FC068093FB0680EE91E09093E5063A
:105050008093E40680E491E09093E3068093E20677
:105060000DE010E042EAE42E45E0F42E14C198E38E
:10507000E91693E9F90611F40C943A3108F063C08B
:10508000B5E2EB16B3E9FB0609F44AC0A0F540E926
:10509000E416F40611F40C94D930F8F487E5E81618
:1050A00083E8F80609F0EDCD83E094E19093FC06E7
:1050B0008093FB0680EE91E09093E5068093E406F2
:1050C00080E491E09093E3068093E20602E010E032
:1050D00088EDE82E86E0F82EDEC092E0E91693E92E
:1050E000F90611F40C943631A0E2EA16A3E9FA06A7
:1050F00009F4F7CEC6CDB9E2EB16B3E9FB0611F41D
:105100000C943E3188F447E2E41643E9F40611F4C6
:105110000C940C3158E2E51653E9F50609F0B1CDCF
:1051200080E091E10C94033181E3E81683E9F8060D
:1051300031F095E3E91693E9F90609F0A2CD80E094
:1051400090E10C940331A9E8EA16A4E9FA0608F004
:1051500044C0B7E8EB16B4E9FB0610F00C945F31DD
:1051600021E8E21624E9F20611F40C945C31B0F463
:1051700050E4E51A53E9F50A82E0E816F10408F074
:1051800080CD83E194E09093FC068093FB0605E6D6
:1051900010E07FE2E72E76E0F72E7DC096E8E91674
:1051A00094E9F90609F06DCD83E094E09093FC0654
:1051B0008093FB0680EE91E09093E5068093E406F1
:1051C00080E491E09093E3068093E2060BE310E025
:1051D0005FEAE52E55E0F52E5EC0A9E0EA16A5EBE4
:1051E000FA0611F40C947931C0F483E194E121E1E1
:1051F000E2162CEAF206E9F045E0E41645EBF40687
:1052000009F03FCD88E090E19093FC068093FB0687
:1052100060EB70E08AE998E021C055E0E51655ECB6
:10522000F50681F3E11483EEF80609F02ACD83E157
:105230009EE09093FC068093FB0603E010E0E4E917
:10524000EE2EE6E0FE2E27C082E090E19093FC0671
:105250008093FB066CE970E082E19CE00E94750A95
:10526000F12CE12C18C083E090E09093FC06809331
:10527000FB0680EE91E09093E5068093E40680E4DF
:1052800091E09093E3068093E20603E010E0F7EDEF
:10529000EF2EF7E0FF2E2091FC06822F82958F7073
:1052A00090E081709927909300078093FF06E114A6
:1052B000F10481F069E070E08EE695E00E94E2087A
:1052C000B801C7010E94E20866E070E088E695E058
:1052D0000E94E20860E08EED96E00E94EC0C60E037
:1052E0008EED96E00E94970A8091FD069091FE0651
:1052F0008838944909F016C11092820320EE3FEFDE
:1053000050E040E070E060E08EED96E00E94620CBC
:10531000F0900907E0900A078091FB0680FF03C028
:105320002EE2F22EE12C8091FD069091FE06823055
:10533000964119F49EE2F92EE12C10E000E030E0F5
:1053400020E050E040E070E060E08EED96E00E94EA
:10535000DA0A8091FB0680FD10C070E060E0809169
:105360000507909106070E945F0970E060E0809158
:105370000707909108070E945F094398429885B1FA
:105380008C7F9E2D9370892B85B99BB193702E2DA8
:105390002C7FE22EE92AEBB84198419A85B18C7FA7
:1053A0009F2D9370892B85B99BB193704F2D4C7FA6
:1053B000F42EF92AFBB84198419A429A84B18C7F25
:1053C00084B98AB183708AB92091FB063091FC06BA
:1053D0008091FD069091FE0626FD0EC0409A4098F1
:1053E0004098409843B149B1409A20FD05C08938A2
:1053F00052E1950709F091C78131954139F4409AFE
:1054000040984098409883B189B1409AB90164703E
:105410007727409A40984098409824FF9BC793B1C3
:1054200089B193708C7F982B409A409A409840980D
:10543000409843B189B143708C7F482B409A409A81
:1054400040984098409883B1E9B08370BE2DBC7FEE
:105450008B2B409A50E0672B09F467C7E82EF12C9C
:10546000FE2CEE24EE2488EFF82283E0440F551F33
:105470008A95E1F7407E5770E42AF52A969596952D
:105480009695E92A80918203882399F0C70175E0F7
:10549000969587957A95E1F780729927A701569599
:1054A00047954F715527842B952BB0ECEB22E82ABA
:1054B000F92A409A439A84B1836084B98AB18C6F87
:1054C0008AB920FD14C00091E8061091E906015048
:1054D00011092091E6063091E7062150310950E08C
:1054E00040E070E060E08EED96E00E94DA0A2FE185
:1054F000E2162FEFF206B1F486E08983AE014F5F2A
:105500005F4F61E08AE390E00E942E098091FB06E4
:105510009091FC068F7E9093FC068093FB0681E0C1
:105520008093820360E08EED96E00E94EC0C70E0C8
:1055300060E08EED96E00E94ED1B1EEDE12E16E080
:10554000F12E8FEF9FEF9093EF068093EE0610926F
:10555000F1061092F00602E0202E2092F206209230
:10556000F3061092EB061092EA0684E1682E712C85
:105570007092ED066092EC068AEE91E09F938F9315
:105580008FEF91E09F938F938EE993E09F938F939A
:105590000E94E63A6EE973E0C7010E94B31E709262
:1055A000AF066092AE0600E510E01093B1060093DE
:1055B000B0061093B3060093B2061093B50600939D
:1055C000B40690EE892E99249A949092B90680920E
:1055D000B8062FE1A22E28EFB22EB092BB06A09201
:1055E000BA06CC24CA9437E0D32ED092BD06C0921E
:1055F000BC0643E0342E3092B6063092B706F092E5
:10560000AD06E092AC0649E050E065E072E08EEB5A
:1056100096E00E94D73A1092C70648E750E05093B0
:105620009106409390061093930600939206109370
:105630009506009394061093970600939606909211
:105640009B0680929A06B0929D06A0929C06D092EC
:105650009F06C0929E063092980630929906F0926C
:105660008F06E0928E0649E050E060EC71E080EA3F
:1056700096E00E94D73A1092A9068CED90E09093A4
:105680007306809372061093750600937406109348
:105690007706009376061093790600937806909229
:1056A0007D0680927C06B0927F06A0927E06D09204
:1056B0008106C092800630927A0630927B06F09284
:1056C0007106E092700649E050E06DEF71E082E80B
:1056D00096E00E94D73A10928B067092550660921F
:1056E0005406A4EBB0E0B0935706A093560610936F
:1056F00059060093580610935B0600935A06909241
:105700005F0680925E06B0926106A0926006D0921B
:105710006306C092620630925C0630925D06F0929B
:105720005306E092520649E050E067E072E084E6FA
:1057300096E00E94D73A10926D0648E750E05093E9
:1057400037064093360684EB90E0909339068093B9
:10575000380610933B0600933A0610933D060093DB
:105760003C069092410680924006B0924306A09279
:105770004206D0924506C092440630923E063092D0
:105780003F06F0923506E092340649E050E069E0C9
:1057900072E086E496E00E94D73A10924F06ACED94
:1057A000B0E0B0931906A093180644EB50E0509374
:1057B0001B0640931A0610931D0600931C061093B7
:1057C0001F0600931E069092230680922206B09236
:1057D0002506A0922406D0922706C0922606309273
:1057E000200630922106F0921706E092160649E054
:1057F00050E06BE072E088E296E00E94D73A1092A7
:1058000031067092FB056092FA0558E1452E552449
:1058100053945092FD054092FC051093FF050093B0
:10582000FE051093010600930006909205068092F3
:105830000406B0920706A0920606D0920906C0920E
:1058400008063092020630920306F092F905E092C3
:10585000F80549E050E06DE072E08AE096E00E94D1
:10586000D73A1092130688E790E09093DD05809375
:10587000DC055092DF054092DE051093E1050093B0
:10588000E0051093E3050093E2059092E70580920E
:10589000E605B092E905A092E805D092EB05C0922A
:1058A000EA053092E4053092E505F092DB05E092DE
:1058B000DA0549E050E06FE072E08CEE95E00E947E
:1058C000D73A1092F505ACEDB0E0B093BF05A093C8
:1058D000BE055092C1054092C0051093C3050093C8
:1058E000C2051093C5050093C4059092C905809226
:1058F000C805B092CB05A092CA05D092CD05C09242
:10590000CC053092C6053092C705F092BD05E092F5
:10591000BC0549E050E061E172E08EEC95E00E9448
:10592000D73A1092D70548E750E05093A10540932D
:10593000A0058CE791E09093A3058093A2051093B6
:10594000A5050093A4051093A7050093A6059092C2
:10595000AB058092AA05B092AD05A092AC05D0929D
:10596000AF05C092AE053092A8053092A905F0921D
:105970009F05E0929E0549E050E063E172E080EB14
:1059800095E00E94D73A1092B90570920B0560928B
:105990000A0510930D0500930C0550920F054092D7
:1059A0000E05109311050093100590921505809235
:1059B0001405B0921705A0921605D0921905C09251
:1059C00018052092120520921305F0920905E09225
:1059D000080589E0E5E1F2E0AAE1B5E001900D9269
:1059E0008A95E1F7109223057092ED046092EC0421
:1059F000A4EBB0E0B093EF04A093EE045092F10456
:105A00004092F0041093F3040093F2049092F70490
:105A10008092F604B092F904A092F804D092FB04AC
:105A2000C092FA043092F4043092F504F092EB0440
:105A3000E092EA0449E050E065E272E08CEF94E025
:105A40000E94D73A109205057092CF046092CE045E
:105A50005092D1044092D0045092D3044092D20488
:105A60001093D5040093D4049092D9048092D80462
:105A7000B092DB04A092DA04D092DD04C092DC0480
:105A80003092D6043092D704F092CD04E092CC0448
:105A900089E0EBE2F2E0AEEDB4E001900D928A9580
:105AA000E1F71092E7047092B1046092B0044CE701
:105AB00051E05093B3044093B2045092B504409225
:105AC000B4041093B7040093B6049092BB04809280
:105AD000BA04B092BD04A092BC04D092BF04C0929C
