:100000000C9485060C94AD060C94AD060C94AD06CC
:100010000C94AD060C94AD060C94AD060C94AD0694
:100020000C94AD060C94AD060C94AD060C94AD0684
:100030000C94AD060C94AD060C94AD060C94AD0674
:100040000C94C0210C94AD060C9430220C940A221E
:100050000C94AD060C94AD060C94AD060C94AD0654
:100060000C94AD060C94AD0600000000003E5B4F02
:100070005B3E3E6B4F6B3E1C3E7C3E1C183C7E3C08
:10008000181C577D571C1C5E7F5E1C00183C180016
:10009000FFE7C3E7FF0018241800FFE7DBE7FF30A6
:1000A000483A060E2629792926407F050507407F14
:1000B00005253F5A3CE73C5A7F3E1C1C08081C1C87
:1000C0003E7F14227F22145F5F005F5F06097F017D
:1000D0007F006689956A606060606094A2FFA29468
:1000E00008047E040810207E201008082A1C080836
:1000F0001C2A08081E101010100C1E0C1E0C303884
:100100003E3830060E3E0E06000000000000005F84
:1001100000000007000700147F147F14242A7F2AA0
:100120001223130864623649562050000807030062
:10013000001C2241000041221C002A1C7F1C2A08AE
:10014000083E080800807030000808080808000011
:1001500060600020100804023E5149453E00427F85
:10016000400072494949462141494D331814127FD4
:100170001027454545393C4A494931412111090774
:100180003649494936464949291E000014000000F5
:1001900040340000000814224114141414140041C7
:1001A00022140802015909063E415D594E7C121184
:1001B000127C7F494949363E414141227F414141BC
:1001C0003E7F494949417F090909013E4141517337
:1001D0007F0808087F00417F41002040413F017FA8
:1001E000081422417F404040407F021C027F7F0470
:1001F00008107F3E4141413E7F090909063E4151B9
:10020000215E7F09192946264949493203017F01A8
:10021000033F4040403F1F2040201F3F4038403FA9
:10022000631408146303047804036159494D4300BF
:100230007F4141410204081020004141417F0402F6
:10024000010204404040404000030708002054548D
:1002500078407F284444383844444428384444286B
:100260007F385454541800087E090218A4A49C78BE
:100270007F0804047800447D40002040403D007F1A
:100280001028440000417F40007C047804787C08FA
:100290000404783844444438FC18242418182424CE
:1002A00018FC7C08040408485454542404043F44B3
:1002B000243C4040207C1C2040201C3C4030403CE2
:1002C00044281028444C9090907C4464544C440042
:1002D00008364100000077000000413608000201A6
:1002E0000204023C2623263C1EA1A161123A404092
:1002F000207A38545455592155557941225454780F
:1003000042215554784020545579400C1E527212A7
:100310003955555559395454545939555454580030
:1003200000457C410002457D420001457C407D1234
:1003300011127DF0282528F07C5455450020545496
:100340007C547C0A097F4932494949323A44444441
:100350003A324A4848303A4141217A3A424020787C
:10036000009DA0A07D3D4242423D3D4040403D3C7D
:1003700024FF2424487E4943662B2FFC2F2BFF09A2
:1003800029F620C0887E0903205454794100004496
:100390007D413048484A32384040227A007A0A0A81
:1003A000727D0D19317D2629292F282629292926F4
:1003B00030484D4020380808080808080808382F39
:1003C00010C8ACBA2F102834FA00007B00000814C3
:1003D0002A142222142A14085500550055AA55AA99
:1003E00055AAFF55FF55FF000000FF00101010FF39
:1003F00000141414FF001010FF00FF1010F010F094
:10040000141414FC001414F700FF0000FF00FF1484
:1004100014F404FC141417101F10101F101F1414D0
:10042000141F00101010F0000000001F101010101A
:100430001F10101010F010000000FF10101010100E
:1004400010101010FF10000000FF140000FF00FF4C
:1004500000001F10170000FC04F4141417101714E8
:1004600014F404F40000FF00F7141414141414140A
:10047000F700F7141414171410101F101F1414147D
:10048000F4141010F010F000001F101F0000001FE7
:1004900014000000FC140000F010F01010FF10FF1A
:1004A000141414FF141010101F00000000F010FFAF
:1004B000FFFFFFFFF0F0F0F0F0FFFFFF0000000093
:1004C00000FFFF0F0F0F0F0F3844443844FC4A4A17
:1004D0004A347E02020606027E027E0263554941CC
:1004E000633844443C04407E201E2006027E020203
:1004F00099A5E7A5991C2A492A1C4C7201724C3017
:100500004A4D4D303048784830BC625A463D3E49ED
:100510004949007E0101017E2A2A2A2A2A44445F91
:10052000444440514A444040444A51400000FF0185
:1005300003E080FF000008086B6B08361236243693
:10054000060F090F060000181800000010100030F8
:1005500040FF0101001F01011E00191D1712003C80
:100560003C3C3C000000000011007F962900010087
:100570007F9628003A0155C0021010C10141C50400
:1005800000228040360168B00100B102B011B40110
:1005900002B60302023BB701C63A0155F704A9515E
:1005A0002C82B701C6E808408A00002919A533C08B
:1005B000020D0DC1024300C20100C50400480048FD
:1005C000B40100B60302023BE00F0F211C0B0E0822
:1005D000499838091103141000E10F0F2F2B0C0E4E
:1005E00006477637071104231E00B00100B304024A
:1005F000000000B40100D003074218D10300071027
:10060000D2020102D3020102D4020102C005123B50
:10061000000211C103101088C50103C60102C80CF5
:10062000003236450616377577540C00CC0100F6BB
:1006300003010100CF03008130ED0464031281E85F
:1006400003851078CB05392C003402F70120EA022B
:100650000000B00100B102001BB40100C00121C1C3
:100660000111C5023F3CC701B5360148F201002621
:100670000101E00F0F26240B0E0954A8460C1709A0
:100680000F0700E10F00191B0410072A4739030662
:100690000630380F360100B80101C0010EB001006C
:1006A000C10410100202C006003500000102C5019D
:1006B00004D2020104CA0100EA0180B903FF835792
:1006C0007F967F96B60125C0065050013C1E08B4A7
:1006D000070240002A2A0D787F01F20B1616030844
:1006E00008080810041616FD03110235B2050C0C9B
:1006F000003333B70135BB012BC00104C20201FF37
:10070000C30111C40120C6010FD002A4A1E00ED084
:1007100000050E150D3743470915121619E10ED0C5
:1007200000050D0C062D44400E1C1816193A0155F3
:100730007F0A06000700B1020012B40102B60400ED
:10074000202700CA0101CB0103C001137F14C5019A
:10075000CCC60100C70104C80103CC0106CD011CB1
:10076000F9021515F3030A020AF603011000FA0054
:10077000FB00E2031E0254E001017F0AE001037F57
:100780000A01007F64E60303FFFFB0072400031F94
:1007900001DF00B40803A0002E30000F00B60702EE
:1007A0000D0010100008BA010FB8020701F0010097
:1007B0007F01280011007F642900BE0606F001F0C9
:1007C0000000D0010DB00103E2013FC00122E201AF
:1007D00000B00100C0010AB00100000000000000EC
:1007E00000000000000000000000FFFF0F000004F8
:1007F0000062080008080003000C01030B5A020302
:10080000060903031710040300230503001706035A
:1008100009630703090C08030C10090332221000B6
:100820001600110001011200000013000100000178
:100830003003010137020301000D80020061020153
:10084000B0C1FFFF320001000001020000010300FF
:100850003010090001000C000000900000800F0023
:100860000000100200001102EF001202000013024B
:100870008F01000500000105000002055F00010472
:10088000010004040000FFFF320007000001FFFF29
:100890003200000200000102000000000000000021
:1008A00000000000000000000100A4000100FFFFA4
:1008B0000A00600000270800080830001402310018
:1008C0001537320004063300160E340011223500AD
:1008D0000015360007853700071438000314390067
:1008E00020009000150010001004110037022900AC
:1008F00046002A004600070000001200890113008C
:100900000011FFFF96001200B90101000001020072
:10091000000203003010090001000A0000000D0071
:1009200000000E003000610001006A00000080003D
:1009300000008100000082005F009200000193002F
:100940000107FFFF500007000001E500F0780100FB
:100950000001020000020300301004000000050046
:10096000000008000702090000000A0000000C0057
:1009700000000D0000000F0000001000000011003A
:100980000700120000001300000007000100FFFF35
:10099000C8001000901611002702FFFF320012005D
:1009A0000D00FFFF32001300001229000A002B0087
:1009B0000D00FFFF32002000000021000000300089
:1009C0000000310004043200030035000504360045
:1009D00008083700070438000303390007073C0004
:1009E00004053D00080860000027610001006A005E
:1009F00000008000000081000000820000008300F1
:100A000000008400000085000000900010009200AB
:100A1000000007003301E500008000000100010034
:100A2000000102000007030030100400000008006D
:100A30000202090000000A0000000C0000000D0086
:100A400000000F000000100000001100070012005D
:100A5000000013000000FFFF32001000B01711006B
:100A60000700FFFF0A0012003A01FFFF0A0013000F
:100A7000001A29000C00FFFF0A00300000003100BE
:100A80000505320004003500060036000707370070
:100A9000050138000200390007073C0004073D004B
:100AA0000708600000A7610001006A000000210043
:100AB0000000200000008000000081000000820093
:100AC000000083000000840000008500000090000A
:100AD00010009200000093000300950010019700A1
:100AE00000009800000007007301FFFF32000100C2
:100AF0000001020000070300301008000203090093
:100B000000000A000800100000001100050012009B
:100B1000000013000000FFFF64001000B012FFFF90
:100B2000320011000700FFFF320012008C0013009A
:100B3000001729002000FFFF3200300000003100C4
:100B400006013200010135000601360003023700BC
:100B5000000038000707390004023C0006013D0090
:100B60000301600000A76100010090003000070051
:100B70003301FFFF3200150030009A001000110011
:100B80002000100028341200020013003810FFFF6C
:100B9000280012001200FFFF28001000203413006C
:100BA0004530FFFF460030000000310002043200F3
:100BB0000703330004033400040035000104360049
:100BC000070737000503380010063900100601003A
:100BD00000010200000303003010080008080A00AA
:100BE0000800600000276100010090003E019200B3
:100BF000000193000001A0000030A30010000700D6
:100C00000100070021000700230007003300070050
:100C1000330111001A001200213113006C0014007E
:100C2000494210000008FFFF0A0011001A01FFFFEF
:100C30000A0011001A03FFFF0A0011001A07FFFF44
:100C40000A0011001A0FFFFF0A0011003A0FFFFF00
:100C50001E000100280102000001030030100700FF
:100C60001210080003030B0000110C0000000F001D
:100C70000118150020005000010151000306520028
:100C800008045300000054000506550006045600F1
:100C90000303570003035800100059000010070019
:100CA0001200FFFF280007001300070017000000D4
:100CB0000000240027002A00000000002300260076
:100CC00029000000000800020100000304070000E2
:100CD0000000000000000102040810204080010212
:100CE0000408102001020408102000000000250064
:100CF00028002B0004040404040404040202020279
:100D00000202030303030303622211241FBECFEF79
:100D1000D8E0DEBFCDBF13E0A0E0B1E0E8E3FBE741
:100D200002C005900D92A032B107D9F727E0A0E2EA
:100D3000B3E001C01D92A432B207E1F716E0C5E8A6
:100D4000D6E004C02197FE010E94E536C438D107E1
:100D5000C9F70E9486240C949A3D0C9400008330BD
:100D600081F028F4813099F08230A9F0089587301D
:100D7000A9F08830C9F08430B1F4809180008F7D73
:100D800003C0809180008F7780938000089584B5A0
:100D90008F7784BD089584B58F7DFBCF8091B0009F
:100DA0008F778093B00008958091B0008F7DF9CF48
:100DB000CF93DF93282F30E0F901EE53F34F849166
:100DC000F901EA52F34FD491F901EC50F34FC49179
:100DD000CC23A1F081110E94AF06EC2FF0E0EE0FC2
:100DE000FF1FE854F34FA591B491EC91ED2381E0FE
:100DF00090E009F480E0DF91CF91089580E090E0E9
:100E0000FACF1F93CF93DF93282F30E0F901EE53F1
:100E1000F34F8491F901EA52F34FD491F901EC5068
:100E2000F34FC491CC23A9F0162F81110E94AF0675
:100E3000EC2FF0E0EE0FFF1FE651F34FA591B491B8
:100E40008FB7F894EC91111108C0D095DE23DC9394
:100E50008FBFDF91CF911F910895DE2BF8CFCF93F5
:100E6000DF9390E0FC01EA52F34F24918C50934FB2
:100E7000FC0184918823D1F090E0880F991FFC0138
:100E8000E255F34FA591B491FC01E651F34FC591A2
:100E9000D49161110EC09FB7F8948C91E22FE09528
:100EA0008E238C932881E223E8839FBFDF91CF912B
:100EB00008958FB7F894EC91E22BEC938FBFF6CFA7
:100EC0008E3008F08E508770806480937C00809113
:100ED0007A00806480937A0080917A0086FDFCCF4E
:100EE000809178009091790008953FB7F8948091AF
:100EF000500390915103A0915203B091530326B532
:100F0000A89B05C02F3F19F00196A11DB11D3FBF41
:100F1000BA2FA92F982F8827BC01CD01620F711D10
:100F2000811D911D42E0660F771F881F991F4A950A
:100F3000D1F708958F929F92AF92BF92CF92DF9296
:100F4000EF92FF926B017C010E9475074B015C01DF
:100F5000C114D104E104F104B9F00E9475076819C5
:100F600079098A099B09683E73408105910580F3E0
:100F700021E0C21AD108E108F10888EE880E83E06A
:100F8000981EA11CB11CE4CFFF90EF90DF90CF9092
:100F9000BF90AF909F908F900895AF92BF92CF92E5
:100FA000DF92EF92FF920F931F93CF93DF936C0129
:100FB0007B018B01040F151FEB015E01AE18BF080A
:100FC000C017D10759F06991D601ED91FC910190BC
:100FD000F081E02DC6010995892B79F7C501DF91D4
:100FE000CF911F910F91FF90EF90DF90CF90BF9026
:100FF000AF900895FC01538D448D252F30E0842F50
:1010000090E0821B930B541710F0CF960895019730
:101010000895FC01918D828D981761F0A28DAE0F1D
:10102000BF2FB11D5D968C91928D9F5F9F73928FA4
:1010300090E008958FEF9FEF0895FC01918D828DD0
:10104000981731F0828DE80FF11D858D90E008959D
:101050008FEF9FEF0895FC01918D228D892F90E0F5
:10106000805C9F4F821B91098F739927089585E5B6
:1010700093E00E942B0821E0892B09F420E0822FC5
:10108000089580E090E0892B29F00E9437088111B3
:101090000C9400000895FC01A48DA80FB92FB11D78
:1010A000A35ABF4F2C91848D90E001968F7399279E
:1010B000848FA689B7892C93A089B1898C9183707C
:1010C00080648C93938D848D981306C00288F38975
:1010D000E02D80818F7D80830895EF92FF920F93A2
:1010E0001F93CF93DF93EC0181E0888F9B8D8C8DD4
:1010F00098131AC0E889F989808185FF15C09FB7C8
:10110000F894EE89FF896083E889F989808183708A
:10111000806480839FBF81E090E0DF91CF911F9139
:101120000F91FF90EF900895F62E0B8D10E00F5F5A
:101130001F4F0F731127E02E8C8D8E110CC00FB630
:1011400007FCFACFE889F989808185FFF5CFCE01C8
:101150000E944B08F1CFEB8DEC0FFD2FF11DE35AF0
:10116000FF4FF0829FB7F8940B8FEA89FB8980814B
:101170008062CFCFCF93DF93EC01888D8823B9F0C5
:10118000AA89BB89E889F9898C9185FD03C0808192
:1011900086FD0DC00FB607FCF7CF8C9185FFF2CF0F
:1011A000808185FFEDCFCE010E944B08E9CFDF9112
:1011B000CF91089508950F931F93CF93DF93EC0180
:1011C0008B01FE0194913196649122969F3799F498
:1011D00070E090E080E00E949A0760E0E62FF0E087
:1011E00032960E1B1F0B101611065CF3DF91CF9188
:1011F0001F910F9108954398429885B18C7F292FB4
:101200002370822B85B98BB183709C7F892B8BB91E
:101210004198419A30E020E02617A8F4FE01E20F41
:10122000F31FE491429A85B18C7F9E2F9370892B96
:1012300085B98BB18370EC7FE82BEBB94198419A6B
:101240002F5F3F4FE9CFC60FD11D439AC7CF4398B9
:10125000429825B12C7F392F3370232B25B92BB120
:1012600023709C7F922B9BB94198419A95B19C7FAA
:10127000282F2370922B95B99BB193708C7F892B6B
:101280008BB94198419A429AFA01615078F02191C4
:1012900095B19C7F822F8370982B95B98BB1837009
:1012A0002C7F822B8BB94198419AEFCF439A0895B6
:1012B0004398429825B12C7F392F3370232B25B9C1
:1012C0002BB123709C7F922B9BB94198419A95B189
:1012D0009C7F282F2370922B95B99BB193708C7FA4
:1012E000892B8BB94198419A429A85B18C7F972F6F
:1012F0009370892B85B98BB183707C7F782B7BB9F8
:101300004198419A85B18C7F962F9370892B85B92E
:101310008BB183706C7F682B6BB94198419A439A6B
:10132000089581E08093540384B1836084B98AB1C5
:101330008C6F8AB9389A399A3A9A3B9A3C9A439A6E
:10134000409A419A449A62E370E080E090E00E9403
:101350009A07449864E670E080E090E00E949A0763
:10136000449A64E670E080E090E00E949A0770E0A2
:1013700060E080EB90E00C9458091F93CF93DF93CB
:10138000C82F162F80915403811102C00E94910929
:101390004398429885B18C7F85B98BB183708BB9A6
:1013A0004198419A95B19C7F8C2F8370982B95B969
:1013B0008BB18370CC7F8C2B8BB94198419A429A28
:1013C00084B18C7F84B98AB183708AB961E070E09E
:1013D00080E090E00E949A0761E070E080E090E099
:1013E0000E949A07409A409840984098C3B1D9B15A
:1013F000409A61E070E080E090E00E949A07409A95
:1014000040984098409883B199B1409A115020F784
:10141000409A439A24B1236024B92AB12C6F2AB987
:10142000C370DC7FCD2B83709C7F892B9C2FDF9139
:10143000CF911F9108950F931F93CF93DF938C014A
:1014400060E00E94BD09EC0161E0C8010E94BD0995
:101450008C01BE0190E080E0CB017727662730E069
:1014600020E0602B712B822B932BDF91CF911F916A
:101470000F910895FF920F931F93CF93DF938C01E9
:1014800060E00E94BD09EC0161E0C8010E94BD0955
:10149000F82E62E0C8010E94BD09AE0170E060E074
:1014A000742F66275527442700E030E020E0402BCA
:1014B0005F29622B732B292F30E0C901B0E0A0E037
:1014C0008A019B01082B192B2A2B3B2BC901B80140
:1014D000DF91CF911F910F91FF9008950F931F936C
:1014E000CF93DF93EC018B01FE0185919491FE0176
:1014F00032962496659174918F3F980771F490E02D
:1015000080E00E949A07045011091016110664F336
:10151000DF91CF911F910F9108950E945809F3CF49
:10152000FC01262F358D868D82958170982F962708
:10153000692F70E072A361A330FF0CC0821307C053
:1015400080E290E050E040E060E00C94270981E206
:1015500090E0F8CF878D90A1833927E7920741F07B
:1015600058F4843521E0920791F080329445C1F41B
:10157000626081E094E012C0863223E99207C1F3F1
:10158000893025EB9207A1F38532924949F4660F21
:10159000771F660F771F636187E090E00C9458090E
:1015A00081E690E0FBCF8F929F92AF92BF92CF9255
:1015B000DF92EF92FF920F931F93CF93DF9300D0B0
:1015C00000D0CDB7DEB77C014B015A016901FC01A7
:1015D000878D90A18632954151F4F701868980FF6D
:1015E00006C0C801841B950B81F50F5F1F4FF701E3
:1015F000858D80FF31C085A599828A82DB82CC826D
:10160000AE014F5F5F4F64E090E00E942709F70151
:1016100081A9B982AA821B830C83AE014F5F5F4F01
:1016200064E090E00E9427090F900F900F900F90B8
:10163000DF91CF911F910F91FF90EF90DF90CF90AE
:10164000BF90AF909F908F9008952617370779F637
:10165000C80ED91E8A01CBCFB40187A190A50E94E4
:101660005809B501F70181A592A50E945809C8142F
:10167000D90419F40A151B05B9F2F701858D85FF08
:1016800008C0868980FF1EC0102F0027A02AB12A1B
:101690008501B401F70185A596A50E945809B501F9
:1016A000F70181A992A90E945809B601F70187A5FF
:1016B00090A90E945809B801F70183A994A90E9432
:1016C0005809B2CFDC2CCC248C289D286401E1CFB2
:1016D000AF92BF92CF92DF92EF92FF920F931F9340
:1016E000CF93DF93EC0180912003882349F0C70159
:1016F000880F991F8E739927E1ECEE22E82AF92AC8
:1017000037FF05C0620F731F319521953109260FF0
:10171000371F77FF02C070E060E088859985281741
:1017200039070CF4C9016C01C61AD70A17FF05C0A6
:10173000400F511F119501951109040F151F57FFF7
:1017400002C050E040E02A853B85021713070CF4E5
:1017500098015901A41AB50A8901015011099C0187
:1017600021503109CE010E94D30A439842983BA5EB
:101770008CA525B12C7F982F9370292B25B99BB16F
:1017800093708C7F982B9BB94198419A95B19C7F1F
:10179000832F8370982B95B98BB183703C7F832BFB
:1017A0008BB94198419A429ACA14DB042CF09A2DC5
:1017B0008B2D5601C92ED82E8F2DA70193E056955B
:1017C00047959A95E1F74C7F5E2D550F550F550FB4
:1017D0006F2D63707F2D7C7FEE2DE3702E2D2C7F7F
:1017E000E22E887F1C141D040CF03FC09091210351
:1017F0009501992311F195B19C7F95B99BB1937097
:10180000982B9BB94198419A95B19C7F95B99BB112
:101810009370942B9BB94198419A95B19C7F95B94F
:101820009BB19370952B9BB94198419A21503109F6
:1018300011F791E0C91AD108D5CF95B19C7F962BAD
:1018400095B99BB19370972B9BB94198419A95B1EB
:101850009C7F9E2B95B99BB193709E299BB9419813
:10186000419A2150310949F7E4CF439A8D8D80FF89
:1018700008C08F8D98A18632954191F48E8980FFA2
:101880000FC00A851B850150110928853985215013
:10189000310950E040E070E060E0CE010E94D30AE0
:1018A000DF91CF911F910F91FF90EF90DF90CF903C
:1018B000BF90AF900895EF92FF920F931F93CF9335
:1018C000DF937C01E90177FD6DC057FD6BC0FC0122
:1018D00080859185681779070CF064C082859385AF
:1018E000481759070CF05EC080912003882341F00F
:1018F000C901880F991F8E739927C17CC82BD92BDA
:101900008A019B01C7010E94D30A80912103882389
:1019100009F44FC043984298F70133A584A525B137
:101920002C7F982F9370292B25B99BB193708C7FB6
:10193000982B9BB94198419A95B19C7F832F8370D6
:10194000982B95B98BB183703C7F832B8BB94198D1
:10195000419A429A85B18C7F85B99BB18D2F887F42
:101960009370892B8BB94198419A85B18C7F85B949
:101970002BB1CE0133E0969587953A95E1F78C7FB0
:101980002370822B8BB94198419A85B18C7F85B9A0
:101990008BB1CC0FCC0FCC0F8370C82BCBB9419837
:1019A000419A439ADF91CF911F910F91FF90EF9051
:1019B0000895BE01F70183A594A5DF91CF911F91F2
:1019C0000F91FF90EF900C945809EF92FF920F93B4
:1019D0001F93CF93DF93CDB7DEB72A970FB6F89456
:1019E000DEBF0FBECDBF7C01862F8370F701868BD3
:1019F000962F917060FFE3C026813781F701318710
:101A00002087992309F4DEC024813581F7013387CB
:101A10002287823009F4DBC0833009F4DAC08130D8
:101A200009F4D3C088E48A87F701858D968D90FFED
:101A300003C02A8520582A8791FF04C02A8530E4F4
:101A400023272A8793FF04C02A8538E023272A8783
:101A5000F701278D30A180FF00C12431F8E63F0750
:101A600009F0B9C09A85892F88728A871F82892FC9
:101A700085958074282F2260892F90E09595879511
:101A800080729927822B88878BE38987AE01495F13
:101A90005F4F63E086EB90E00E9427092AE230E086
:101AA000F70130A727A38BE290E092A781A74CE231
:101AB00050E054A743A736A725A730AB27A792AB82
:101AC00081AB94AB83ABAE01465F5F4F61E086E3D1
:101AD00090E00E9427098A8590E0F70194A383A3F0
:101AE000F701868980FF1CC0858D968D92FD18C0F8
:101AF00087A190A521A532A530A727A392A781A7EA
:101B000085A596A521A932A936A725A792AB81ABB9
:101B100087A590A923A934A930AB27A794AB83ABA1
:101B2000F701028513850150110920853185215067
:101B3000310950E040E070E060E0C7010E94D30A44
:101B4000F70166817781878D90A120E08732F3E9E4
:101B50009F0709F420E2F701358D30FF39C1198262
:101B60001A827B836C831D822E83AE014F5F5F4F91
:101B700066E083E390E00E94270919821A82AE0191
:101B80004F5F5F4F62E087E390E00E942709F70113
:101B9000858D80FF07C050E040E060E083E190E089
:101BA0000E9427092A960FB6F894DEBF0FBECDBF5C
:101BB000DF91CF911F910F91FF90EF9008952481B5
:101BC00035811CCF2681378121CF88E22CCF88E94F
:101BD0002ACF88EF28CF273243E9340789F41F82C0
:101BE00081E388878A858595859585958595887013
:101BF0008987AE01495F5F4F63E080EC90E04CCF96
:101C0000233689E1380749F02138E4E93E0729F015
:101C10002131F5E13F0709F041CF8A8587FF02C0F6
:101C200081608A878A8586FF02C082608A878A856A
:101C30008F73233649E1340731F0213884E93807BE
:101C400021F48A858F728A8729CF2131354109F0A5
:101C500025CF8A858F7E806CF6CF6A85862F062EEB
:101C6000000C990B2339F7E73F0751F0A8F524350D
:101C7000E1E03E0709F45CC02032F4E53F07A1F53E
:101C800040E052E0F70150A747A341E052E052A7DD
:101C900041A742E052E054A743A740E152E056A7D3
:101CA00045A741E152E050AB47A742E152E052ABB9
:101CB00041AB43E152E054AB43AB882790782632E6
:101CC000F3E93F0721F02032344509F071C067FD88
:101CD000846060E071E36EC0263243E9340781F22C
:101CE0002930E5EB3E0761F220E230E0F70130A752
:101CF00027A321E230E032A721A722E230E034A777
:101D000023A720E530E036A725A721E530E030AB5A
:101D100027A722E530E032AB21AB23E530E034AB3E
:101D200023ABBC0166277078776280E690E046C0FE
:101D300027E330E0F70136A725A726E330E030ABF4
:101D400027A729E330E032AB21AB28E330E034AB06
:101D500023AB20E230E030A727A321E230E032A716
:101D600021A722E230E034A723A7F4E06F9FB0015F
:101D7000112466277170882792708862682B792BEE
:101D800081E090E00E9458098A85682F70E075957F
:101D90006795759567956870772783FD70616063B7
:101DA000F70174A363A383E090E00E94580998CEE2
:101DB00060E072E6682B792B80E094E00E9458097D
:101DC0006A85F4E06F9FB001112466277170D8CF47
:101DD0008339F7E79F07D9F1F0F4803244E594079F
:101DE000B1F18338E7E79E0731F184359140F1F492
:101DF0006150710981E390E00E94580970E060E051
:101E000082E390E00E94580970E060E083E390E094
:101E10000E945809C7CE863223E99207C1F0893063
:101E200045EB9407A1F08532924911F3F70161A1C6
:101E300072A1626003C0F70161A172A181E690E026
:101E40000E94580970E060E08AE690E0E1CFF70177
:101E500061A172A1626081E094E00E94580970E083
:101E600060E084E094E0D4CFEF92FF920F931F9351
:101E7000DC01ED91FC9100A0F1A1E02D780101E0E1
:101E800010E009951F910F91FF90EF900895EF9248
:101E9000FF920F931F93DC01ED91FC9100A0F1A143
:101EA000E02D7801890121E030E009951F910F9123
:101EB000FF90EF900895FC01248D211102C0858DC3
:101EC000089580E00895FC01848D882319F0858DA4
:101ED00091E089270895FC01828193816817790731
:101EE000A4F026813781820F931F681779076CF45D
:101EF000248135814217530744F080859185280F4E
:101F0000391F81E0421753070CF080E008950895CF
:101F1000FC016370668B84819581268137816130F5
:101F200039F0633029F091878087338722870895BD
:101F3000318720879387828708952F923F924F920F
:101F40005F926F927F928F929F92AF92BF92CF9249
:101F5000DF92EF92FF920F931F93CF93DF93CDB752
:101F6000DEB76A970FB6F894DEBF0FBECDBF9A8F6B
:101F7000898F7A8369834A01D22E18870F833701AC
:101F8000BC2CDC0159962D913C915A9721153105B5
:101F900009F015C118968D919C91199768177907CA
:101FA0000CF0D7C11A968D919C91481759070CF0E7
:101FB000D0C14C2C512CB6E0CB9E600D711D11246C
:101FC0007C876B87161617060CF0C3C1EA2DF0E06C
:101FD000FA87E98793E0EE0FFF1F9A95E1F7F88BF8
:101FE000EF87CF01840F951F181619060CF0B1C1A9
:101FF000A98DBA8D58968C91811104C0BFEABD1588
:1020000008F4D394A98DBA8DED91FC9111970284B7
:10201000F385E02DCD010995B5E0DB9EC0011124CB
:10202000E981FA81FC83EB83312C212C9C01285916
:102030003F4F388F2F8B4A2D50E05E8B4D8BEF89B1
:10204000F88DE20DF31D44919E828D82D12CC12C1E
:1020500069817A81620D731D7A8B698B842F90E080
:102060009C8B8B8BE98DFA8DA081B18140FF82C062
:10207000F1E0BF126FC0AF126DC01C96ED91FC91E4
:102080002F813885A4014C0D5D1D69897A89898D60
:102090009A8D0995EB89FC89F595E7954E2F5FEFB1
:1020A000C51AD50A6D817E818D899E89680F791F39
:1020B0007E836D8398E0C916D10481F6AFEF2A1AAA
:1020C0003A0AEB81FC81E40DF51DFC83EB83F5E01E
:1020D0002F16310409F0B3CF2F8138852615370527
:1020E000B9F0A98DBA8DED91FC91B1E0BB1257C04A
:1020F000AB1255C069817A816B5F7F4F0088F1898F
:10210000E02D830128E030E0A401898D9A8D0995A6
:10211000A98DBA8DED91FC9111970688F789E02D74
:10212000CD016A960FB6F894DEBF0FBECDBFDF912A
:10213000CF911F910F91FF90EF90DF90CF90BF90C4
:10214000AF909F908F907F906F905F904F903F9057
:102150002F9009941E96ED91FC91EF80F8840985EB
:102160001A8592014D815E816B817C81898D9A8D6A
:10217000099590CF2F8138852615370509F48ACF28
:1021800031E0B31207C0A31205C01C96ED91FC917B
:10219000930178CF1E96ED91FC917301E0CF6B8592
:1021A0007C85641975090684F785E02D73010F8518
:1021B00018899201A401898D9A8D0995A9CFF901F9
:1021C00034969491329745915491D91AB7E0DB9E99
:1021D000400D511D1124F901259134913C8B2B8B1D
:1021E000FA0125903490FA01329674903196349128
:1021F000398B329664903196449041E04C1518F03A
:102200004A1508F07FC0662D062C000C770B7C83E6
:102210006B83842D042C000C990B9E838D83A98DD8
:10222000BA8DED91FC9111970284F385E02DCD01DB
:102230000995512CD12CC12CEA2DF0E0FA87E987C1
:102240002B2D30E03C872B87A401440D511D47FC0A
:102250005A95588F4F8B69817A81660D711D67FC85
:102260007A957E876D877989C71608F051CF2C2D16
:1022700030E04D815E81420F531FA985BA854A9F88
:10228000C0014B9F900D5A9F900D1124FC01E80D49
:10229000F91DF88BEF87852D612C4F89588D420FE2
:1022A000531F5E8B4D8B671408F050C04424439439
:1022B000480E877041F4C1010196EB89FC89E20D5B
:1022C000F31DD4901C01D7FE19C0A98DBA8DED91D4
:1022D000FC91662D70E0B1E0BB1219C0AB1217C0C3
:1022E0002D853E85620F731F0484F585E02D2F81B7
:1022F00038854D895E89898D9A8D0995DD0C6394A9
:10230000842DD1CF1E821D821C821B8288CF4B81DF
:102310005C81640F751FAB85BC856A9FC0016B9F94
:10232000900D7A9F900D112469817A81680F791F31
:102330000684F785E02DEF80F88409851A859D01D4
:102340004F855889898D9A8D0995D8CF570CC3949C
:102350008ACF6A960FB6F894DEBF0FBECDBFDF916D
:10236000CF911F910F91FF90EF90DF90CF90BF9092
:10237000AF909F908F907F906F905F904F903F9025
:102380002F9008958F929F92AF92CF92EF92FF92EB
:102390000F931F93CF93DF93EC01262F898D9A8D96
:1023A000009709F051C06A30D1F41D861C868D89D2
:1023B00048E0849F900111248E859F85820F931F92
:1023C0009F878E8781E090E0DF91CF911F910F91E1
:1023D000FF90EF90CF90AF909F908F9008956D30C9
:1023E00089F3CC88AD888F898823C1F08C859D8541
:1023F00036E0C39E800D911D1124488559854817EC
:10240000590764F44E855F851D861C8638E0A39EBF
:10241000C0011124840F951F9F878E87EA88FB884F
:10242000088919894E855F856C857D85CE010E945E
:102430009D0F2C898C859D8546E0249F800D911DE4
:1024400011249D878C87BECF6A3069F41D861C8657
:10245000FC013896E4912D898E859F85E29F800D41
:10246000911D1124ADCF6D3009F4ACCFFC01349631
:102470003491631708F4A6CF3296E491E61708F476
:10248000A1CFFC01329685909490462F431B342FA8
:1024900047E0349F800C911C1124F4013296349152
:1024A0003196E4913323A9F1EE2399F1CC88F4011C
:1024B0003596E491AD884F89442301F10E2E000C2E
:1024C000FF0BE30FF11DCE9EA001CF9E500D1124F6
:1024D0006C857D85460F571F68857985641775075C
:1024E0006CF44E855F851D861C86FC013896E49150
:1024F000AE9E400D511D11245F874E87EA88FB88F0
:10250000088919894E855F856C857D85CE010E947D
:102510009D0FF4013496E4912C898C859D85E29F72
:10252000800D911D11248DCF6F927F928F929F927B
:10253000AF92BF92CF92DF92EF92FF920F931F93D1
:10254000CF93DF93EC016B015A0139014801E88117
:10255000F9810284F385E02D0995E881F9810288EB
:10256000F389E02D87019301A501B601CE010995FC
:10257000A501480D591D41505109E881F981028892
:10258000F389E02D9301B601CE010995E881F98127
:102590000088F189E02D9401A501B601CE010995CD
:1025A000C60CD71CB60161507109E881F981008819
:1025B000F189E02D9401A501CE010995E881F98109
:1025C0000688F789E02DCE01DF91CF911F910F9101
:1025D000FF90EF90DF90CF90BF90AF909F908F9043
:1025E0007F906F9009942F923F924F925F926F92DB
:1025F0007F928F929F92AF92BF92CF92DF92EF9293
:10260000FF920F931F93CF93DF93CDB7DEB72D9734
:102610000FB6F894DEBF0FBECDBF5C011B0158871B
:102620004F833D872C870987FC82EB82360181E04E
:1026300090E06C01C21AD30AC90191958195910964
:102640009C01220F331F3A832983C70101969E8381
:102650008D83F12CE12C44244394512CDA01119602
:10266000BB87AA872C853D85E216F3060CF070C067
:102670008C849D84D7FC0BC0490131E0831A9108FA
:1026800089819A8102969A838983C80ED91E9FEF09
:10269000E91AF90AA2E04A0E511CC40CD51C8E148A
:1026A0009F0444F42C853D8528153905F1F49D8659
:1026B0008C86D8CF9401220F331F4F81588548193B
:1026C0005909D501ED91FC91B9858D819E81280F25
:1026D000391F0088F189E02D8301B101B13009F57E
:1026E0006E0D7F1DC5010995DDCF9985913019F5D6
:1026F000920122503109AB81BC812A0F3B1F6C85AE
:102700007D85620D731DD501ED91FC910088F189E5
:10271000E02D83014A855B854E195F09C501099546
:10272000C6CF6E197F09C5010995AC85BD85A81571
:10273000B90509F4BCCF9201225031098B819C81EB
:10274000280F391FB101AC85BD856A1B7B0BDBCF20
:102750002D960FB6F894DEBF0FBECDBFDF91CF919F
:102760001F910F91FF90EF90DF90CF90BF90AF90AF
:102770009F908F907F906F905F904F903F902F90A1
:1027800008952F923F924F925F926F927F928F9215
:102790009F92AF92BF92CF92DF92EF92FF920F93F0
:1027A0001F93CF93DF9300D000D000D0CDB7DEB71A
:1027B0009E838D834B013A016901802F21E030E037
:1027C00029014C185D08222433242C183D08220CC2
:1027D000331CB12CA12C01E010E0982F9470998348
:1027E000A82FA270AA83B82FB870BB8381708C8386
:1027F000AC14BD040CF0A7C057FC08C081E0C81A97
:10280000D10892E0290E311C420C531CAFEFAA1ADA
:10281000BA0A0E5F1F4F400E511EB981BB2311F142
:10282000AD81BE81ED91FC9111970484F585E02D79
:102830009701A601460D571DB4016A0D7B1DCD0100
:102840000995AD81BE81ED91FC9111970484F585C8
:10285000E02D9701A3014A0D5B1DB601680D791D9E
:10286000CD010995BA81BB2311F1AD81BE81ED91F6
:10287000FC9111970484F585E02D9701A3014C1973
:102880005D09B4016A0D7B1DCD010995AD81BE8145
:10289000ED91FC9111970484F585E02D9701A3013A
:1028A0004A195B09B601680D791DCD010995BB81F7
:1028B000BB2311F1AD81BE81ED91FC911197048490
:1028C000F585E02D9701A3014A0D5B1DB4016C193C
:1028D0007D09CD010995AD81BE81ED91FC911197E6
:1028E0000484F585E02D9701A601460D571DB4011E
:1028F0006A197B09CD010995BC81BB2309F478CF06
:10290000AD81BE81ED91FC9111970484F585E02D98
:102910009701A3014A195B09B4016C197D09CD0126
:102920000995AD81BE81ED91FC9111970484F585E7
:10293000E02D9701A3014C195D09B4016A197B09C7
:10294000CD01099555CF26960FB6F894DEBF0FBE80
:10295000CDBFDF91CF911F910F91FF90EF90DF904E
:10296000CF90BF90AF909F908F907F906F905F902F
:102970004F903F902F9008956F927F928F929F92E9
:10298000AF92BF92CF92DF92EF92FF920F931F937D
:10299000CF93DF935C01EB016A01490138018701A4
:1029A000DC01ED91FC916217730719F56416750649
:1029B0002CF0962D872D3A01C92ED82E9601261976
:1029C00037092F5F3F4F048CF58DE02DA301BE0129
:1029D000C5010995DF91CF911F910F91FF90EF9065
:1029E000DF90CF90BF90AF909F908F907F906F902F
:1029F00008954615570591F42617370724F0892DB9
:102A00004B01C22FD82F9E01281939092F5F3F4F44
:102A1000068CF78DE02DA601B401DACF0284F38590
:102A2000E02D0995D501ED91FC910488F589E02D03
:102A300083019401A601BE01C5010995D501ED915F
:102A4000FC910688F789E02DC501DF91CF911F9198
:102A50000F91FF90EF90DF90CF90BF90AF909F903D
:102A60008F907F906F900994EF92FF920F931F9336
:102A7000DC011A960D911C911B9718962D913C9193
:102A80001997ED91FC9100A0F1A1E02D7B0150E0A0
:102A900040E070E060E009951F910F91FF90EF908A
:102AA00008954F925F926F927F928F929F92AF9212
:102AB000BF92CF92DF92EF92FF920F931F93CF932B
:102AC000DF936C012B015A0139014801DC01ED91C2
:102AD000FC910284F385E02D0995E201640C751CDC
:102AE000D601ED91FC91C615D7055CF40088F189FB
:102AF000E02D87019401A501BE01C601099521962B
:102B0000EFCF0688F789E02DC601DF91CF911F91A5
:102B10000F91FF90EF90DF90CF90BF90AF909F907C
:102B20008F907F906F905F904F9009948F929F92BB
:102B3000AF92BF92CF92DF92EF92FF920F931F93CB
:102B4000CF93DF93EC015B014A016901E881F981D0
:102B50000284F385E02D099595012C0D3D1D215032
:102B60003109E881F9810488F589E02D7801840133
:102B7000A401B501CE010995E881F9810688F7899C
:102B8000E02DCE01DF91CF911F910F91FF90EF903B
:102B9000DF90CF90BF90AF909F908F9009948F92CD
:102BA0009F92AF92BF92CF92DF92EF92FF920F93DC
:102BB0001F93CF93DF93EC015B014A016901780118
:102BC000E881F9810284F385E02D0995C80CD91CB0
:102BD000860101501109E881F9810488F589E02D09
:102BE0009501A401B501CE010995E881F981068816
:102BF000F789E02DCE01DF91CF911F910F91FF90CA
:102C0000EF90DF90CF90BF90AF909F908F900994FE
:102C10000895EF92FF920F931F93DC01ED91FC91C9
:102C200000A0F1A1E02D09951F910F91FF90EF9069
:102C300008950F931F93DC01ED91FC91068CF78DA5
:102C4000E02D09951F910F9108950F931F93DC01BB
:102C5000ED91FC91048CF58DE02D09951F910F915C
:102C60000895DC01ED91FC910084F185E02D09943B
:102C70002F923F924F925F926F927F928F929F928C
:102C8000AF92BF92CF92DF92EF92FF920F931F937A
:102C9000CF93DF9300D000D000D0CDB7DEB73C019A
:102CA0006A013E832D83FC82EB825801A41AB50A87
:102CB000B7FE03C0B194A194B1088D809E80861A9E
:102CC000970A97FE03C09194819491088A149B04FB
:102CD0005CF0902F812F0D811E819D838E839C2D12
:102CE0008D2D6B01692F782F0C151D055CF09D81D2
:102CF0008E817E836D83692F782F902F812F86019F
:102D0000C92ED82E1601201A310A2B012D813E81A1
:102D1000421A530A57FE03C051944194510871015D
:102D200037FE03C03FEFE31AF30AF594E7948D8171
:102D30009E81861797075CF5A1E0B0E0BA83A9836E
:102D4000C016D1064CF1D301ED91FC910484F585B8
:102D5000E02D2B813C81A8016D817E818A149B042A
:102D60001CF04D815E81B801C3010995E418F50896
:102D7000F7FE0AC02D813E8189819A81280F391F73
:102D80003E832D83E20CF31C0F5F1F4FD9CF2FEF33
:102D90003FEF3A832983D4CF26960FB6F894DEBF4F
:102DA0000FBECDBFDF91CF911F910F91FF90EF909C
:102DB000DF90CF90BF90AF909F908F907F906F905B
:102DC0005F904F903F902F900895089590E080E09D
:102DD0000895CF93DF93FC012781222359F1EC0161
:102DE00061E080850E942F0761E089850E942F079E
:102DF0008F81843011F08830B1F461E08A850E94BF
:102E00002F0761E08B850E942F078FA58F3F91F0E0
:102E100061E00E942F076EA581E068278FA5DF91F2
:102E2000CF910C940107833011F0863071F761E087
:102E30008A85E9CFDF91CF910895CF93DF93FC018D
:102E400027812223A9F0EC010190F081E02D02847A
:102E5000F385E02D60E009958FA58F3F49F061E093
:102E60000E942F076EA58FA5DF91CF910C940107CB
:102E7000DF91CF910895DC01ED91FC91228533859E
:102E80004770552766277727415051096109710915
:102E9000473051056105710560F4FA01EE5AF84EAC
:102EA0000C94E5365C175E17601762176417661797
:102EB000681761E0F901099465E0FCCF64E0FACF9E
:102EC00066E0F8CF62E0F6CF6AE0F4CF68E0F2CFD8
:102ED00069E0F0CFCF93DF93EC01CB01BA0126E09C
:102EE00030E040E050E00E9482366230710581059A
:102EF000910589F16CF46115710581059105D1F099
:102F00006130710581059105F9F0DF91CF91089548
:102F1000643071058105910561F124F16530710519
:102F20008105910591F7E881F9810284F385E02D0F
:102F300066E006C0E881F9810284F385E02D64E053
:102F4000CE01DF91CF910994E881F9810284F38564
:102F5000E02D65E0F5CFE881F9810284F385E02D6D
:102F600061E0EECFE881F9810284F385E02D63E032
:102F7000E7CFE881F9810284F385E02D62E0E0CFBC
:102F8000DC01ED91FC910284F385E02D437055271F
:102F900066277727423051056105710571F043308E
:102FA00051056105710559F0413051056105710503
:102FB00011F065E0099466E0FDCF6AE0FBCF69E0BF
:102FC000F9CFCF93DF93EC01CB01BA0123E030E0DE
:102FD00040E050E00E948236613071058105910524
:102FE00099F06230710581059105A9F0672B682B76
:102FF000692BC1F4E881F9810284F385E02D64E056
:10300000CE01DF91CF910994E881F9810284F385A3
:10301000E02D61E0F5CFE881F9810284F385E02DB0
:1030200062E0EECFDF91CF910895DC01ED91FC914C
:103030000284F385E02D43705527662777274230B9
:1030400051056105710571F0433051056105710548
:1030500059F0413051056105710511F062E00994A4
:1030600063E0FDCF61E0FBCF60E0F9CFCF93DF936A
:10307000EC01E881F9810284F385E02D8A8160E02A
:10308000811162E0CE010995E881F9810284F3851E
:10309000E02D8A8161E0811163E0CE0109958CA564
:1030A0009DA58230910538F0880F991F880F991FD0
:1030B00005970197F1F7E881F9810284F385E02D06
:1030C0008A8160E0811162E0CE01DF91CF910994A5
:1030D000CF93DF93EC0120E030E0A901688D798D7A
:1030E0008A8D9B8D0E94B73818162CF4E8A9F9A98F
:1030F000DF91CF910994EAA9FBA9FACFCF92DF9291
:10310000EF92FF920F931F93CF93DF93DC011796FB
:10311000CC91C43039F0C83059F1C33019F0C63001
:1031200049F1C2E08C01085F1F4FF12CE12CC62E43
:10313000D12CD1E0F8016481C6010E2C02C0959516
:1031400087950A94E2F780FD6D270F5F1F4F8081FE
:103150000E940107BFEFEB1AFB0AEC1658F3DF9150
:10316000CF911F910F91FF90EF90DF90CF90089536
:10317000C4E0D8CFC3E0D6CFDC011796EC91179707
:10318000E93008F038C0F0E0E853F74E0C94E5362B
:10319000D118D718DD18E318E918FB18EF18FB1839
:1031A000F518ED91FC910684F785E02D0994ED91D9
:1031B000FC910088F189E02DF9CFED91FC91028816
:1031C000F389E02DF3CFED91FC910488F589E02D92
:1031D000EDCFED91FC910688F789E02DE7CFED91D9
:1031E000FC91008CF18DE02DE1CFED91FC91028CF2
:1031F000F38DE02DDBCF08954F925F926F927F9217
:103200008F929F92AF92BF92CF92DF92EF92FF92F6
:103210000F931F93CF93DF93EC01CC88DD88EE886A
:10322000FF8888899989AA89BB89C81AD90AEA0AB4
:10323000FB0A688D798D8A8D9B8D9B01AC010E9464
:10324000BC384B015C0168A179A18AA19BA19B01BB
:10325000AC010E94EC369B01AC01C501B4010E9497
:103260005D370E94CF37C114D104E104F10409F0A5
:10327000B6C062307105810591050CF0D0C01B828B
:103280001C821D821E82188E198E1A8E1B8E1CAAFD
:103290001DAA1EAA1FAAC12CD12C7601C701B601F6
:1032A000DF91CF911F910F91FF90EF90DF90CF9022
:1032B000BF90AF909F908F907F906F905F904F9056
:1032C00008951016110612061306B4F46C157D0548
:1032D0008E059F051CF42A812111A1C09B01AC0120
:1032E00088279927DC01821B930BA40BB50B8CABB1
:1032F0009DABAEABBFAB93C00115110521053105E8
:1033000009F48DC06C157D058E059F050CF087C0F6
:103310008A81882309F483C0309520951095019502
:103320001F4F2F4F3F4F0CAB1DAB2EAB3FAB77C0AA
:10333000011511052105310509F471C0882499246E
:1033400054018C189D08AE08BF08681579058A05D8
:103350009B050CF064C08A81811161C0DDCFCCACCB
:10336000DDACEEACFFACA7019601C701B6010E942F
:10337000EC362B013C01C501B4010E94073820E066
:1033800030E040E850E40E94BC3820E030E040E803
:103390005FE30E94EC369B01AC01C301B2010E94C5
:1033A0005D379B01AC01C701B6010E94EB363B01C2
:1033B0006C01FE01E05CFF4FE080F180028113812F
:1033C0009701A8010E94B738181614F473018601FA
:1033D000C701D8018CAF9DAFAEAFBFAF3AC00CA94B
:1033E0001DA92EA93FA91C141D041E041F040CF4C2
:1033F00068CF10161106120613060CF099CF00279D
:10340000112798010C191D092E093F096017710732
:10341000820793070CF062CF2A8121115FCF8CA81D
:103420009DA8AEA8BFA881149104A104B10409F01D
:1034300096CF88AD99ADAAADBBAD8CAF9DAFAEAF09
:10344000BFAF81E01C141D041E041F040CF080E0BB
:103450008A833FEF831A930AA30AB30A8CAA9DAA10
:10346000AEAABFAA8CAC9DACAEACBFACC501B401DA
:103470000E94D6376B017C01CB82DC82ED82FE821A
:10348000A501940160E074E284E799E40E945D374D
:10349000688F798F8A8F9B8F2A812111FFCE905858
:1034A000688F798F8A8F9B8FF9CECF92DF92EF92C0
:1034B000FF92CF93DF93CFECD6E0688D798D8A8D24
:1034C0009B8D9B01AC010E94BC386B017C0168A103
:1034D00079A18AA19BA19B01AC010E94EC369B01C2
:1034E000AC01C701B6010E945D370E94CF376CABBB
:1034F0007DAB8EAB9FABCE01DF91CF91FF90EF9074
:10350000DF90CF900C94FC1808954F925F926F92C9
:103510007F92AF92BF92DF92EF92FF920F931F9331
:10352000CF93DF9360E0809188060E942F0760E0D0
:10353000809189060E942F0761E080918B060E948E
:103540002F0761E080918A060E942F0780919606DE
:10355000E0918E06F0918F069081892B8083809177
:103560009706E0919206F0919306908180958923C9
:103570008083809188060E946007EC018091880614
:103580000E9460079E01281B390B2C5F3F4FD12CF6
:103590002930310530F48C0F9D1F95958795DD24DA
:1035A000D3940FEF13E0081B190B60E080918B069A
:1035B0000E942F0760E080918A060E942F0761E039
:1035C000809188060E942F0761E0809189060E9401
:1035D0002F0780919906E0919406F09195069081CD
:1035E00080958923808380919806E0919006F091E0
:1035F00091069081892B808380918A060E946007C2
:10360000EC0180918A060E9460077C01CE018E1930
:103610009F090496099708F0D2C0EC0EFD1EF594A0
:10362000E79461E080918B060E942F0760E0809113
:1036300088060E942F0780919606E0918E06F091F1
:103640008F06908180958923808380919906E091EF
:103650009406F09195069081892B808380918A064B
:103660000E946007EC01809188060E946007A0908C
:103670008C06B0908D06A114B10409F4A2C0BC015F
:10368000990F880B990B0E9407382B013C01BE0152
:10369000DD0F880B990B0E9407389B01AC01C30119
:1036A000B2010E945D3720E030E040E85FE30E9415
:1036B000EB362B013C01B801012E000C880B990B55
:1036C0000E940738A30192010E94BC382B013C01E3
:1036D000B50190E080E00E940538A30192010E94AC
:1036E000BC3820E030E040E85AE30E94BC380E9439
:1036F000CF37EB01D11002C0D0E0C0E061E080E143
:103700000E942F0761E08FE00E942F0761E080E1B7
:103710000E94010761E08FE00E940107BE01695C21
:103720007109C1E06F3183E0780708F0C0E06F31C4
:103730007340B0F5A091A206B091A306012E000C33
:10374000220B330BA9019801205B31094109510972
:103750000E94AC3629EE32E040E050E00E94823612
:1037600030934803209347032FEF33E02E193F098E
:10377000032E000C440B550B215B31094109510903
:10378000A091A406B091A5060E94AC362AEF32E0C3
:1037900040E050E00E94823630934A032093490370
:1037A0008C2FDF91CF911F910F91FF90EF90DF90C1
:1037B000BF90AF907F906F905F904F900895D12C05
:1037C00030CFC81BD90BC150DC4F94CFEF92FF9282
:1037D0000F931F93DC011A960D911C911B9718965D
:1037E0002D913C911997ED91FC9100A0F1A1E02D54
:1037F0007B0150E040E070E060E009951F910F917F
:10380000FF90EF900895FF920F931F93CF93DF9354
:10381000F82E062FC7E0D0E010E061E0802F0E9474
:1038200001078F2D0E94D8060C2E01C0880F0A9424
:10383000EAF7182B60E0802F0E940107219768F7B4
:10384000812FDF91CF911F910F91FF900895EF92FB
:10385000FF920F931F93CF93DF93809116070E94DF
:10386000D806892B31F060E070E0CB010E949A0706
:10387000F4CFDFB7F89460911507809116070E9486
:10388000031C082F60911507809116070E94031CE6
:10389000C82F60911507809116070E94031C182FEE
:1038A000F12CE12C809117078E151F0479F070F030
:1038B00061E0809115070E94010760E08091150783
:1038C0000E9401078FEFE81AF80AECCFDFBF6C2FD8
:1038D00070E090E080E0982F872F762F6627802B6E
:1038E000612B000F000B10E030E020E0302F22278A
:1038F00011270027602B712B822B932BDF91CF9107
:103900001F910F91FF90EF900895CF92DF92EF9269
:10391000FF92CF93DF93D82FC0E0C12CD12C76013A
:10392000CD1769F00E94271CC60ED71EE81EF91E8F
:1039300060E070E0CB010E949A07CF5FF1CF2C2F9F
:1039400030E050E040E0C701B6010E948236CA0173
:10395000B901DF91CF91FF90EF90DF90CF90089564
:103960004F925F926F927F928F929F92AF92BF928F
:10397000CF92DF92EF92FF926B017C0120E030E06A
:10398000A9010E94583787FF04C0F7FAF094F7F8AE
:10399000F0948090EF069090F006A090F106B09021
:1039A000F206A7019601C501B4010E945837882389
:1039B00009F458C0609103077091040780910507CE
:1039C000909106070E9407382B013C01A701960140
:1039D000C501B4010E945D379B01AC01C301B20176
:1039E0000E94BC380E94CF3760930307709304078E
:1039F0008093050790930607A701960160E070E0A9
:103A000080E090E40E945D370E942F3926E53EE079
:103A10004DE25FE30E94BC3820E034E244E759E421
:103A20000E94BC38609307077093080780930907CA
:103A300090930A07C092EF06D092F006E092F1064A
:103A4000F092F2068FEC96E0FF90EF90DF90CF902F
:103A5000BF90AF909F908F907F906F905F904F90AE
:103A60000C94FC18FF90EF90DF90CF90BF90AF9038
:103A70009F908F907F906F905F904F9008950E94DD
:103A8000AE3AFB0101900020E9F73197AF01461BE8
:103A9000570BDC01ED91FC910280F381E02D09943C
:103AA0008F929F92AF92BF92EF92FF920F931F93CC
:103AB000CF93DF93CDB7DEB7A1970FB6F894DEBFF3
:103AC0000FBECDBF7C01FA01CB0119A2223008F450
:103AD0002AE08E010F5D1F4F822E912CB12CA12C5C
:103AE000BF01A50194010E94B436F901CA016A30F0
:103AF0000CF5605DD8016E938D01232B242B252BB3
:103B000079F790E080E0109721F0BD01C7010E9495
:103B1000411DA1960FB6F894DEBF0FBECDBFDF9159
:103B2000CF911F910F91FF90EF90BF90AF909F901A
:103B30008F900895695CDECFCF93DF93AC01990F2E
:103B4000660B770B2AE085E593E00E94501DEC019F
:103B500061E771E085E593E00E94411D8C0F9D1F98
:103B6000DF91CF9108954F925F926F927F928F92E3
:103B70009F92AF92BF92CF92DF92EF92FF920F93FC
:103B80001F93CF936B017C01742EAC019B010E94AB
:103B90006F3964E771E0811126C046015701E8944E
:103BA000B7F82FEF3FEF4FE75FE7C501B4010E9481
:103BB0006F3981110CC02FEF3FEF4FE75FE7C50171
:103BC000B4010E94583768E771E0181664F02FEFCF
:103BD0003FEF4FE75FE4C701B6010E94B738181600
:103BE000ACF46CE771E08AE996E0CF911F910F91F8
:103BF000FF90EF90DF90CF90BF90AF909F908F900D
:103C00007F906F905F904F900C94411D2FEF3FEF8E
:103C10004FE75FECC701B6010E94583787FDE1CF3F
:103C200020E030E0A901C701B6010E94583710E03A
:103C300000E087FF0AC06DE28AE996E00E94C211A7
:103C40008C01F7FAF094F7F8F094C0E060E070E0CF
:103C500080E09FE37C1641F020E030E040E251E458
:103C60000E945D37CF5FF6CFA70196010E94EC3628
:103C70002B013C010E94D6374B015C012AE0BC01BC
:103C8000A4018AE996E00E94501D7C01E00EF11E1D
:103C9000CC23D1F1C501B4010E9405389B01AC01D0
:103CA000C301B2010E94EB364B015C016EE28AE96E
:103CB00096E00E94C211E80EF91EC15028F120E0E2
:103CC00030E040E251E4C501B4010E94BC382B0150
:103CD0003C010E94D6374B01B12CA12C2AE0B50142
:103CE000A4018AE996E00E94501DE80EF91EC50164
:103CF000B4010E9405389B01AC01C301B2010E94CE
:103D0000EB364B015C01D9CFC701CF911F910F91C9
:103D1000FF90EF90DF90CF90BF90AF909F908F90EB
:103D20007F906F905F904F9008956115710511F02D
:103D30000C94411D90E080E008952F923F924F92A5
:103D40005F926F927F928F929F92AF92BF92CF922B
:103D5000DF92EF92FF920F931F93CF93DF93CDB734
:103D6000DEB72E970FB6F894DEBF0FBECDBF9E878D
:103D70008D87DC015096BC91B987FC01F189FA87E7
:103D8000DC011C960D90BC91A02DBA83A983FC0187
:103D900086849784662331F0982D892D89849A84AE
:103DA00099878A87AD85BE851696CD90DC9017974A
:103DB0001896AD90BC90C601CA14DB0408F0C5018A
:103DC0009695879596958795ED85FE8540805180DF
:103DD000282F30E03C832B8364807580828193811F
:103DE0009E838D83CA14DB042CF4C601D7FE05C064
:103DF000019603C0C501B7FCFBCF959587952B8035
:103E00003C80821593050CF41C01D201ED91FC91CC
:103E10000284F385E02DC2010995F101EE0FFF1F29
:103E2000F887EF832D813E81220D331D3C872B8740
:103E300096012E1B3F0BD201ED91FC910684F78574
:103E4000E02D74018501A3016B857C85C201099574
:103E5000EF81F885AE1ABF0AF1E0AF1AB108620C23
:103E6000731C6D817E816C0D7D1D6219730961501B
:103E700071096401750101E09101A301C2010E9471
:103E8000F31202E09101A3016B857C85C2010E94BF
:103E9000F312D201ED91FC910688F789E02DC20161
:103EA0000995ED85FE85C080D180A084B184E6802F
:103EB000F78064807580228133813E832D83EA14EC
:103EC000FB042CF4C701F7FE05C0019603C0C50131
:103ED000B7FCFBCF959587958B809C8088159905BD
:103EE0000CF44C01D601ED91FC910284F385E02D98
:103EF000C60109951401220C331CF701E219F309DC
:103F0000FC83EB834D805E80480C591CD601ED91FB
:103F1000FC910288F389E02D09811A812B813C8173
:103F2000A301B201C6010995F501E60DF71DF88759
:103F3000EF83AF0141505109D601ED91FC91028808
:103F4000F389E02D09811A812B813C81B201C601E0
:103F50000995F501E219F3091F01680C791CD601D6
:103F6000ED91FC910088F189E02D09811A81910180
:103F7000A3016D817E81C6010995AD80BE80AE0C26
:103F8000BF1CB50161507109D601ED91FC9100880B
:103F9000F189E02D09811A819101A301C6010995DA
:103FA000E980FA8001E09401A301B201C6010E94F8
:103FB000C113A818B908B1E0AB1AB108E980FA80BA
:103FC00002E09401A301B501C6010E94C1136F80F4
:103FD000788468187908E1E06E1A7108E980FA803F
:103FE00004E09401A301B501C6010E94C113E98058
:103FF000FA8008E09401A301B201C6010E94C11336
:10400000D601ED91FC910688F789E02DC60109954E
:10401000AD85BE85ED91FC91119718968D919C917F
:1040200019979695879514962D913C911597820F27
:10403000931F1B962C91B4E02B9F8019910911249A
:104040006D857E856E5E7F4FDB010D900020E9F768
:10405000AD0141505109461B570BAD85BE851696E3
:104060002D913C911797369527951296ED90FC90DF
:1040700013972E0D3F1D1A96FC9013E0F19ED00170
:104080001124A49F7001A59FF00CB49FF00C112483
:104090002E193F093587248797878687AD85BE858A
:1040A000ED91FC91B985B28B1A85138BB08B118B76
:1040B000AD85BE85ED91FC9111971B968C911B9758
:1040C0001A969C91911101C091E0948B811101C0CD
:1040D00081E0858BED85FE85808191812E960FB6DE
:1040E000F894DEBF0FBECDBFDF91CF911F910F912E
:1040F000FF90EF90DF90CF90BF90AF909F908F9008
:104100007F906F905F904F903F902F900C94951EF2
:10411000CF930E94851AC82F80E0CC2361F0409194
:10412000490350914A0360914703709148038CE41E
:1041300094E00E946B0F90916804909369048093BF
:10414000680480E0CC2361F04091490350914A0318
:1041500060914703709148038EE294E00E946B0FD8
:1041600090914A0490934B0480934A04CC2369F0C5
:104170004091490350914A0360914703709148036D
:1041800080E194E00E946B0FC82F80912C048093F3
:104190002D04C0932C048CE494E00E945B0F8823D0
:1041A00029F060E08CE494E00E949D1E8EE294E091
:1041B0000E945B0F882329F060E08EE294E00E9469
:1041C0009D1E80E194E00E945B0F882329F060E04F
:1041D00080E194E00E949D1E8CE494E00E94630FB5
:1041E0008823F1F161E08CE494E00E949D1E8FEF42
:1041F0009FEF9093AB068093AA061092AD061092A3
:10420000AC0683E08093AE068093AF0680E891E031
:104210009F938F938BE891E09F938F938CE393E030
:104220009F938F930E94C23A1092A7061092A606FF
:1042300084E190E09093A9068093A8066CE373E074
:104240008AE996E00E94951E8091000191E08927FD
:10425000809300010F900F900F900F900F900F9090
:104260008EE294E00E94630F8823F1F161E08EE218
:1042700094E00E949D1E8FEF9FEF9093AB0680937A
:10428000AA061092AD061092AC0683E08093AE06AB
:104290008093AF0680E991E09F938F938BE891E044
:1042A0009F938F938CE393E09F938F930E94C23AE6
:1042B0008CE390E09093A7068093A6069093A906BE
:1042C0008093A8066CE373E08AE996E00E94951E4D
:1042D0008091010191E08927809301010F900F9057
:1042E0000F900F900F900F9080E194E00E94630F69
:1042F0008823F1F161E080E194E00E949D1E8FEF40
:104300009FEF9093AB068093AA061092AD06109291
:10431000AC0683E08093AE068093AF068EE991E011
:104320009F938F938BE891E09F938F938CE393E01F
:104330009F938F930E94C23A8CE390E09093A706DC
:104340008093A6069093A9068093A8066CE373E079
:104350008AE996E00E94951E8091010191E08927EB
:10436000809301010F900F900F900F900F900F907E
:1043700080910101CF9108950C94253A0C94253A2F
:104380001F920F920FB60F9211242F933F938F938A
:104390009F93AF93BF9380914C0390914D03A09155
:1043A0004E03B0914F0330914B0323E0230F2D3781
:1043B00058F50196A11DB11D20934B0380934C032A
:1043C00090934D03A0934E03B0934F0380915003FD
:1043D00090915103A0915203B09153030196A11DF6
:1043E000B11D8093500390935103A0935203B09357
:1043F0005303BF91AF919F918F913F912F910F9058
:104400000FBE0F901F90189526E8230F0296A11D4E
:10441000B11DD2CF1F920F920FB60F9211242F937E
:104420003F934F935F936F937F938F939F93AF933C
:10443000BF93EF93FF9385E593E00E944B08FF91B4
:10444000EF91BF91AF919F918F917F916F915F910C
:104450004F913F912F910F900FBE0F901F90189585
:104460001F920F920FB60F9211242F938F939F9349
:10447000EF93FF93E0916503F09166038081E091F3
:104480006B03F0916C0382FD1BC0908180916E03E1
:104490008F5F8F7320916F03821741F0E0916E035D
:1044A000F0E0EB5AFC4F958F80936E03FF91EF91F4
:1044B0009F918F912F910F900FBE0F901F90189585
:1044C0008081F4CFCF92DF92EF92FF921092580347
:1044D0001092570388EE93E0A0E0B0E08093590378
:1044E00090935A03A0935B03B0935C038FE091E039
:1044F000909356038093550385EC90E0909362036C
:104500008093610384EC90E0909364038093630351
:1045100080EC90E0909366038093650381EC90E0DB
:10452000909368038093670382EC90E090936A0312
:104530008093690386EC90E090936C0380936B0307
:1045400010926E0310926F03109270031092710319
:104550008DE691E09093140780931307109218074B
:104560001092190710921A0710921B07C12CD12C18
:1045700040E8E42E4FE3F42EC0921C07D0921D07B2
:10458000E0921E07F0921F078DE491E09093D00611
:104590008093CF0681E08093D6061092DF061092BA
:1045A000E0061092E1061092E2061092E3061092E5
:1045B000E4061092E5061092E6061092E7061092C5
:1045C000E8061092E9061092EA061092EB061092A5
:1045D000EC061092ED061092EE061092EF06109285
:1045E000F0061092F1061092F206C092F306D092F5
:1045F000F406E092F506F092F6061092D2061092BA
:10460000D3061092D4061092D50681E090E09093E4
:10461000FC068093FB068FEF8093FE061092F70650
:104620001092F8061092F9061092FA0684E0809330
:10463000D70696E09093D8068093D90685E08093BC
:10464000DA061092FD0610920307109204071092EA
:10465000050710920607109207071092080710929C
:10466000090710920A0710920B0710920C0710927C
:104670000D0710920E07C0920F07D0921007E0921C
:104680001107F09212071092D1061092DB061092D9
:10469000DC061092DD061092DE068FEC96E00E949A
:1046A000E916C701B6010E94B01CA70196016091EE
:1046B000EB067091EC068091ED069091EE060E945B
:1046C0005837882319F1C092EB06D092EC06E0929D
:1046D000ED06F092EE0680E094E2A4E7B9E4809360
:1046E0000F0790931007A0931107B09312078091C2
:1046F000030790910407A0910507B09106071816CB
:1047000019061A061B0614F40E94551A10929D06EB
:1047100010929C0620EF30E030939F0620939E0677
:1047200080E491E09093A1068093A0063093A306C5
:104730002093A2069093A5068093A4061092B0063B
:104740001092A7061092A6061092A9061092A8062B
:1047500081E08093AF068093AE062FEF3FEF30935A
:10476000AD062093AC063093AB062093AA06809347
:10477000B1061092B2061092B4061092B30681E20E
:1047800091E090939B0680939A0680E1809388063F
:104790008FE080938A0686E08093890687E0809385
:1047A0008B068CE291E090938D0680938C06EBEF64
:1047B000FCE0E491F0E0EE0FFF1FE651F34F85912E
:1047C000949190938F0680938E06E4E0FDE0E4914F
:1047D000F0E0EE0FFF1FE651F34F85919491909317
:1047E000910680939006E3E0FDE0E491F0E0EE0FA7
:1047F000FF1FE651F34F8591949190939306809318
:104800009206EAEFFCE0E491F0E0EE0FFF1FE651C4
:10481000F34F859194919093950680939406EDEDD6
:10482000FCE0E491E0939606E6EEFCE0E491E09390
:104830009806E5EEFCE0E491E0939706ECEDFCE0F1
:10484000E491E09399068AE090E090938706809344
:104850008606109269061092680610924B06109216
:104860004A0610922D0610922C0610920F061092F6
:104870000E061092F1051092F0051092D3051092D9
:10488000D2051092B5051092B405109297051092BA
:104890009605109279051092780510925B0510929A
:1048A0005A0510923D0510923C0510921F0510927A
:1048B0001E0510920105109200051092E30410925B
:1048C000E2041092C5041092C4041092A70410923E
:1048D000A604109289041092880410926B0410921E
:1048E0006A0410924D0410924C0410922F041092FE
:1048F0002E0410921104109210041092F3031092DF
:10490000F203FF90EF90DF90CF900895CF93DF9365
:1049100000D000D0CDB7DEB7789484B5826084BD76
:1049200084B5816084BD85B5826085BD85B58160B3
:1049300085BD80916E00816080936E001092810031
:1049400080918100826080938100809181008160EC
:1049500080938100809180008160809380008091AD
:10496000B10084608093B1008091B0008160809339
:10497000B00080917A00846080937A0080917A0000
:10498000826080937A0080917A00816080937A00BF
:1049900080917A00806880937A001092C100E09143
:1049A0006503F091660382E08083E0916103F091FA
:1049B00062031082E0916303F091640380E18083DD
:1049C00010926D03E0916903F0916A0386E08083A1
:1049D000E0916703F0916803808180618083E091BA
:1049E0006703F0916803808188608083E0916703AA
:1049F000F0916803808180688083E0916703F09183
:104A0000680380818F7D80836DEA71E085E593E0A6
:104A10000E94411D61E771E085E593E00E94411D20
:104A200020E030E046E954E46091EB067091EC063A
:104A30008091ED069091EE060E945837882339F157
:104A400080E090E0A6E9B4E48093EB069093EC0656
:104A5000A093ED06B093EE0685E595E5A0E5B4E4F8
:104A600080930F0790931007A0931107B09312073C
:104A70008091030790910407A0910507B091060764
:104A8000181619061A061B0614F40E94551A20E07F
:104A900030E04AE754E46091E7067091E8068091BF
:104AA000E9069091EA060E9458378823E9F1809040
:104AB000EB069090EC06A090ED06B090EE06750126
:104AC0006401F7FAF094F7F8F09420E030E04AE758
:104AD00054ECC501B4010E94583787FD0CC020E09A
:104AE00030E04AE754E4C501B4010E94583787FF1B
:104AF000E1C07501640120E030E0A901C701B60101
:104B00000E9458378111DCC01092D2061092D30651
:104B10001092D4061092D506C092E706D092E8060D
:104B2000E092E906F092EA0660E070E086E994E43B
:104B30000E94B01C62EC71E085E593E00E94411D8B
:104B400061E771E085E593E00E94411D6EED71E043
:104B500085E593E00E94951E84E190E00E949C1DF3
:104B600064EE71E085E593E00E94951E85E190E09A
:104B70000E949C1D90E080E00E946C36898381E059
:104B800090E00E946C368A8382E090E00E946C364E
:104B90008B8383E090E00E946C368C8389819A81BC
:104BA000AB81BC8180931C0790931D07A0931E07C7
:104BB000B0931F0785E18093150784E18093160762
:104BC00061E085E10E942F0760E0809116070E9456
:104BD0002F0781E08093170760E090E080E00E945B
:104BE000BD097C01883024E5920769F1803244E5F3
:104BF000940749F18938994809F464C160E087E66F
:104C000090E00E94BD0977E4E72E73E8F72E873421
:104C10009744C9F08FEE90E00E943A0A7B01673218
:104C2000734989F081EA90E00E941B0A6130E1E655
:104C30007E0709F44CC16F3F760709F063C046E276
:104C4000E42E45E1F42E0E9491091092B6061092CE
:104C5000B506F092BA06E092B90681E3E81680E85C
:104C6000F80611F40C94203108F01EC2A3E5EA16F0
:104C7000A0E2FA0611F40C947E3108F09EC1E1E145
:104C8000EE16E5E1FE0609F40BC308F04BC129E975
:104C9000E216F10411F40C94313108F02CC180E0DB
:104CA00091E1EA94EF2809F434C110929F06109222
:104CB0009E06F3C2C12CD12C5AE7E52E54E4F52E02
:104CC000A701960160E074E284E799E40E945D37F1
:104CD0009F770E94D6376093D2067093D306809355
:104CE000D4069093D506BB24B39420E030E0A9010C
:104CF000C701B6010E94B73818160CF0B12CB0925B
:104D0000D1060ACF61152FEF720729F430E2E32EA6
:104D100035E1F32E98CF51EAE52E55E0F52E6115D9
:104D2000704F09F490CF8FEB90E00E943A0A7B011C
:104D30006735734809F487CF81E8E81684E9F806F7
:104D400009F481CF91E1E91695E1F90609F47BCFE9
:104D5000A0E2EA16A5E1FA06C9F2B6E2EB16B5E161
:104D6000FB0609F46CCFE1E8EE16E5E1FE0609F476
:104D70006ACFE114F4E1FF0609F4AEC084ED90E0DF
:104D80000E941B0A7B016031734509F45CCF87EDFB
:104D900090E00E941B0A7B016133704809F453CFF5
:104DA0008EEF90E00E941B0A672F782F892F99279A
:104DB0007B016335704209F446CF84E090E00E94A5
:104DC0001B0A7B01833E31F4672B61F5E12C33EE46
:104DD000F32E39CF811126C0E11480E8F80611F5D1
:104DE0008091080190910901A0910A0189839A8319
:104DF000AB83AE014F5F5F4F63E089EB90E00E94B1
:104E0000270960E080ED90E00E94BD09B9E9EB2E32
:104E1000F12C893909F417CF8039E1F4A0E9EA2EA1
:104E2000FE2C11CF96E2E91695E1F90609F407CFB9
:104E3000A0EFEA16A9E8FA0609F453C0B2E5EB16AA
:104E4000B5E8FB0609F452C0E1E1EE16ECEAFE0615
:104E500009F4F9CE83ED90E00E941B0A672F782FAA
:104E6000892F99277B016336714909F4ECCE83EDD4
:104E700090E00E941B0A872FE62EF72E29E2E21609
:104E800022E3F20609F4DFCE8359823008F4DBCE48
:104E9000783909F4D8CE773709F4D5CE763109F4CC
:104EA000D2CE43EDE416F10409F4CDCE53EDE51670
:104EB000F50609F4C8CE60E090E080E00E94BD09EC
:104EC0007C01C1CEE9E8EE2EE2E1FE2EBCCE63E627
:104ED000E62E69E1F62EB7CE44E1E42E48E6F42E44
:104EE000B2CE25E3E22E27E7F22EADCE99E8E92EE9
:104EF00097E7F92EA8CE84E5E81681E0F80609F4D4
:104F0000C0C195E0E91695E1F90609F0CECE84E03E
:104F100090E19093B8068093B70668ED70E086E163
:104F20009AE0B9C1A1E8EA16A5E1FA0611F40C94D9
:104F30009231D0F4E0E2EE16E5E1FE0611F40C94B5
:104F4000C930F6E2EF16F5E1FF0609F0AECE83E1D7
:104F500094E09093B8068093B7060CE010E0A5ECBF
:104F6000EA2EA7E0FA2EB4C122E0E21626E1F2060C
:104F700011F40C94703143E6E41649E1F40609F0AB
:104F800094CE81E08093210383E59AE09093B80664
:104F90008093B70680EE91E09093A1068093A006DF
:104FA00080E293E090939F0680939E0603E510E0D5
:104FB000F2E7EF2EF7E0FF2E8BC159E0E51658E639
:104FC000F50611F40C944A3148F595E3E91695E499
:104FD000F90611F40C94D63098F4B9E2EB16B2E36A
:104FE000FB0609F062CE83E096E09093B8068093CA
:104FF000B70600E410E0E2E3EE2EE7E0FE2E68C123
:10500000E0E1EE16E3E5FE0611F40C94E130F8E081
:10501000EF16F4E5FF0609F47ACF47CE29E8E21649
:1050200027E7F20611F40C941331C0F454E1E516AD
:1050300058E6F50611F40C94FA3083E8E81687E791
:10504000F80609F032CE82E091E19093B8068093A1
:10505000B70668E870E08EEE9AE01DC193E9E916A4
:1050600097E7F90611F40C94C931A6E9EA16A7E707
:10507000FA0609F01ACE83E094E09093B806809384
:10508000B70680EE91E09093A1068093A00680E49D
:1050900091E090939F0680939E060DE010E072EAE7
:1050A000E72E75E0F72E14C1B8E3EB16B3E9FB0663
:1050B00011F40C948A3108F063C0F5E2EF16F3E9BD
:1050C000FF0609F44AC0A0F540E9E416F40611F41D
:1050D0000C942D31F8F487E5E81683E8F80609F01A
:1050E000E4CD83E094E19093B8068093B70680EE18
:1050F00091E09093A1068093A00680E491E09093C4
:105100009F0680939E0602E010E038EDE32E36E025
:10511000F32EDEC092E0E91693E9F90611F40C943F
:105120008631A0E2EA16A3E9FA0609F4F0CEBDCD75
:10513000B9E2EB16B3E9FB0611F40C948E3188F456
:10514000F7E2EF16F3E9FF0611F40C94563128E26A
:10515000E21623E9F20609F0A8CD80E091E10C9473
:105160004C3141E3E41643E9F40631F055E3E5162A
:1051700053E9F50609F099CD80E090E10C944C31AB
:1051800089E8E81684E9F80608F044C097E8E916CB
:1051900094E9F90610F00C94AF31A1E8EA16A4E9FD
:1051A000FA0611F40C94AC31B0F4E0E4EE1AE3E941
:1051B000FE0AF2E0EF16F10408F077CD83E194E007
:1051C0009093B8068093B70605E610E0AFE2EA2EAA
:1051D000A6E0FA2E7DC026E8E21624E9F20609F0E0
:1051E00064CD83E094E09093B8068093B70680EE98
:1051F00091E09093A1068093A00680E491E09093C3
:105200009F0680939E060BE310E0EFEAEE2EE5E0AA
:10521000FE2E5EC049E0E41645EBF40611F40C9452
:10522000C931C0F481E1E8168CEAF80611F40C9457
:10523000823195E0E91695EBF90609F036CD88E064
:1052400090E19093B8068093B70660EB70E08AE92E
:1052500098E021C0A5E0EA16A5ECFA0681F383E107
:105260009EE0E114B3EEFB0609F01FCD9093B80663
:105270008093B70603E010E0B4E9EB2EB6E0FB2E16
:1052800027C082E090E19093B8068093B7066CE95E
:1052900070E082E19CE00E946E0AF12CE12C18C0C3
:1052A00083E090E09093B8068093B70680EE91E09B
:1052B0009093A1068093A00680E491E090939F06CE
:1052C00080939E0603E010E087EDE82E87E0F82E3D
:1052D0002091B806822F82958F7090E08170992777
:1052E0009093BC068093BB06E114F10481F069E061
:1052F00070E08EE695E00E94DB08B801C7010E94CD
:10530000DB0866E070E088E695E00E94DB0860E07C
:105310008AE996E00E94E50C60E08AE996E00E9446
:10532000900A8091B9069091BA068838944909F09C
:1053300016C11092200320EE3FEF50E040E070E0F5
:1053400060E08AE996E00E945B0CF090C506E09070
:10535000C6068091B70680FF03C05EE2F52EE12C01
:105360008091B9069091BA068230964119F44EE2C6
:10537000F42EE12C10E000E030E020E050E040E0CE
:1053800070E060E08AE996E00E94D30A8091B70657
:1053900080FD10C070E060E08091C1069091C2066F
:1053A0000E94580970E060E08091C3069091C406A5
:1053B0000E9458094398429885B18C7F9E2D937026
:1053C000892B85B99BB193702E2D2C7FE22EE92A73
:1053D000EBB84198419A85B18C7F9F2D9370892BB2
:1053E00085B99BB193704F2D4C7FF42EF92AFBB8F1
:1053F0004198419A429A84B18C7F84B98AB1837072
:105400008AB92091B7063091B8068091B90690917B
:10541000BA0626FD0EC0409A40984098409843B185
:1054200049B1409A20FD05C0893852E1950709F03D
:10543000C4C78131954139F4409A409840984098CA
:1054400083B189B1409AB90164707727409A409836
:105450004098409824FFCEC793B189B193708C7F58
:10546000982B409A409A40984098409843B189B10F
:1054700043708C7F482B409A409A409840984098BF
:1054800083B1E9B08370BE2DBC7F8B2B409A50E076
:10549000672B09F49AC7E82EF12CFE2CEE24EE249B
:1054A000E8EFFE2233E0440F551F3A95E1F7407EC6
:1054B0005770E42AF52A969596959695E92A809153
:1054C0002003882399F0C701E5E096958795EA9532
:1054D000E1F780729927A701569547954F71552797
:1054E000842B952B50ECE522E82AF92A409A439A1E
:1054F00084B1836084B98AB18C6F8AB920FD14C0ED
:105500000091A4061091A506015011092091A20650
:105510003091A3062150310950E040E070E060E096
:105520008AE996E00E94D30A8FE1E8168FEFF80629
:10553000B1F486E08983AE014F5F5F4F61E08AE39B
:1055400090E00E9427098091B7069091B8068F7E5F
:105550009093B8068093B70681E08093200360E0C3
:105560008AE996E00E94E50C70E060E08AE996E046
:105570000E94E61BBAE9EB2EB6E0FB2E8FEF9FEF01
:105580009093AB068093AA061092AD061092AC06DB
:1055900012E0612E6092AE066092AF061092A706EE
:1055A0001092A6061092A9061092A8068AEE91E023
:1055B0009F938F938FEF91E09F938F938CE393E072
:1055C0009F938F930E94C23A6CE373E0C7010E94DD
:1055D000951EA4E1B0E0B0936B06A0936A0600E5C7
:1055E00010E010936D0600936C0610936F06009305
:1055F0006E06109371060093700680EE882E992433
:105600009A94909275068092740690EEA92E97E077
:10561000B92EB0927706A0927606C12C28EFD22E32
:10562000D0927906C092780633E0732E709272069B
:1056300070927306F0926906E092680649E050E0C5
:1056400065E072E08AE796E00E94B33A1092830622
:1056500048E7242E312C30924D0620924C061093B0
:105660004F0600934E061093510600935006109378
:105670005306009352069092570680925606B092B7
:105680005906A0925806D0925B06C0925A067092B4
:10569000540670925506F0924B06E0924A0649E095
:1056A00050E060EC71E08CE596E00E94B33A109215
:1056B0006506ECEDF0E0F0932F06E0932E061093D4
:1056C0003106009330061093330600933206109390
:1056D0003506009334069092390680923806B092CF
:1056E0003B06A0923A06D0923D06C0923C067092CC
:1056F000360670923706F0922D06E0922C0649E0AD
:1057000050E06DEF71E08EE396E00E94B33A1092A4
:10571000470644E150E0509311064093100684EB95
:1057200090E0909313068093120610931506009351
:105730001406109317060093160690921B0680928B
:105740001A06B0921D06A0921C06D0921F06C092A7
:105750001E067092180670921906F0920F06E092DB
:105760000E0649E050E067E072E080E296E00E94B9
:10577000B33A109229063092F3052092F205A4EB79
:10578000B0E0B093F505A093F4051093F7050093EE
:10579000F6051093F9050093F8059092FD058092A7
:1057A000FC05B092FF05A092FE05D0920106C092C2
:1057B00000067092FA057092FB05F092F105E092F6
:1057C000F00549E050E069E072E082E096E00E9476
:1057D000B33A10920B06ECEDF0E0F093D505E093B0
:1057E000D40544EB50E05093D7054093D605109371
:1057F000D9050093D8051093DB050093DA05909244
:10580000DF058092DE05B092E105A092E005D0921E
:10581000E305C092E2057092DC057092DD05F0921E
:10582000D305E092D20549E050E06BE072E084EEEF
:1058300095E00E94B33A1092ED0584E190E09093D8
:10584000B7058093B60558E1452E552453945092E0
:10585000B9054092B8051093BB050093BA051093A3
:10586000BD050093BC059092C1058092C005B09221
:10587000C305A092C205D092C505C092C40570921E
:10588000BE057092BF05F092B505E092B40549E0FF
:1058900050E06DE072E086EC95E00E94B33A109221
:1058A000CF05309299052092980550929B05409221
:1058B0009A0510939D0500939C0510939F050093F6
:1058C0009E059092A3058092A205B092A505A09294
:1058D000A405D092A705C092A6057092A00570926B
:1058E000A105F0929705E092960549E050E06FE03F
:1058F00072E088EA95E00E94B33A1092B105ACEDEF
:10590000B0E0B0937B05A0937A0550927D0540925C
:105910007C0510937F0500937E051093810500930D
:1059200080059092850580928405B0928705A092AB
:105930008605D0928905C092880570928205709282
:105940008305F0927905E092780549E050E061E145
:1059500072E08AE895E00E94B33A10929305309283
:105960005D0520925C056CE7262E3324339430923B
:105970005F0520925E05109361050093600510930A
:105980006305009362059092670580926605B09268
:105990006905A0926805D0926B05C0926A05709265
:1059A000640570926505F0925B05E0925A0549E046
:1059B00050E063E172E08CE695E00E94B33A109209
:1059C0007505E4E1F0E0F093C704E093C60410939A
:1059D000C9040093C8045092CB044092CA041093A7
:1059E000CD040093CC049092D1048092D004B09264
:1059F000D304A092D204D092D504C092D404609271
:105A0000CE046092CF04F092C504E092C40489E011
:105A1000E5E1F2E0A6EDB4E001900D928A95E1F7A0
:105A20001092DF0444E150E05093A9044093A8048D
:105A300084EB90E09093AB048093AA045092AD0461
:105A40004092AC041093AF040093AE049092B30460
:105A50008092B204B092B504A092B404D092B7047C
:105A6000C092B6047092B0047092B104F092A70490
:105A7000E092A60449E050E065E272E088EB94E031
:105A80000E94B33A1092C104A4E1B0E0B0938B0439
:105A9000A0938A0450928D0440928C0450928F04FB
:105AA00040928E0410939104009390049092950478
:105AB00080929404B0929704A0929604D092990494
:105AC000C09298047092920470929304F0928904A8
:105AD000E092880489E0EBE2F2E0AAE9B4E0019008
