:100000000C94BA070C94EB070C94EB070C94EB07D9
:100010000C94EB070C94EB070C94EB070C94EB0798
:100020000C94EB070C94EB070C94EB070C94EB0788
:100030000C94EB070C94EB070C94EB070C94EB0778
:100040000C94EB070C94EB070C94EB070C94EB0768
:100050000C94EB070C94EB070C94EB070C9406281C
:100060000C94EB070C947A280C9450280C94EB0712
:100070000C94EB070C94EB070C94EB070C94EB0738
:100080000C94EB070C94EB070C94EB070C94EB0728
:100090000C94EB070C94EB070C94EB070C94EB0718
:1000A0000C94EB070C94EB070C94EB070C94EB0708
:1000B0000C94EB070C94EB070C94EB070C94EB07F8
:1000C0000C94EB070C94EB070C94EB070C94EB07E8
:1000D0000C94EB070C94EB070C94EB070C94EB07D8
:1000E0000C94EB070C94421F0C94CA200C9421131F
:1000F0000C947E090C9415080C940B080C94171F93
:100100000C94721E0C941D1E0C94AF090C944208A2
:100110000C941E1D0C94650E0C941D080C94A109E2
:100120000C944B080C94421C0C942A080C944C0818
:100130000C94B0280C94981D0C94551D0C94850AB1
:100140000C94A41E0C9402280C9430080C943E08C5
:100150000C9450080C9420080C94731D0C942C22C1
:100160000C94B7110C94411F0C949C1D0C943408F2
:100170000C9451090C94340A0C94F81E0C945E1CD7
:100180000C94211D0C9438080C94A01D0C94331F62
:100190000C94511E0C948D090C943A1F0C941E1F44
:1001A0000C9411080C94FC170C9446080C94A61D92
:1001B0000C9481150C94F51A0C943D0F0C94521C60
:1001C0000C9426080C94711C0C94BA1E0C941908FB
:1001D0000C941D1D0C949A1D0C94E7090C94042892
:1001E0000C94A41D0C946E150C94A21D0C942C1F41
:1001F0000C94CE180C94FC1D0C940F1F0C94251F0E
:100200000C949E1D0C946A1C0C94411C0000000070
:10021000003E5B4F5B3E3E6B4F6B3E1C3E7C3E1C8C
:10022000183C7E3C181C577D571C1C5E7F5E1C00D2
:10023000183C1800FFE7C3E7FF0018241800FFE789
:10024000DBE7FF30483A060E2629792926407F054C
:100250000507407F05253F5A3CE73C5A7F3E1C1C62
:1002600008081C1C3E7F14227F22145F5F005F5F22
:1002700006097F017F006689956A6060606060940E
:10028000A2FFA29408047E040810207E2010080813
:100290002A1C08081C2A08081E101010100C1E0C1E
:1002A0001E0C30383E3830060E3E0E0600000000B0
:1002B0000000005F00000007000700147F147F1497
:1002C000242A7F2A122313086462364956205000DC
:1002D00008070300001C2241000041221C002A1CC8
:1002E0007F1C2A08083E08080080703000080808B3
:1002F0000808000060600020100804023E514945D3
:100300003E00427F400072494949462141494D33F0
:100310001814127F1027454545393C4A4949314157
:10032000211109073649494936464949291E000025
:10033000140000004034000000081422411414147A
:100340001414004122140802015909063E415D5966
:100350004E7C1211127C7F494949363E414141226F
:100360007F4141413E7F494949417F090909013E99
:10037000414151737F0808087F00417F41002040C0
:10038000413F017F081422417F404040407F021CD2
:10039000027F7F0408107F3E4141413E7F090909E9
:1003A000063E4151215E7F091929462649494932B5
:1003B00003017F01033F4040403F1F2040201F3F7B
:1003C0004038403F63140814630304780403615900
:1003D000494D43007F414141020408102000414142
:1003E000417F0402010204404040404000030708EE
:1003F0000020545478407F284444383844444428EA
:10040000384444287F385454541800087E09021890
:10041000A4A49C787F0804047800447D4000204018
:10042000403D007F1028440000417F40007C04785C
:1004300004787C080404783844444438FC182424A4
:100440001818242418FC7C08040408485454542424
:1004500004043F44243C4040207C1C2040201C3CA1
:100460004030403C44281028444C9090907C446498
:10047000544C44000836410000007700000041362B
:10048000080002010204023C2623263C1EA1A161B1
:10049000123A4040207A38545455592155557941E3
:1004A0002254547842215554784020545579400CB8
:1004B0001E5272123955555559395454545939559B
:1004C0005454580000457C410002457D42000145DE
:1004D0007C407D1211127DF0282528F07C54554572
:1004E000002054547C547C0A097F493249494932DE
:1004F0003A4444443A324A4848303A4141217A3AEF
:1005000042402078009DA0A07D3D4242423D3D40BA
:1005100040403D3C24FF2424487E4943662B2FFC69
:100520002F2BFF0929F620C0887E09032054547917
:10053000410000447D413048484A32384040227AE8
:10054000007A0A0A727D0D19317D2629292F282665
:100550002929292630484D4020380808080808086D
:100560000808382F10C8ACBA2F102834FA00007BC6
:10057000000008142A142222142A140855005500D9
:1005800055AA55AA55AAFF55FF55FF000000FF00C8
:10059000101010FF00141414FF001010FF00FF10C3
:1005A00010F010F0141414FC001414F700FF0000F5
:1005B000FF00FF1414F404FC141417101F10101F74
:1005C000101F1414141F00101010F0000000001F62
:1005D000101010101F10101010F010000000FF106D
:1005E0001010101010101010FF10000000FF140069
:1005F00000FF00FF00001F10170000FC04F414149B
:100600001710171414F404F40000FF00F714141466
:1006100014141414F700F7141414171410101F10E6
:100620001F141414F4141010F010F000001F101F09
:100630000000001F14000000FC140000F010F01077
:1006400010FF10FF141414FF141010101F000000EE
:1006500000F010FFFFFFFFFFF0F0F0F0F0FFFFFFF2
:100660000000000000FFFF0F0F0F0F0F3844443849
:1006700044FC4A4A4A347E02020606027E027E0298
:1006800063554941633844443C04407E201E2006A3
:10069000027E020299A5E7A5991C2A492A1C4C72E0
:1006A00001724C304A4D4D303048784830BC625A67
:1006B000463D3E494949007E0101017E2A2A2A2AF7
:1006C0002A44445F444440514A444040444A5140D3
:1006D0000000FF0103E080FF000008086B6B083694
:1006E00012362436060F090F060000181800000005
:1006F0001010003040FF0101001F01011E00191DF4
:100700001712003C3C3C3C000000000011007F96AA
:10071000290001007F9628003A0155C0021010C13F
:100720000141C50400228040360168B00100B102D9
:10073000B011B40102B60302023BB701C63A01553B
:10074000F704A9512C82B701C6E808408A000029A5
:1007500019A533C0020D0DC1024300C20100C5043A
:1007600000480048B40100B60302023BE00F0F212D
:100770001C0B0E08499838091103141000E10F0FE3
:100780002F2B0C0E06477637071104231E00B001ED
:1007900000B30402000000B40100D003074218D1E6
:1007A00003000710D2020102D3020102D4020102A7
:1007B000C005123B000211C103101088C50103C619
:1007C0000102C80C003236450616377577540C0006
:1007D000CC0100F603010100CF03008130ED046479
:1007E000031281E803851078CB05392C003402F719
:1007F0000120EA020000B00100B102001BB40100B8
:10080000C00121C10111C5023F3CC701B5360148F5
:10081000F20100260101E00F0F26240B0E0954A857
:10082000460C17090F0700E10F00191B0410072AD7
:10083000473903060630380F360100B80101C00100
:100840000EB00100C10410100202C0060035000005
:100850000102C50104D2020104CA0100EA0180B903
:1008600003FF83577F967F96B60125C0065050013F
:100870003C1E08B4070240002A2A0D787F01F20BC3
:100880001616030808080810041616FD0311023591
:10089000B2050C0C003333B70135BB012BC001048A
:1008A000C20201FFC30111C40120C6010FD002A47E
:1008B000A1E00ED000050E150D374347091512169D
:1008C00019E10ED000050D0C062D44400E1C181623
:1008D000193A01557F0A06000700B1020012B4015F
:1008E00002B60400202700CA0101CB0103C0011396
:1008F0007F14C501CCC60100C70104C80103CC01A7
:1009000006CD011CF9021515F3030A020AF60301CC
:100910001000FA00FB00E2031E0254E001017F0A0E
:10092000E001037F0A01007F64E60303FFFFB007D5
:100930002400031F01DF00B40803A0002E30000FC5
:1009400000B607020D0010100008BA010FB8020728
:1009500001F001007F01280011007F642900BE061C
:1009600006F001F00000D0010DB00103E2013FC02C
:100970000122E20100B00100C0010AB00100000044
:100980000000000000000000000000000000FFFF69
:100990000F0000040062080008080003000C0103B7
:1009A0000B5A02030609030317100403002305036F
:1009B0000017060309630703090C08030C10090359
:1009C0003222100016001100010112000000130075
:1009D000010000013003010137020301000D800214
:1009E00000610201B0C1FFFF3200010000010200FE
:1009F000000103003010090001000C00000090000D
:100A000000800F000000100200001102EF0012022F
:100A1000000013028F01000500000105000002051F
:100A20005F000104010004040000FFFF3200070022
:100A30000001FFFF32000002000001020000000080
:100A40000000000000000000000000000100A40001
:100A50000100FFFF0A0060000027080008083000BE
:100A6000140231001537320004063300160E34002C
:100A700011223500001536000785370007143800AD
:100A8000031439002000900015001000100411001C
:100A90003702290046002A00460007000000120025
:100AA000890113000011FFFF96001200B901010037
:100AB00000010200000203003010090001000A00DA
:100AC00000000D0000000E003000610001006A000F
:100AD0000000800000008100000082005F009200A2
:100AE000000193000107FFFF500007000001E5002F
:100AF000F078010000010200000203003010040041
:100B000000000500000008000702090000000A00BC
:100B100000000C0000000D0000000F00000010009D
:100B20000000110007001200000013000000070081
:100B30000100FFFFC8001000901611002702FFFF00
:100B4000320012000D00FFFF3200130000122900D6
:100B50000A002B000D00FFFF3200200000002100E2
:100B600000003000000031000404320003003500B2
:100B7000050436000808370007043800030339006D
:100B800007073C0004053D000808600000276100DD
:100B900001006A0000008000000081000000820067
:100BA0000000830000008400000085000000900029
:100BB00010009200000007003301E50000800000F3
:100BC00001000100000102000007030030100400D2
:100BD000000008000202090000000A0000000C00EA
:100BE00000000D0000000F000000100000001100C8
:100BF00007001200000013000000FFFF3200100089
:100C0000B01711000700FFFF0A0012003A01FFFFB2
:100C10000A001300001A29000C00FFFF0A00300030
:100C200000003100050532000400350006003600E2
:100C300007073700050138000200390007073C00AC
:100C400004073D000708600000A7610001006A007A
:100C50000000210000002000000080000000810052
:100C60000000820000008300000084000000850076
:100C70000000900010009200000093000300950017
:100C80001001970000009800000007007301FFFFAB
:100C900032000100000102000007030030100800CC
:100CA0000203090000000A00080010000000110003
:100CB00005001200000013000000FFFF6400100098
:100CC000B012FFFF320011000700FFFF32001200D8
:100CD0008C001300001729002000FFFF32003000B5
:100CE0000000310006013200010135000601360026
:100CF00003023700000038000707390004023C00F7
:100D000006013D000301600000A7610001009000A2
:100D1000300007003301FFFF3200150030009A0059
:100D200010001100200010002834120002001300EF
:100D30003810FFFF280012001200FFFF28001000EB
:100D4000203413004530FFFF460030000000310022
:100D500002043200070333000403340004003500AA
:100D60000104360007073700050338001006390074
:100D7000100601000001020000030300301008000B
:100D800008080A00080060000027610001009000C8
:100D90003E019200000193000001A0000030A3007A
:100DA00010000700010007002100070023000700D2
:100DB00033000700330111001A0012002131130023
:100DC0006C001400494210000008FFFF0A001100E7
:100DD0001A01FFFF0A0011001A03FFFF0A001100A9
:100DE0001A07FFFF0A0011001A0FFFFF0A00110087
:100DF0003A0FFFFF1E00010028010200000103005E
:100E0000301007001210080003030B0000110C0043
:100E100000000F00011815002000500001015100D2
:100E20000306520008045300000054000506550054
:100E3000060456000303570003035800100059002E
:100E4000001007001200FFFF280007001300070032
:100E5000170000002100240027002A002D00300088
:100E6000330001010000040107010A010000200015
:100E70002300260029002C002F0032000001000072
:100E800003010601090100000A0B02090C0D0E08FE
:100E90000703040100000000000000000000000043
:100EA0000000000000000000000000000000000042
:100EB00000001211100000000000000000000000FF
:100EC00000000000000000000000000001021020EF
:100ED0002008081020401020408002010201080470
:100EE0000201010204081020408080402010080404
:100EF000020180040201804020100804020108045D
:100F000002010102040810204080010204081020A0
:100F1000408000002200250028002B002E00310018
:100F2000340002010000050108010B01050505055B
:100F3000070508080808020202020A0A0808040451
:100F4000040401010101010101010303030303037F
:100F50000303040707070C0C0C0C0C0C0C0C02020E
:100F6000020206060606060606060B0B0B0B0B0B0B
:100F70000B0BB02811241FBECFEFD1E2DEBFCDBFD7
:100F800000E00CBF14E0A0E0B2E0E6E0FBE800E027
:100F90000BBF02C007900D92A032B107D9F728E02D
:100FA000A0E2B4E001C01D92A634B207E1F717E059
:100FB000CAEBD7E000E006C021970109802FFE01AF
:100FC0000E94CC3EC93BD10780E00807A9F70E94E8
:100FD000D82A0C9481450C9400008150823108F08D
:100FE0005AC0E82FF0E08827E750F84F8F4F0C9455
:100FF000CC3E19081D080B08110815084B082008DD
:1010000026082A083008340838083E0842084B08E9
:1010100046084C085008809180008F7780938000AC
:101020000895809180008F7DF9CF80918000877F27
:10103000F5CF84B58F7784BD089584B58F7DFBCFC0
:101040008091B0008F778093B00008958091B000B8
:101050008F7DF9CF809190008F77809390000895D5
:10106000809190008F7DF9CF80919000877FF5CFA0
:101070008091A0008F778093A00008958091A000B8
:101080008F7DF9CF8091A000877FF5CF80912001DF
:101090008F77809320010895809120018F7DF9CF73
:1010A00080912001877FF5CFCF93DF93282F30E009
:1010B000F901EA57F14F8491F901E453F14FD491CA
:1010C000F901E45DF04FC491CC23A1F081110E949D
:1010D000ED07EC2FF0E0EE0FFF1FE459F14FA59163
:1010E000B491EC91ED2381E090E009F480E0DF9190
:1010F000CF91089580E090E0FACF1F93CF93DF93D4
:10110000282F30E0F901EA57F14F8491F901E453B7
:10111000F14FD491F901E45DF04FC491CC23A9F0D3
:10112000162F81110E94ED07EC2FF0E0EE0FFF1F4C
:10113000EE5EF04FA591B4918FB7F894EC91111138
:1011400008C0D095DE23DC938FBFDF91CF911F9134
:101150000895DE2BF8CFCF93DF9390E0FC01E453AA
:10116000F14F2491845D904FFC0184918823D1F04C
:1011700090E0880F991FFC01EE5AF14FA591B491B0
:10118000FC01EE5EF04FC591D49161110EC09FB786
:10119000F8948C91E22FE0958E238C932881E223A2
:1011A000E8839FBFDF91CF9108958FB7F894EC91BA
:1011B000E22BEC938FBFF6CF863308F08653209155
:1011C0007B00982F9870277F922B90937B008770DD
:1011D000806480937C0080917A00806480937A00A0
:1011E00080917A0086FDFCCF809178009091790003
:1011F00008953FB7F8948091540490915504A091BC
:101200005604B091570426B5A89B05C02F3F19F08E
:101210000196A11DB11D3FBFBA2FA92F982F882776
:10122000BC01CD01620F711D811D911D42E0660F51
:10123000771F881F991F4A95D1F708958F929F9223
:10124000AF92BF92CF92DF92EF92FF926B017C013F
:101250000E94F9084B015C01C114D104E104F104BE
:10126000B9F00E94F908681979098A099B09683E52
:1012700073408105910580F321E0C21AD108E1088D
:10128000F10888EE880E83E0981EA11CB11CE4CF03
:10129000FF90EF90DF90CF90BF90AF909F908F9096
:1012A0000895AF92BF92CF92DF92EF92FF920F9389
:1012B0001F93CF93DF936C017B018B01040F151FEC
:1012C000EB015E01AE18BF08C017D10759F0699154
:1012D000D601ED91FC910190F081E02DC6011995A8
:1012E000892B79F7C501DF91CF911F910F91FF9065
:1012F000EF90DF90CF90BF90AF900895FC01538D99
:10130000448D252F30E0842F90E0821B930B5417DF
:1013100010F0CF96089501970895FC01918D828D6C
:10132000981761F0A28DAE0FBF2FB11D5D968C9105
:10133000928D9F5F9F73928F90E008958FEF9FEF44
:101340000895FC01918D828D981731F0828DE80F00
:10135000F11D858D90E008958FEF9FEF0895FC01BA
:10136000918D228D892F90E0805C9F4F821B910987
:101370008F739927089589E594E00E94AF0921E0D1
:10138000892B09F420E0822F0895FC01A48DA80F79
:10139000B92FB11DA35ABF4F2C91848D90E00196B7
:1013A0008F739927848FA689B7892C93A089B189D7
:1013B0008C91837080648C93938D848D981306C078
:1013C0000288F389E02D80818F7D80830895EF92DC
:1013D000FF920F931F93CF93DF93EC0181E0888FEF
:1013E0009B8D8C8D98131AC0E889F989808185FFBF
:1013F00015C09FB7F894EE89FF896083E889F98961
:1014000080818370806480839FBF81E090E0DF9162
:10141000CF911F910F91FF90EF900895F62E0B8DB5
:1014200010E00F5F1F4F0F731127E02E8C8D8E1170
:101430000CC00FB607FCFACFE889F989808185FFD7
:10144000F5CFCE010E94C509F1CFEB8DEC0FFD2F3A
:10145000F11DE35AFF4FF0829FB7F8940B8FEA8992
:10146000FB8980818062CFCFCF93DF93EC01888DA1
:101470008823B9F0AA89BB89E889F9898C9185FD0F
:1014800003C0808186FD0DC00FB607FCF7CF8C919D
:1014900085FFF2CF808185FFEDCFCE010E94C50987
:1014A000E9CFDF91CF91089580E090E0892B29F07A
:1014B0000E94BB0981110E94000080E090E0892B0E
:1014C00049F080E090E0892B29F00E940000811112
:1014D0000E94000080E090E0892B49F080E090E0DD
:1014E000892B29F00E94000081110E94000080E0F9
:1014F00090E0892B49F080E090E0892B29F00E9450
:10150000000081110C940000089508950F931F931B
:10151000CF93DF93EC018B01FE01849131966491AE
:1015200022968F3799F470E090E080E00E941E09C7
:1015300060E070E06E5F7F4F061B170B1016110600
:101540005CF3DF91CF911F910F9108958B988A984A
:1015500090910201977890930201A5989EB1977C93
:101560009EB94091020190E09C0155E0220F331F8B
:101570005A95E1F72076242B209302014EB19C016D
:10158000220F331F220F331F2073242B2EB944B395
:101590009C01220F331F2072242B24BB4EB19C01CF
:1015A00035952795359527952870242B2EB92091B0
:1015B0000201A3E095958795AA95E1F78871822BA2
:1015C000809302018998899A50E040E0461708F01C
:1015D00045C0FE01E40FF51FE4918A9A8091020153
:1015E000877880930201A5988EB1877C8EB970911F
:1015F00002018E2F90E09C01E5E0220F331FEA9557
:10160000E1F72076272B209302017EB19C01220F67
:10161000331F220F331F2073272B2EB974B39C0165
:10162000220F331F2072272B24BB7EB19C013595DE
:101630002795359527952870272B2EB9E091020123
:1016400023E0959587952A95E1F788718E2B8093F5
:1016500002018998899A4F5F5F4FB8CFC60FD11D9D
:101660008B9A67CF8B988A982091020127782093D4
:101670000201A5982EB1277C2EB970910201292F65
:1016800030E0F901A5E0EE0FFF1FAA95E1F7E07643
:10169000E72BE09302017EB1F901EE0FFF1FEE0F81
:1016A000FF1FE073E72BEEB974B3F901EE0FFF1FD4
:1016B000E072E72BE4BB7EB1F901F595E795F5956E
:1016C000E795E870E72BEEB970910201E3E03595FC
:1016D0002795EA95E1F72871272B20930201899835
:1016E000899A20910201277820930201A5982EB1B2
:1016F000277C2EB9709102019C01F5E0880F991F9B
:10170000FA95E1F78076872B809302017EB1C901BB
:10171000880F991F880F991F8073872B8EB974B318
:10172000C901880F991F8072872B84BB7EB1C901C4
:1017300095958795959587958870872B8EB980911B
:101740000201F3E035952795FA95E1F72871282BEA
:10175000209302018998899A8A9AFA01615008F4C3
:101760003EC0819190910201977890930201A598D3
:101770009EB1977C9EB94091020190E09C0155E09A
:10178000220F331F5A95E1F72076242B2093020174
:101790004EB19C01220F331F220F331F2073242BC5
:1017A0002EB944B39C01220F331F2072242B24BB7B
:1017B0004EB19C0135952795359527952870242B9A
:1017C0002EB92091020133E0959587953A95E1F77E
:1017D0008871822B809302018998899ABFCF8B9A56
:1017E00008958B988A98E2E0F1E0208127782083A1
:1017F000A5982EB1277C2EB9A081292F30E0A90110
:10180000B5E0440F551FBA95E1F740764A2B408367
:10181000AEB1A901440F551F440F551F40734A2B09
:101820004EB9A4B3A901440F551F40724A2B44BBC3
:10183000AEB1A901559547955595479548704A2BE6
:101840004EB9408153E0359527955A95E1F72871B7
:10185000242B20838998899A208127782083A59832
:101860002EB1277C2EB940819C01A5E0880F991FDD
:10187000AA95E1F78076842B80834EB1C901880F49
:10188000991F880F991F8073842B8EB944B3C901A7
:10189000880F991F8072842B84BB4EB1C901959526
:1018A0008795959587958870842B8EB98081B3E054
:1018B00035952795BA95E1F72871282B20838998CB
:1018C000899A8A9A808187788083A5988EB1877C4F
:1018D0008EB94081872F90E09C0155E0220F331F85
:1018E0005A95E1F72076242B20834EB19C01220FDC
:1018F000331F220F331F2073242B2EB944B39C01B6
:10190000220F331F2072242B24BB4EB19C0135952E
:101910002795359527952870242B2EB92081A3E093
:1019200095958795AA95E1F78871822B8083899890
:10193000899A808187788083A5988EB1877C8EB9BB
:101940004081CB019B01B5E0220F331FBA95E1F72F
:101950002076242B20834EB19B01220F331F220FB0
:10196000331F2073242B2EB944B39B01220F331F46
:101970002072242B24BB4EB19C01359527953595BB
:1019800027952870242B2EB92081A3E09595879563
:10199000AA95E1F78871822B80838998899A8B9A1E
:1019A000089581E080935804E1E0F1E08081886748
:1019B00080839D9A8DB188638DB9809A819A829A2D
:1019C000839A849A8B9A889A899A8C9A62E370E0B7
:1019D00080E090E00E941E098C9864E670E080E050
:1019E00090E00E941E098C9A64E670E080E090E02E
:1019F0000E941E0970E060E080EB90E00C94F10B17
:101A0000EF92FF920F931F93CF93DF93EC01E62E9B
:101A100080915804811102C00E94D10C8B988A9841
:101A200080910201877880930201A5988EB1877C0E
:101A30008EB980910201809302018EB18EB984B378
:101A400084BB8EB18EB98091020180930201899886
:101A5000899A80910201877880930201A5988EB1BE
:101A6000877C8EB920910201CE0115E0880F991F65
:101A70001A95E1F78076822B809302012EB1CE0178
:101A8000880F991F880F991F8073822B8EB924B3FA
:101A9000CE01880F991F8072822B84BB2EB1CE019C
:101AA00095958795959587958870822B8EB98091AD
:101AB000020153E0D595C7955A95E1F7C871C82B37
:101AC000C09302018998899A8A9A80910101877846
:101AD000809301019D988DB1877C8DB961E070E0A4
:101AE00080E090E00E941E0961E070E080E090E0FC
:101AF0000E941E09889A889888988898D091000139
:101B00001CB102B3CCB1F0900001889A61E070E0A2
:101B100080E090E00E941E09889A889888988898AA
:101B2000409100015CB1E2B39CB1F0910001889A50
:101B3000EA946FEFE612D8CF889A8B9A80910101D0
:101B40008867809301019D9A8DB188638DB984E087
:101B5000C89F900111242072332788E0F89EB001BD
:101B60001124607C7727262B602F70E07595679590
:101B700060717727262B612F70E0759567957595B5
:101B800067956C707727262B6D2F70E0B5E0759503
:101B90006795BA95E1F763707727262B64E0969FE7
:101BA000C0011124807298E0F99FB0011124607C7B
:101BB000862BE695E0718E2B569556955C70852B9D
:101BC00050E0C5E055954795CA95E1F74370842BE1
:101BD000922FDF91CF911F910F91FF90EF90089579
:101BE0000F931F93CF93DF938C0160E00E94000D51
:101BF000EC0161E0C8010E94000D8C01BE0190E083
:101C000080E0CB017727662730E020E0602B712B46
:101C1000822B932BDF91CF911F910F910895FF920B
:101C20000F931F93CF93DF938C0160E00E94000D10
:101C3000EC0161E0C8010E94000DF82E62E0C801CD
:101C40000E94000DAE0170E060E0742F66275527FA
:101C5000442700E030E020E0402B5F29622B732B0B
:101C6000292F30E0C901B0E0A0E08A019B01082BD8
:101C7000192B2A2B3B2BC901B801DF91CF911F9162
:101C80000F91FF9008950F931F93CF93DF93EC0173
:101C90008B01FE0185919491FE0132962496659107
:101CA00074918F3F980771F490E080E00E941E09C4
:101CB000045011091016110664F3DF91CF911F91A2
:101CC0000F9108950E94F10BF3CFFC01262F358D63
:101CD000868D82958170982F9627692F70E072A368
:101CE00061A330FF0CC0821307C080E290E050E097
:101CF00040E060E00C94320B81E290E0F8CF878DF9
:101D000090A1833927E7920741F058F4843521E008
:101D1000920791F080329445C1F4626081E094E0D2
:101D200012C0863223E99207C1F3893025EB92076E
:101D3000A1F38532924949F4660F771F660F771F2A
:101D4000636187E090E00C94F10B81E690E0FBCFBB
:101D50008F929F92AF92BF92CF92DF92EF92FF92BB
:101D60000F931F93CF93DF9300D01F92CDB7DEB7B1
:101D70007C014B015A016901FC01878D90A18632DB
:101D8000954151F4F701868980FF06C0C801841B84
:101D9000950B81F50F5F1F4FF701858D80FF31C0D7
:101DA00085A599828A82DB82CC82AE014F5F5F4F2C
:101DB00064E090E00E94320BF70181A9B982AA8207
:101DC0001B830C83AE014F5F5F4F64E090E00E9485
:101DD000320B0F900F900F900F90DF91CF911F91CA
:101DE0000F91FF90EF90DF90CF90BF90AF909F90BA
:101DF0008F9008952617370779F6C80ED91E8A01E5
:101E0000CBCFB40187A190A50E94F10BB501F701DA
:101E100081A592A50E94F10BC814D90419F40A15E2
:101E20001B05B9F2F701858D85FF08C0868980FF03
:101E30001EC0102F0027A02AB12A8501B401F70186
:101E400085A596A50E94F10BB501F70181A992A97C
:101E50000E94F10BB601F70187A590A90E94F10B32
:101E6000B801F70183A994A90E94F10BB2CFDC2C31
:101E7000CC248C289D286401E1CF2F923F924F9271
:101E80005F926F927F928F929F92AF92BF92CF920A
:101E9000DF92EF92FF920F931F93CF93DF9300D0C7
:101EA0001F921F92CDB7DEB79D838C838091200453
:101EB000882349F0C701880F991F8E739927E1EC99
:101EC000EE22E82AF92A37FF05C0620F731F319509
:101ED00021953109260F371F77FF02C070E060E0BF
:101EE000EC81FD8180859185281739070CF4C901A3
:101EF0006C01C61AD70A17FF05C0400F511F119574
:101F000001951109040F151F57FF02C050E040E072
:101F1000EC81FD8122853385021713070CF49801AB
:101F20005901A41AB50A8901015011099C012150D7
:101F300031098C819D810E94A80E8B988A98EC8132
:101F4000FD8153A544A58091020187788093020109
:101F5000A5988EB1877C8EB960910201842F90E0A4
:101F60009C01A5E0220F331FAA95E1F72076262BCE
:101F7000209302016EB19C01220F331F220F331FE9
:101F80002073262B2EB964B39C01220F331F2072BD
:101F9000262B24BB6EB19C01359527953595279549
:101FA0002870262B2EB92091020133E09595879554
:101FB0003A95E1F78871822B809302018998899A7A
:101FC00080910201877880930201A5988EB1877C69
:101FD0008EB960910201852F942F9C0145E0220F5C
:101FE000331F4A95E1F72076262B209302014EB14C
:101FF0009C01220F331F220F331F2073242B2EB975
:1020000044B39C01220F331F2072242B24BB4EB1FA
:102010009C0135952795359527952870242B2EB949
:1020200020910201E3E095958795EA95E1F78871A3
:10203000822B809302018998899A8A9ACA14DB04B8
:102040002CF09A2D8B2D5601C92ED82E2F2D30E035
:10205000890185E0000F111F8A95E1F70076C9011B
:10206000880F991F880F991F182F1073C901880FA7
:10207000991FB82FB072C901959587959595879549
:10208000982F987073E0359527957A95E1F7822F10
:102090008871A701E5E0440F551FEA95E1F7407606
:1020A0009701220F331F220F331F522F5073B70196
:1020B000660F771F6072970135952795359527959F
:1020C000722F78709701E3E035952795EA95E1F74F
:1020D000A22FA8712F2D287F30E04901880C991C70
:1020E000880C991CF82DF073F9834901880C991C10
:1020F000E82DE072EA83490195948794959487943A
:10210000F82DF870FB83E3E035952795EA95E1F724
:10211000E22FE8712E2E9701F3E036952795FA9578
:10212000E1F72C7F30E04901880C991C880C991C40
:10213000F82DF0733F2E2901440C551CE42DE0725C
:102140004E2E49019594879495948794F82DF870B4
:102150005F2EF3E035952795FA95E1F7E22FE871C8
:102160006E2EEE0CEE0CEE0CF12C9701220F331FAD
:10217000220F331FF22FF0737F2E9701220F331F90
:102180002072F701F595E795F595E795E870F3E08E
:10219000F594E794FA95E1F73E2D3871E32E1C147F
:1021A0001D040CF0ABC0309121044501332309F428
:1021B00063C030910201377830930201A5983EB197
:1021C000377C3EB930910201309302013EB1F98172
:1021D0003F2B3EB934B3FA813F2B34BB3EB1FB8178
:1021E0003F2B3EB930910201322930930201899888
:1021F000899A30910201377830930201A5983EB157
:10220000377C3EB930910201309302013EB133294F
:102210003EB934B3342934BB3EB135293EB930918F
:1022200002013629309302018998899A309102017E
:10223000377830930201A5983EB1377C3EB9309192
:102240000201309302013EB137293EB934B3322B3B
:1022500034BB3EB13E2B3EB9309102013E29309352
:1022600002018998899A31E0831A910809F0A1CF77
:10227000F1E0CF1AD10893CF309102013778309333
:102280000201A5983EB1377C3EB930910201302B56
:10229000309302013EB1312B3EB934B33B2B34BBFA
:1022A0003EB1392B3EB930910201382B30930201F7
:1022B0008998899A30910201377830930201A59864
:1022C0003EB1377C3EB930910201342B309302018C
:1022D0003EB1352B3EB934B3362B34BB3EB1372B30
:1022E0003EB9309102013A2B309302018998899AC4
:1022F000F1E08F1A910809F0BFCFBACF8B9AEC8129
:10230000FD81858D80FF0AC0878D90A18632954121
:10231000B1F4EC81FD81868980FF11C0EC81FD81E3
:10232000028513850150110920853185215031091D
:1023300050E040E070E060E0CF010E94A80E0F90F6
:102340000F900F900F900F90DF91CF911F910F91F1
:10235000FF90EF90DF90CF90BF90AF909F908F90C5
:102360007F906F905F904F903F902F900895EF92E5
:10237000FF920F931F93CF93DF937C01E90177FDC9
:102380004DC157FD4BC1FC018085918568177907C8
:102390000CF044C182859385481759070CF03EC163
:1023A00080912004882341F0C901880F991F8E7302
:1023B0009927C17CC82BD92B8A019B01C7010E9498
:1023C000A80E80912104882309F42FC18B988A9844
:1023D000F70143A554A580910201877880930201FB
:1023E000A5988EB1877C8EB960910201852F90E00F
:1023F0009C0175E0220F331F7A95E1F72076262B9A
:10240000209302016EB19C01220F331F220F331F54
:102410002073262B2EB964B39C01220F331F207228
:10242000262B24BB6EB19C013595279535952795B4
:102430002870262B2EB920910201B3E0959587953F
:10244000BA95E1F78871822B809302018998899A65
:1024500080910201877880930201A5988EB1877CD4
:102460008EB960910201CA019C0115E0220F331F51
:102470001A95E1F72076262B209302014EB19C019C
:10248000220F331F220F331F2073242B2EB944B386
:102490009C01220F331F2072242B24BB4EB19C01C0
:1024A00035952795359527952870242B2EB92091A1
:1024B000020173E0959587957A95E1F78871822BF3
:1024C000809302018998899A8A9A8091020187787B
:1024D00080930201A5988EB1877C8EB9209102016C
:1024E0008D2F887F90E0209302014EB19C01220F36
:1024F000331F220F331F2073242B2EB944B39C01AA
:10250000220F331F2072242B24BB4EB19C01359522
:102510002795359527952870242B2EB920910201F7
:10252000B3E095958795BA95E1F78871822B8093F2
:1025300002018998899A809102018778809302012B
:10254000A5988EB1877C8EB920910201CE01D3E08F
:1025500096958795DA95E1F78C7F90E020930201BC
:102560004EB19C01220F331F220F331F2073242BE7
:102570002EB944B39C01220F331F2072242B24BB9D
:102580004EB19C0135952795359527952870242BBC
:102590002EB92091020163E0959587956A95E1F740
:1025A0008871822B809302018998899A8091020117
:1025B000877880930201A5988EB1877C8EB980912F
:1025C0000201CC0FCC0FCC0FD0E0809302012EB1D2
:1025D000CE01880F991F880F991F8073822B8EB9A7
:1025E00024B3CE01880F991F8072822B84BB2EB139
:1025F000CE0195958795959587958870822B8EB994
:1026000080910201A3E0D595C795AA95E1F7C8711D
:10261000C82BC09302018998899A8B9ADF91CF9138
:102620001F910F91FF90EF900895BE01F70183A5D0
:1026300094A5DF91CF911F910F91FF90EF900C9493
:10264000F10BEF92FF920F931F93CF93DF9300D084
:1026500000D000D01F92CDB7DEB77C01862F8370EB
:10266000F701868B962F917060FFE3C0268137813A
:10267000F70131872087992309F4DEC02481358151
:10268000F70133872287823009F4DBC0833009F4F5
:10269000DAC0813009F4D3C088E48A87F701858DD8
:1026A000968D90FF03C02A8520582A8791FF04C089
:1026B0002A8530E423272A8793FF04C02A8538E03F
:1026C00023272A87F701278D30A180FF00C12431FD
:1026D000F8E63F0709F0B9C09A85892F88728A8782
:1026E0001F82892F85958074282F2260892F90E082
:1026F0009595879580729927822B88878BE38987A8
:10270000AE01495F5F4F63E086EB90E00E94320BC1
:102710002AE230E0F70130A727A38BE290E092A7EE
:1027200081A74CE250E054A743A736A725A730ABBA
:1027300027A792AB81AB94AB83ABAE01465F5F4FF3
:1027400061E086E390E00E94320B8A8590E0F70119
:1027500094A383A3F701868980FF1CC0858D968D85
:1027600092FD18C087A190A521A532A530A727A367
:1027700092A781A785A596A521A932A936A725A745
:1027800092AB81AB87A590A923A934A930AB27A729
:1027900094AB83ABF70102851385015011092085A5
:1027A00031852150310950E040E070E060E0C70120
:1027B0000E94A80EF70166817781878D90A120E0A5
:1027C0008732F3E99F0709F420E2F701358D30FFE6
:1027D00039C119821A827B836C831D822E83AE01DC
:1027E0004F5F5F4F66E083E390E00E94320B1982F7
:1027F0001A82AE014F5F5F4F62E087E390E00E9474
:10280000320BF701858D80FF07C050E040E060E0AB
:1028100083E190E00E94320B2A960FB6F894DEBF57
:102820000FBECDBFDF91CF911F910F91FF90EF9021
:102830000895248135811CCF2681378121CF88E2FC
:102840002CCF88E92ACF88EF28CF273243E93407F5
:1028500089F41F8281E388878A858595859585958A
:10286000859588708987AE01495F5F4F63E080EC92
:1028700090E04CCF233689E1380749F02138E4E96C
:102880003E0729F02131F5E13F0709F041CF8A8564
:1028900087FF02C081608A878A8586FF02C08260C6
:1028A0008A878A858F73233649E1340731F02138CE
:1028B00084E9380721F48A858F728A8729CF2131EC
:1028C000354109F025CF8A858F7E806CF6CF6A85E9
:1028D000862F062E000C990B2339F7E73F0751F09E
:1028E000A8F52435E1E03E0709F45CC02032F4E5A8
:1028F0003F07A1F540E052E0F70150A747A341E0B0
:1029000052E052A741A742E052E054A743A740E15A
:1029100052E056A745A741E152E050AB47A742E13C
:1029200052E052AB41AB43E152E054AB43AB88279A
:1029300090782632F3E93F0721F02032344509F040
:1029400071C067FD846060E071E36EC0263243E9C8
:10295000340781F22930E5EB3E0761F220E230E0F6
:10296000F70130A727A321E230E032A721A722E216
:1029700030E034A723A720E530E036A725A721E5DE
:1029800030E030AB27A722E530E032AB21AB23E5C6
:1029900030E034AB23ABBC0166277078776280E609
:1029A00090E046C027E330E0F70136A725A726E3ED
:1029B00030E030AB27A729E330E032AB21AB28E38E
:1029C00030E034AB23AB20E230E030A727A321E294
:1029D00030E032A721A722E230E034A723A7F4E0B9
:1029E0006F9FB001112466277170882792708862EA
:1029F000682B792B81E090E00E94F10B8A85682F8B
:102A000070E075956795759567956870772783FD74
:102A100070616063F70174A363A383E090E00E9498
:102A2000F10B98CE60E072E6682B792B80E094E0A1
:102A30000E94F10B6A85F4E06F9FB00111246627B4
:102A40007170D8CF8339F7E79F07D9F1F0F480325E
:102A500044E59407B1F18338E7E79E0731F1843507
:102A60009140F1F46150710981E390E00E94F10B13
:102A700070E060E082E390E00E94F10B70E060E0C3
:102A800083E390E00E94F10BC7CE863223E99207E0
:102A9000C1F0893045EB9407A1F08532924911F3DA
:102AA000F70161A172A1626003C0F70161A172A187
:102AB00081E690E00E94F10B70E060E08AE690E031
:102AC000E1CFF70161A172A1626081E094E00E9410
:102AD000F10B70E060E084E094E0D4CFEF92FF92DD
:102AE0000F931F93DC01ED91FC9100A0F1A1E02D6B
:102AF000780101E010E019951F910F91FF90EF9080
:102B00000895EF92FF920F931F93DC01ED91FC91DA
:102B100000A0F1A1E02D7801890121E030E01995B4
:102B20001F910F91FF90EF900895FC01248D2111CA
:102B300002C0858D089580E00895FC01848D88236E
:102B400019F0858D91E089270895FC018281938198
:102B500068177907A4F026813781820F931F6817C1
:102B600079076CF4248135814217530744F080853E
:102B70009185280F391F81E0421753070CF080E040
:102B800008950895FC016370668B84819581268188
:102B90003781613039F0633029F09187808733873E
:102BA00022870895318720879387828708952F92FF
:102BB0003F924F925F926F927F928F929F92AF92CD
:102BC000BF92CF92DF92EF92FF920F931F93CF931A
:102BD000DF93CDB7DEB76A970FB6F894DEBF0FBEAE
:102BE000CDBF9A8F898F7A8369834A01D22E188745
:102BF0000F833701BC2CDC0159962D913C915A97DB
:102C00002115310509F015C118968D919C911997E0
:102C1000681779070CF0D7C11A968D919C914817C7
:102C200059070CF0D0C14C2C512CB6E0CB9E600D56
:102C3000711D11247C876B87161617060CF0C3C113
:102C4000EA2DF0E0FA87E98793E0EE0FFF1F9A95EF
:102C5000E1F7F88BEF87CF01840F951F181619063F
:102C60000CF0B1C1A98DBA8D58968C91811104C018
:102C7000BFEABD1508F4D394A98DBA8DED91FC91EE
:102C800011970284F385E02DCD011995B5E0DB9E07
:102C9000C0011124E981FA81FC83EB83312C212CC2
:102CA0009C01245F3D4F388F2F8B4A2D50E05E8B67
:102CB0004D8BEF89F88DE20DF31D44919E828D823C
:102CC000D12CC12C69817A81620D731D7A8B698B3D
:102CD000842F90E09C8B8B8BE98DFA8DA081B18144
:102CE00040FF82C0F1E0BF126FC0AF126DC01C96F2
:102CF000ED91FC912F813885A4014C0D5D1D6989F2
:102D00007A89898D9A8D1995EB89FC89F595E795D6
:102D10004E2F5FEFC51AD50A6D817E818D899E8900
:102D2000680F791F7E836D8398E0C916D10481F600
:102D3000AFEF2A1A3A0AEB81FC81E40DF51DFC8302
:102D4000EB83F5E02F16310409F0B3CF2F813885DE
:102D500026153705B9F0A98DBA8DED91FC91B1E03A
:102D6000BB1257C0AB1255C069817A816B5F7F4F30
:102D70000088F189E02D830128E030E0A401898DED
:102D80009A8D1995A98DBA8DED91FC9111970688B0
:102D9000F789E02DCD016A960FB6F894DEBF0FBE1D
:102DA000CDBFDF91CF911F910F91FF90EF90DF90FA
:102DB000CF90BF90AF909F908F907F906F905F90DB
:102DC0004F903F902F9019941E96ED91FC91EF80BB
:102DD000F88409851A8592014D815E816B817C8121
:102DE000898D9A8D199590CF2F81388526153705B5
:102DF00009F48ACF31E0B31207C0A31205C01C96B4
:102E0000ED91FC91930178CF1E96ED91FC917301A9
:102E1000E0CF6B857C85641975090684F785E02D04
:102E200073010F8518899201A401898D9A8D1995D6
:102E3000A9CFF90134969491329745915491D91ABA
:102E4000B7E0DB9E400D511D1124F901259134910D
:102E50003C8B2B8BFA0125903490FA0132967490BA
:102E600031963491398B329664903196449041E09A
:102E70004C1518F04A1508F07FC0662D062C000C82
:102E8000770B7C836B83842D042C000C990B9E8321
:102E90008D83A98DBA8DED91FC9111970284F385F4
:102EA000E02DCD011995512CD12CC12CEA2DF0E04B
:102EB000FA87E9872B2D30E03C872B87A401440D4E
:102EC000511D47FC5A95588F4F8B69817A81660D49
:102ED000711D67FC7A957E876D877989C71608F022
:102EE00051CF2C2D30E04D815E81420F531FA985BB
:102EF000BA854A9FC0014B9F900D5A9F900D112497
:102F0000FC01E80DF91DF88BEF87852D612C4F89A9
:102F1000588D420F531F5E8B4D8B671408F050C0C5
:102F200044244394480E877041F4C1010196EB8913
:102F3000FC89E20DF31DD4901C01D7FE19C0A98DA8
:102F4000BA8DED91FC91662D70E0B1E0BB1219C015
:102F5000AB1217C02D853E85620F731F0484F58563
:102F6000E02D2F8138854D895E89898D9A8D19953F
:102F7000DD0C6394842DD1CF1E821D821C821B82A6
:102F800088CF4B815C81640F751FAB85BC856A9FC0
:102F9000C0016B9F900D7A9F900D112469817A81F9
:102FA000680F791F0684F785E02DEF80F884098586
:102FB0001A859D014F855889898D9A8D1995D8CF8D
:102FC000570CC3948ACF6A960FB6F894DEBF0FBE33
:102FD000CDBFDF91CF911F910F91FF90EF90DF90C8
:102FE000CF90BF90AF909F908F907F906F905F90A9
:102FF0004F903F902F9008958F929F92AF92CF92D3
:10300000EF92FF920F931F93CF93DF93EC01262F44
:10301000898D9A8D009709F051C06A30D1F41D86D0
:103020001C868D8948E0849F900111248E859F85A0
:10303000820F931F9F878E8781E090E0DF91CF9171
:103040001F910F91FF90EF90CF90AF909F908F9036
:1030500008956D3089F3CC88AD888F898823C1F0BD
:103060008C859D8536E0C39E800D911D1124488579
:1030700059854817590764F44E855F851D861C865F
:1030800038E0A39EC0011124840F951F9F878E876F
:10309000EA88FB88088919894E855F856C857D855E
:1030A000CE010E94D7152C898C859D8546E0249FF2
:1030B000800D911D11249D878C87BECF6A3069F4E5
:1030C0001D861C86FC013896E4912D898E859F858E
:1030D000E29F800D911D1124ADCF6D3009F4ACCF6E
:1030E000FC0134963491631708F4A6CF3296E4912C
:1030F000E61708F4A1CFFC01329685909490462FF4
:10310000431B342F47E0349F800C911C1124F401A1
:10311000329634913196E4913323A9F1EE2399F15B
:10312000CC88F4013596E491AD884F89442301F1B0
:103130000E2E000CFF0BE30FF11DCE9EA001CF9EC3
:10314000500D11246C857D85460F571F6885798544
:10315000641775076CF44E855F851D861C86FC011F
:103160003896E491AE9E400D511D11245F874E8725
:10317000EA88FB88088919894E855F856C857D857D
:10318000CE010E94D715F4013496E4912C898C85E8
:103190009D85E29F800D911D11248DCF6F927F92AE
:1031A0008F929F92AF92BF92CF92DF92EF92FF9257
:1031B0000F931F93CF93DF93EC016B015A013901F9
:1031C0004801E881F9810284F385E02D1995E881B1
:1031D000F9810288F389E02D87019301A501B601E9
:1031E000CE011995A501480D591D41505109E8819D
:1031F000F9810288F389E02D9301B601CE0119957A
:10320000E881F9810088F189E02D9401A501B601DA
:10321000CE011995C60CD71CB60161507109E88121
:10322000F9810088F189E02D9401A501CE0119955D
:10323000E881F9810688F789E02DCE01DF91CF91F1
:103240001F910F91FF90EF90DF90CF90BF90AF90C4
:103250009F908F907F906F9019942F923F924F92F2
:103260005F926F927F928F929F92AF92BF92CF9216
:10327000DF92EF92FF920F931F93CF93DF93CDB71F
:10328000DEB72D970FB6F894DEBF0FBECDBF5C0141
:103290001B0158874F833D872C870987FC82EB826F
:1032A000360181E090E06C01C21AD30AC901919500
:1032B000819591099C01220F331F3A832983C7010D
:1032C00001969E838D83F12CE12C44244394512C50
:1032D000DA011196BB87AA872C853D85E216F30695
:1032E0000CF070C08C849D84D7FC0BC0490131E088
:1032F000831A910889819A8102969A838983C80EDC
:10330000D91E9FEFE91AF90AA2E04A0E511CC40C1B
:10331000D51C8E149F0444F42C853D852815390551
:10332000F1F49D868C86D8CF9401220F331F4F81F4
:10333000588548195909D501ED91FC91B9858D81C0
:103340009E81280F391F0088F189E02D8301B1018A
:10335000B13009F56E0D7F1DC5011995DDCF998539
:10336000913019F5920122503109AB81BC812A0FAD
:103370003B1F6C857D85620D731DD501ED91FC9120
:103380000088F189E02D83014A855B854E195F092C
:10339000C5011995C6CF6E197F09C5011995AC8570
:1033A000BD85A815B90509F4BCCF92012250310999
:1033B0008B819C81280F391FB101AC85BD856A1BAB
:1033C0007B0BDBCF2D960FB6F894DEBF0FBECDBFC3
:1033D000DF91CF911F910F91FF90EF90DF90CF90F1
:1033E000BF90AF909F908F907F906F905F904F9025
:1033F0003F902F9008952F923F924F925F926F923D
:103400007F928F929F92AF92BF92CF92DF92EF9274
:10341000FF920F931F93CF93DF9300D000D0CDB7CF
:10342000DEB79E838D834B013A016901802F21E035
:1034300030E029014C185D08222433242C183D0863
:10344000220C331CB12CA12C01E010E0982F9470B9
:103450009983A82FA270AA83B82FB870BB838170FC
:103460008C83AC14BD040CF0A7C057FC08C081E0ED
:10347000C81AD10892E0290E311C420C531CAFEF40
:10348000AA1ABA0A0E5F1F4F400E511EB981BB2304
:1034900011F1AD81BE81ED91FC9111970484F58508
:1034A000E02D9701A601460D571DB4016A0D7B1D45
:1034B000CD011995AD81BE81ED91FC9111970484E8
:1034C000F585E02D9701A3014A0D5B1DB601680D3E
:1034D000791DCD011995BA81BB2311F1AD81BE8152
:1034E000ED91FC9111970484F585E02D9701A301DE
:1034F0004C195D09B4016A0D7B1DCD011995AD8193
:10350000BE81ED91FC9111970484F585E02D970122
:10351000A3014A195B09B601680D791DCD01199502
:10352000BB81BB2311F1AD81BE81ED91FC9111975F
:103530000484F585E02D9701A3014A0D5B1DB401BC
:103540006C197D09CD011995AD81BE81ED91FC917C
:1035500011970484F585E02D9701A601460D571DAE
:10356000B4016A197B09CD011995BC81BB2309F40B
:1035700078CFAD81BE81ED91FC9111970484F585E2
:10358000E02D9701A3014A195B09B4016C197D096B
:10359000CD011995AD81BE81ED91FC911197048407
:1035A000F585E02D9701A3014C195D09B4016A1955
:1035B0007B09CD01199555CF26960FB6F894DEBF3D
:1035C0000FBECDBFDF91CF911F910F91FF90EF9074
:1035D000DF90CF90BF90AF909F908F907F906F9033
:1035E0005F904F903F902F9008956F927F928F92AF
:1035F0009F92AF92BF92CF92DF92EF92FF920F9382
:103600001F93CF93DF935C01EB016A0149013801FD
:103610008701DC01ED91FC916217730719F56416BF
:1036200075062CF0962D872D3A01C92ED82E9601BD
:10363000261937092F5F3F4F048CF58DE02DA3012C
:10364000BE01C5011995DF91CF911F910F91FF9098
:10365000EF90DF90CF90BF90AF909F908F907F9032
:103660006F9008954615570591F42617370724F0F3
:10367000892D4B01C22FD82F9E01281939092F5FA0
:103680003F4F068CF78DE02DA601B401DACF0284FE
:10369000F385E02D1995D501ED91FC910488F5890C
:1036A000E02D83019401A601BE01C5011995D50144
:1036B000ED91FC910688F789E02DC501DF91CF914E
:1036C0001F910F91FF90EF90DF90CF90BF90AF9040
:1036D0009F908F907F906F901994EF92FF920F932D
:1036E0001F93DC011A960D911C911B9718962D9132
:1036F0003C911997ED91FC9100A0F1A1E02D7B0187
:1037000050E040E070E060E019951F910F91FF904C
:10371000EF9008954F925F926F927F928F929F9257
:10372000AF92BF92CF92DF92EF92FF920F931F93CF
:10373000CF93DF936C012B015A0139014801DC0161
:10374000ED91FC910284F385E02D1995E201640C62
:10375000751CD601ED91FC91C615D7055CF4008867
:10376000F189E02D87019401A501BE01C6011995DB
:103770002196EFCF0688F789E02DC601DF91CF9122
:103780001F910F91FF90EF90DF90CF90BF90AF907F
:103790009F908F907F906F905F904F9019948F9231
:1037A0009F92AF92BF92CF92DF92EF92FF920F93D0
:1037B0001F93CF93DF93EC015B014A016901E8811C
:1037C000F9810284F385E02D199595012C0D3D1D9D
:1037D00021503109E881F9810488F589E02D7801CB
:1037E0008401A401B501CE011995E881F98106880B
:1037F000F789E02DCE01DF91CF911F910F91FF90BE
:10380000EF90DF90CF90BF90AF909F908F901994E2
:103810008F929F92AF92BF92CF92DF92EF92FF92E0
:103820000F931F93CF93DF93EC015B014A01690172
:103830007801E881F9810284F385E02D1995C80C9F
:10384000D91C860101501109E881F9810488F589A4
:10385000E02D9501A401B501CE011995E881F9810A
:103860000688F789E02DCE01DF91CF911F910F914E
:10387000FF90EF90DF90CF90BF90AF909F908F9090
:1038800019940895EF92FF920F931F93DC01ED912D
:10389000FC9100A0F1A1E02D19951F910F91FF90CF
:1038A000EF9008950F931F93DC01ED91FC91068C2E
:1038B000F78DE02D19951F910F9108950F931F9388
:1038C000DC01ED91FC91048CF58DE02D19951F9193
:1038D0000F910895DC01ED91FC910084F185E02DBC
:1038E00019942F923F924F925F926F927F928F9294
:1038F0009F92AF92BF92CF92DF92EF92FF920F937F
:103900001F93CF93DF9300D000D0CDB7DEB73C013B
:103910006A013E832D83FC82EB825801A41AB50A0A
:10392000B7FE03C0B194A194B1088D809E80861A21
:10393000970A97FE03C09194819491088A149B047E
:103940005CF0902F812F0D811E819D838E839C2D95
:103950008D2D6B01692F782F0C151D055CF09D8155
:103960008E817E836D83692F782F902F812F860122
:10397000C92ED82E1601201A310A2B012D813E8125
:10398000421A530A57FE03C05194419451087101E1
:1039900037FE03C03FEFE31AF30AF594E7948D81F5
:1039A0009E81861797075CF5A1E0B0E0BA83A983F2
:1039B000C016D1064CF1D301ED91FC910484F5853C
:1039C000E02D2B813C81A8016D817E818A149B04AE
:1039D0001CF04D815E81B801C3011995E418F5080A
:1039E000F7FE0AC02D813E8189819A81280F391FF7
:1039F0003E832D83E20CF31C0F5F1F4FD9CF2FEFB7
:103A00003FEF3A832983D4CF26960FB6F894DEBFD2
:103A10000FBECDBFDF91CF911F910F91FF90EF901F
:103A2000DF90CF90BF90AF909F908F907F906F90DE
:103A30005F904F903F902F900895089590E080E020
:103A40000895CF93DF93FC012781222359F1EC01E4
:103A500061E080850E94AB0861E089850E94AB0827
:103A60008F81843011F08830B1F461E08A850E9442
:103A7000AB0861E08B850E94AB088FA58F3F91F06A
:103A800061E00E94AB086EA581E068278FA5DF91F9
:103A9000CF910C947D08833011F0863071F761E08E
:103AA0008A85E9CFDF91CF910895CF93DF93FC0111
:103AB00027812223A9F0EC010190F081E02D0284FE
:103AC000F385E02D60E019958FA58F3F49F061E007
:103AD0000E94AB086EA58FA5DF91CF910C947D0855
:103AE000DF91CF910895DC01ED91FC911197228532
:103AF000338547705527662777274150510961095B
:103B00007109473051056105710570F4FA01882784
:103B1000E357F24E8F4F0C94CC3E981D9A1D9C1D7E
:103B20009E1DA01DA21DA41D61E0CD01F9011994E7
:103B300065E0FBCF64E0F9CF66E0F7CF62E0F5CF58
:103B40006AE0F3CF68E0F1CF69E0EFCFCF93DF9386
:103B5000EC01CB01BA0126E030E040E050E00E94E9
:103B6000693E623071058105910589F16CF461153A
:103B7000710581059105D1F06130710581059105CF
:103B8000F9F0DF91CF9108956430710581059105B9
:103B900061F124F1653071058105910591F7E881A6
:103BA000F9810284F385E02D66E006C0E881F981A1
:103BB0000284F385E02D64E0CE01DF91CF9119946A
:103BC000E881F9810284F385E02D65E0F5CFE88195
:103BD000F9810284F385E02D61E0EECFE881F9817F
:103BE0000284F385E02D63E0E7CFE881F981028468
:103BF000F385E02D62E0E0CFDC01ED91FC910284E1
:103C0000F385E02D4370552766277727423051050D
:103C10006105710571F0433051056105710559F079
:103C2000413051056105710511F065E0199466E0B8
:103C3000FDCF6AE0FBCF69E0F9CFCF93DF93EC01D2
:103C4000CB01BA0123E030E040E050E00E94693E41
:103C5000613071058105910599F06230710581052A
:103C60009105A9F0672B682B692BC1F4E881F981D4
:103C70000284F385E02D64E0CE01DF91CF911994A9
:103C8000E881F9810284F385E02D61E0F5CFE881D8
:103C9000F9810284F385E02D62E0EECFDF91CF91D0
:103CA0000895DC01ED91FC910284F385E02D4370D1
:103CB000552766277727423051056105710571F058
:103CC000433051056105710559F0413051056105D9
:103CD000710511F062E0199463E0FDCF61E0FBCF64
:103CE00060E0F9CFCF93DF93EC01E881F9810284A2
:103CF000F385E02D8A8160E0811162E0CE011995A3
:103D0000E881F9810284F385E02D8A8161E08111E7
:103D100063E0CE0119958CA59DA58230910538F000
:103D2000880F991F880F991F05970197F1F7E88170
:103D3000F9810284F385E02D8A8160E0811162E0DF
:103D4000CE01DF91CF911994CF93DF93EC0120E066
:103D500030E0A901688D798D8A8D9B8D0E94A040ED
:103D600018162CF4E8A9F9A9DF91CF911994EAA9C2
:103D7000FBA9FACFCF92DF92EF92FF920F931F939E
:103D8000CF93DF93DC011796CC91C43039F0C83063
:103D900059F1C33019F0C63049F1C2E08C01085F17
:103DA0001F4FF12CE12CC62ED12CD1E0F8016481FB
:103DB000C6010E2C02C0959587950A94E2F780FD06
:103DC0006D270F5F1F4F80810E947D08BFEFEB1AA8
:103DD000FB0AEC1658F3DF91CF911F910F91FF90E2
:103DE000EF90DF90CF900895C4E0D8CFC3E0D6CF56
:103DF000DC011796EC911797E93008F042C0F0E02B
:103E00008827EA5FF04E8F4F0C94CC3E0F1F171F90
:103E10001E1F251F2C1F411F331F411F3A1FED91ED
:103E2000FC9111970684F785E02DCD011994ED9151
:103E3000FC9111970088F189E02DF7CFED91FC916D
:103E400011970288F389E02DF0CFED91FC91119745
:103E50000488F589E02DE9CFED91FC911197068852
:103E6000F789E02DE2CFED91FC911197008CF18D57
:103E7000E02DDBCFED91FC911197028CF38DE02DBD
:103E8000D4CF08954F925F926F927F928F929F92BC
:103E9000AF92BF92CF92DF92EF92FF920F931F9358
:103EA000CF93DF93EC01CC88DD88EE88FF8888898A
:103EB0009989AA89BB89C81AD90AEA0AFB0A688DB6
:103EC000798D8A8D9B8D9B01AC010E94A5404B0191
:103ED0005C0168A179A18AA19BA19B01AC010E9410
:103EE000D53E9B01AC01C501B4010E94463F0E9432
:103EF000B83FC114D104E104F10409F0B6C0623046
:103F00007105810591050CF0D0C01B821C821D82B9
:103F10001E82188E198E1A8E1B8E1CAA1DAA1EAA0E
:103F20001FAAC12CD12C7601C701B601DF91CF9118
:103F30001F910F91FF90EF90DF90CF90BF90AF90C7
:103F40009F908F907F906F905F904F900895101684
:103F5000110612061306B4F46C157D058E059F0537
:103F60001CF42A812111A1C09B01AC01882799274B
:103F7000DC01821B930BA40BB50B8CAB9DABAEABE2
:103F8000BFAB93C0011511052105310509F48DC0A2
:103F90006C157D058E059F050CF087C08A818823EE
:103FA00009F483C030952095109501951F4F2F4F30
:103FB0003F4F0CAB1DAB2EAB3FAB77C001151105CE
:103FC0002105310509F471C08824992454018C1805
:103FD0009D08AE08BF08681579058A059B050CF099
:103FE00064C08A81811161C0DDCFCCACDDACEEACA8
:103FF000FFACA7019601C701B6010E94D53E2B0177
:104000003C01C501B4010E94F03F20E030E040E8EF
:1040100050E40E94A54020E030E040E85FE30E94C9
:10402000D53E9B01AC01C301B2010E94463F9B01FA
:10403000AC01C701B6010E94D43E3B016C01FE01F8
:10404000E05CFF4FE080F180028113819701A801BD
:104050000E94A040181614F473018601C701D8010C
:104060008CAF9DAFAEAFBFAF3AC00CA91DA92EA9B2
:104070003FA91C141D041E041F040CF468CF101665
:104080001106120613060CF099CF0027112798018C
:104090000C191D092E093F09601771078207930744
:1040A0000CF062CF2A8121115FCF8CA89DA8AEA809
:1040B000BFA881149104A104B10409F096CF88AD82
:1040C00099ADAAADBBAD8CAF9DAFAEAFBFAF81E038
:1040D0001C141D041E041F040CF080E08A833FEFB3
:1040E000831A930AA30AB30A8CAA9DAAAEAABFAAEE
:1040F0008CAC9DACAEACBFACC501B4010E94BF3F5F
:104100006B017C01CB82DC82ED82FE82A5019401F1
:1041100060E074E284E799E40E94463F688F798FFB
:104120008A8F9B8F2A812111FFCE9058688F798FBB
:104130008A8F9B8FF9CECF92DF92EF92FF92CF932F
:10414000DF93C1EFD7E0688D798D8A8D9B8D9B01C0
:10415000AC010E94A5406B017C0168A179A18AA1F4
:104160009BA19B01AC010E94D53E9B01AC01C70104
:10417000B6010E94463F0E94B83F6CAB7DAB8EAB50
:104180009FABCE01DF91CF91FF90EF90DF90CF906A
:104190000C94421F08954F925F926F927F92AF925C
:1041A000BF92DF92EF92FF920F931F93CF93DF9313
:1041B00060E08091AA070E94AB0860E08091AB07A5
:1041C0000E94AB0861E08091AD070E94AB0861E0FE
:1041D0008091AC070E94AB088091B807E091B007CE
:1041E000F091B1079081892B80838091B907E0918C
:1041F000B407F091B50790818095892380838091E1
:10420000AA070E94DC08EC018091AA070E94DC0842
:104210009E01281B390B2C5F3F4FD12C29303105D3
:1042200030F48C0F9D1F95958795DD24D3940FEF67
:1042300013E0081B190B60E08091AD070E94AB08EA
:1042400060E08091AC070E94AB0861E08091AA0712
:104250000E94AB0861E08091AB070E94AB0880919F
:10426000BB07E091B607F091B7079081809589234D
:1042700080838091BA07E091B207F091B3079081F3
:10428000892B80838091AC070E94DC08EC0180912F
:10429000AC070E94DC087C01CE018E199F090496B0
:1042A000099708F0D2C0EC0EFD1EF594E79461E08A
:1042B0008091AD070E94AB0860E08091AA070E9440
:1042C000AB088091B807E091B007F091B1079081F9
:1042D0008095892380838091BB07E091B607F09198
:1042E000B7079081892B80838091AC070E94DC08FE
:1042F000EC018091AA070E94DC08A090AE07B09064
:10430000AF07A114B10409F4A2C0BC01990F880B36
:10431000990B0E94F03F2B013C01BE01DD0F880B81
:10432000990B0E94F03F9B01AC01C301B2010E94B6
:10433000463F20E030E040E85FE30E94D43E2B019E
:104340003C01B801012E000C880B990B0E94F03F34
:10435000A30192010E94A5402B013C01B50190E010
:1043600080E00E94EE3FA30192010E94A54020E060
:1043700030E040E85AE30E94A5400E94B83FEB01BC
:10438000D11002C0D0E0C0E061E088E30E94AB0839
:1043900061E087E30E94AB0861E088E30E947D084A
:1043A00061E087E30E947D08BE01695C7109C1E09C
:1043B0006F3183E0780708F0C0E06F317340B0F5EB
:1043C000A091C407B091C507012E000C220B330B3E
:1043D000A9019801205B3109410951090E94933ECE
:1043E00029EE32E040E050E00E94693E30934C04F8
:1043F00020934B042FEF33E02E193F09032E000CBE
:10440000440B550B215B310941095109A091C607A5
:10441000B091C7070E94933E2AEF32E040E050E09F
:104420000E94693E30934E0420934D048C2FDF91FF
:10443000CF911F910F91FF90EF90DF90BF90AF90C1
:104440007F906F905F904F900895D12C30CFC81B14
:10445000D90BC150DC4F94CFEF92FF920F931F9373
:10446000DC011A960D911C911B9718962D913C9189
:104470001997ED91FC9100A0F1A1E02D7B0150E096
:1044800040E070E060E019951F910F91FF90EF9070
:104490000895FF920F931F93CF93DF93F82E062F6B
:1044A000C7E0D0E010E061E0802F0E947D088F2DF2
:1044B0000E9454080C2E01C0880F0A94EAF7182BAA
:1044C00060E0802F0E947D08219768F7812FDF919F
:1044D000CF911F910F91FF900895EF92FF920F934C
:1044E0001F93CF93DF93809138080E945408892B43
:1044F00031F060E070E0CB010E941E09F4CFDFB71D
:10450000F89460913708809138080E944922082F5A
:1045100060913708809138080E944922C82F609125
:104520003708809138080E944922182FF12CE12C7D
:10453000809139088E151F0479F070F061E0809148
:1045400037080E947D0860E0809137080E947D084E
:104550008FEFE81AF80AECCFDFBF6C2F70E090E025
:1045600080E0982F872F762F6627802B612B000FF6
:10457000000B10E030E020E0302F22271127002729
:10458000602B712B822B932BDF91CF911F910F9179
:10459000FF90EF900895CF92DF92EF92FF92CF932A
:1045A000DF93D82FC0E0C12CD12C7601CD1769F054
:1045B0000E946D22C60ED71EE81EF91E60E070E054
:1045C000CB010E941E09CF5FF1CF2C2F30E050E0CD
:1045D00040E0C701B6010E94693ECA01B901DF91FE
:1045E000CF91FF90EF90DF90CF9008954F925F9220
:1045F0006F927F928F929F92AF92BF92CF92DF92F3
:10460000EF92FF926B017C0120E030E0A9010E9453
:10461000413F87FF04C0F7FAF094F7F8F0948090D8
:10462000110890901208A0901308B0901408A701E8
:104630009601C501B4010E94413F882309F458C086
:10464000609125087091260880912708909128088C
:104650000E94F03F2B013C01A7019601C501B40166
:104660000E94463F9B01AC01C301B2010E94A540DC
:104670000E94B83F6093250870932608809327080E
:1046800090932808A701960160E070E080E090E434
:104690000E94463F0E94184126E53EE04DE25FE35E
:1046A0000E94A54020E034E244E759E40E94A5407E
:1046B0006093290870932A0880932B0890932C0804
:1046C000C0921108D0921208E0921308F0921408D8
:1046D00081EF97E0FF90EF90DF90CF90BF90AF9089
:1046E0009F908F907F906F905F904F900C94421F9F
:1046F000FF90EF90DF90CF90BF90AF909F908F9002
:104700007F906F905F904F9008950E949742FB01B9
:1047100001900020E9F73197AF01461B570BDC01F0
:10472000ED91FC910280F381E02D19948F929F927C
:10473000AF92BF92EF92FF920F931F93CF93DF93AD
:10474000CDB7DEB7A1970FB6F894DEBF0FBECDBFD1
:104750007C01FA01CB0119A2223008F42AE08E0173
:104760000F5D1F4F822E912CB12CA12CBF01A501F2
:1047700094010E949B3EF901CA016A300CF5605D0C
:10478000D8016E938D01232B242B252B79F790E0F4
:1047900080E0109721F0BD01C7010E948723A196F8
:1047A0000FB6F894DEBF0FBECDBFDF91CF911F9142
:1047B0000F91FF90EF90BF90AF909F908F900895D2
:1047C000695CDECFCF93DF93AC01990F660B770B5B
:1047D0002AE089E594E00E949623EC0161E772E00B
:1047E00089E594E00E9487238C0F9D1FDF91CF9174
:1047F00008954F925F926F927F928F929F92AF92A5
:10480000BF92CF92DF92EF92FF920F931F93CF93BD
:104810006B017C01742EAC019B010E94584164E73E
:1048200072E0811126C046015701E894B7F82FEFD6
:104830003FEF4FE75FE7C501B4010E945841811186
:104840000CC02FEF3FEF4FE75FE7C501B4010E94B7
:10485000413F68E772E0181664F02FEF3FEF4FE733
:104860005FE4C701B6010E94A0401816ACF46CE7E3
:1048700072E08CEB97E0CF911F910F91FF90EF903A
:10488000DF90CF90BF90AF909F908F907F906F9070
:104890005F904F900C9487232FEF3FEF4FE75FEC33
:1048A000C701B6010E94413F87FDE1CF20E030E023
:1048B000A901C701B6010E94413F10E000E087FF57
:1048C0000AC06DE28CEB97E00E94FC178C01F7FAAE
:1048D000F094F7F8F094C0E060E070E080E09FE3CF
:1048E0007C1641F020E030E040E251E40E94463F77
:1048F000CF5FF6CFA70196010E94D53E2B013C0168
:104900000E94BF3F4B015C012AE0BC01A4018CEB7B
:1049100097E00E9496237C01E00EF11ECC23D1F19A
:10492000C501B4010E94EE3F9B01AC01C301B2017D
:104930000E94D43E4B015C016EE28CEB97E00E943A
:10494000FC17E80EF91EC15028F120E030E040E2EB
:1049500051E4C501B4010E94A5402B013C010E9415
:10496000BF3F4B01B12CA12C2AE0B501A4018CEB77
:1049700097E00E949623E80EF91EC501B4010E943B
:10498000EE3F9B01AC01C301B2010E94D43E4B013A
:104990005C01D9CFC701CF911F910F91FF90EF908C
:1049A000DF90CF90BF90AF909F908F907F906F904F
:1049B0005F904F9008956115710511F00C94872355
:1049C00090E080E008952F923F924F925F926F9215
:1049D0007F928F929F92AF92BF92CF92DF92EF928F
:1049E000FF920F931F93CF93DF93CDB7DEB72E9730
:1049F0000FB6F894DEBF0FBECDBF9E878D87DC015A
:104A00005096BC91B987FC01F189FA87DC011C96AC
:104A10000D90BC91A02DBA83A983FC018684978454
:104A2000662331F0982D892D89849A8499878A8705
:104A3000AD85BE851696CD90DC9017971896AD90F3
:104A4000BC90C601CA14DB0408F0C5019695879591
:104A500096958795ED85FE8540805180282F30E022
:104A60003C832B8364807580828193819E838D83B8
:104A7000CA14DB042CF4C601D7FE05C0019603C09E
:104A8000C501B7FCFBCF959587952B803C8082159F
:104A900093050CF41C01D201ED91FC910284F38585
:104AA000E02DC2011995F101EE0FFF1FF887EF838A
:104AB0002D813E81220D331D3C872B8796012E1BB5
:104AC0003F0BD201ED91FC910684F785E02D740136
:104AD0008501A3016B857C85C2011995EF81F8855D
:104AE000AE1ABF0AF1E0AF1AB108620C731C6D81F7
:104AF0007E816C0D7D1D621973096150710964011D
:104B0000750101E09101A301C2010E942D1902E08B
:104B10009101A3016B857C85C2010E942D19D201F0
:104B2000ED91FC910688F789E02DC2011995ED857C
:104B3000FE85C080D180A084B184E680F780648047
:104B40007580228133813E832D83EA14FB042CF48B
:104B5000C701F7FE05C0019603C0C501B7FCFBCF36
:104B6000959587958B809C80881599050CF44C0150
:104B7000D601ED91FC910284F385E02DC6011995D3
:104B80001401220C331CF701E219F309FC83EB83B7
:104B90004D805E80480C591CD601ED91FC91028835
:104BA000F389E02D09811A812B813C81A301B20197
:104BB000C6011995F501E60DF71DF887EF83AF01E2
:104BC00041505109D601ED91FC910288F389E02D05
:104BD00009811A812B813C81B201C6011995F50129
:104BE000E219F3091F01680C791CD601ED91FC91C3
:104BF0000088F189E02D09811A819101A3016D815D
:104C00007E81C6011995AD80BE80AE0CBF1CB5017A
:104C100061507109D601ED91FC910088F189E02D78
:104C200009811A819101A301C6011995E980FA80D1
:104C300001E09401A301B201C6010E94FB19A8186A
:104C4000B908B1E0AB1AB108E980FA8002E094013A
:104C5000A301B501C6010E94FB196F807884681812
:104C60007908E1E06E1A7108E980FA8004E09401A5
:104C7000A301B501C6010E94FB19E980FA8008E092
:104C80009401A301B201C6010E94FB19D601ED9166
:104C9000FC910688F789E02DC6011995AD85BE8582
:104CA000ED91FC91119718968D919C91199796957D
:104CB000879514962D913C911597820F931F1B9603
:104CC0002C91B4E02B9F8019910911246D857E856C
:104CD0006E5E7F4FDB010D900020E9F7AD01415082
:104CE0005109461B570BAD85BE8516962D913C91FB
:104CF0001797369527951296ED90FC9013972E0DE9
:104D00003F1D1A96FC9013E0F19ED0011124A49F40
:104D10007001A59FF00CB49FF00C11242E193F09CF
:104D20003587248797878687AD85BE85ED91FC9171
:104D3000B985B28B1A85138BB08B118BAD85BE856F
:104D4000ED91FC9111971B968C911B971A969C9153
:104D5000911101C091E0948B811101C081E0858B9C
:104D6000ED85FE85808191812E960FB6F894DEBF89
:104D70000FBECDBFDF91CF911F910F91FF90EF90AC
:104D8000DF90CF90BF90AF909F908F907F906F906B
:104D90005F904F903F902F900C94DB24CF930E9414
:104DA000CB20C82F80E0CC2361F040914D0450917E
:104DB0004E0460914B0470914C0480E595E00E9494
:104DC000A51590916C0590936D0580936C0580E01E
:104DD000CC2361F040914D0450914E0460914B04FE
:104DE00070914C0482E395E00E94A51590914E05C8
:104DF00090934F0580934E05CC2369F040914D046C
:104E000050914E0460914B0470914C0484E195E004
:104E10000E94A515C82F8091300580933105C0935D
:104E2000300580E595E00E949515882329F060E023
:104E300080E595E00E94E32482E395E00E949515C9
:104E4000882329F060E082E395E00E94E32484E176
:104E500095E00E949515882329F060E084E195E0B3
:104E60000E94E32480E595E00E949D158823F1F1DE
:104E700061E080E595E00E94E3248FEF9FEF90933F
:104E8000CD078093CC071092CF071092CE0783E016
:104E90008093D0078093D10780E892E09F938F930F
:104EA0008BE892E09F938F9380E494E09F938F939D
:104EB0000E94AB421092C9071092C80784E190E0AB
:104EC0009093CB078093CA0760E474E08CEB97E083
:104ED0000E94DB248091000291E0892780930002E8
:104EE0000F900F900F900F900F900F9082E395E02E
:104EF0000E949D158823F1F161E082E395E00E9414
:104F0000E3248FEF9FEF9093CD078093CC0710920F
:104F1000CF071092CE0783E08093D0078093D1070C
:104F200080E992E09F938F938BE892E09F938F9319
:104F300080E494E09F938F930E94AB428CE390E0D7
:104F40009093C9078093C8079093CB078093CA07B3
:104F500060E474E08CEB97E00E94DB248091010216
:104F600091E08927809301020F900F900F900F908E
:104F70000F900F9084E195E00E949D158823F1F138
:104F800061E084E195E00E94E3248FEF9FEF90932E
:104F9000CD078093CC071092CF071092CE0783E005
:104FA0008093D0078093D1078EE992E09F938F93EF
:104FB0008BE892E09F938F9380E494E09F938F938C
:104FC0000E94AB428CE390E09093C9078093C8079E
:104FD0009093CB078093CA0760E474E08CEB97E072
:104FE0000E94DB248091010291E0892780930102D5
:104FF0000F900F900F900F900F900F9080910102E3
:10500000CF9108950C940E420C940E421F920F9271
:105010000FB60F9211242F933F938F939F93AF93CB
:10502000BF938091500490915104A0915204B0918B
:10503000530430914F0423E0230F2D3758F5019688
:10504000A11DB11D20934F048093500490935104EF
:10505000A0935204B093530480915404909155044A
:10506000A0915604B09157040196A11DB11D8093E3
:10507000540490935504A0935604B0935704BF91E1
:10508000AF919F918F913F912F910F900FBE0F90F5
:105090001F90189526E8230F0296A11DB11DD2CFAF
:1050A0001F920F920FB60F9211240BB60F922F93EF
:1050B0003F934F935F936F937F938F939F93AF93A0
:1050C000BF93EF93FF9389E594E00E94C509FF9198
:1050D000EF91BF91AF919F918F917F916F915F9170
:1050E0004F913F912F910F900BBE0F900FBE0F90DD
:1050F0001F9018951F920F920FB60F9211240BB6A6
:105100000F922F938F939F93EF93FF93E0916904F6
:10511000F0916A048081E0916F04F091700482FD47
:105120001DC09081809172048F5F8F7320917304F2
:10513000821741F0E0917204F0E0E75AFB4F958F3F
:1051400080937204FF91EF919F918F912F910F9017
:105150000BBE0F900FBE0F901F9018958081F2CF5D
:10516000CF92DF92EF92FF9210925C0410925B0458
:1051700088EE93E0A0E0B0E080935D0490935E043D
:10518000A0935F04B09360048FE092E090935A0480
:105190008093590485EC90E09093660480936504B5
:1051A00084EC90E0909368048093670480EC90E036
:1051B00090936A048093690481EC90E090936C046E
:1051C00080936B0482EC90E090936E0480936D0466
:1051D00086EC90E09093700480936F0410927204B8
:1051E0001092730410927404109275048DE692E08C
:1051F000909336088093350810923A0810923B0835
:1052000010923C0810923D08C12CD12C40E8E42EAD
:105210004FE3F42EC0923E08D0923F08E09240083F
:10522000F09241088DE492E09093F2078093F107A9
:1052300081E08093F8071092010810920208109202
:1052400003081092040810920508109206081092A4
:105250000708109208081092090810920A08109284
:105260000B0810920C0810920D0810920E08109264
:105270000F08109210081092110810921208109244
:10528000130810921408C0921508D0921608E092E4
:105290001708F09218081092F4071092F507109270
:1052A000F6071092F70781E090E090931E08809334
:1052B0001D088FEF809320081092190810921A0889
:1052C00010921B0810921C0884E08093F90796E066
:1052D0009093FA078093FB0785E08093FC07109278
:1052E0001F08109225081092260810922708109285
:1052F00028081092290810922A0810922B08109260
:105300002C0810922D0810922E0810922F0810923F
:105310003008C0923108D0923208E0923308F092FF
:1053200034081092F3071092FD071092FE071092B6
:10533000FF071092000881EF97E00E94211DC7012E
:10534000B6010E94F622A701960160910D087091A6
:105350000E0880910F08909110080E94413F882309
:1053600019F1C0920D08D0920E08E0920F08F09249
:10537000100880E094E2A4E7B9E4809331089093A8
:105380003208A0933308B093340880912508909197
:105390002608A0912708B0912808181619061A06A1
:1053A0001B0614F40E949B201092BF071092BE07A8
:1053B00020EF30E03093C1072093C00780E491E0F4
:1053C0009093C3078093C2073093C5072093C40707
:1053D0009093C7078093C6071092D2071092C9070F
:1053E0001092C8071092CB071092CA0781E08093F1
:1053F000D1078093D0072FEF3FEF3093CF07209353
:10540000CE073093CD072093CC078093D30710921B
:10541000D4071092D6071092D50781E292E09093BC
:10542000BD078093BC0788E38093AA0787E3809336
:10543000AC0786E08093AB0787E08093AD078CE2F2
:1054400091E09093AF078093AE07E3E3FFE0E49130
:10545000F0E0EE0FFF1FEE5EF04F85919491909378
:10546000B1078093B007E4E6FFE0E491F0E0EE0FCF
:10547000FF1FEE5EF04F859194919093B307809358
:10548000B207E3E6FFE0E491F0E0EE0FFF1FEE5E0F
:10549000F04F859194919093B5078093B407E2E320
:1054A000FFE0E491F0E0EE0FFF1FEE5EF04F85911C
:1054B00094919093B7078093B607E3EDFEE0E491F3
:1054C000E093B807E4E0FFE0E491E093BA07E3E09B
:1054D000FFE0E491E093B907E2EDFEE0E491E093B0
:1054E000BB078AE090E09093A9078093A8071092E9
:1054F0008B0710928A0710926D0710926C0710921A
:105500004F0710924E0710923107109230071092F9
:105510001307109212071092F5061092F4061092DB
:10552000D7061092D6061092B9061092B8061092BD
:105530009B0610929A0610927D0610927C0610929D
:105540005F0610925E06109241061092400610927D
:10555000230610922206109205061092040610925D
:10556000E7051092E6051092C9051092C805109241
:10557000AB051092AA0510928D0510928C05109221
:105580006F0510926E051092510510925005109201
:1055900033051092320510921505109214051092E1
:1055A000F7041092F604FF90EF90DF90CF900895EB
:1055B000CF93DF9300D0CDB7DEB7789484B5826007
:1055C00084BD84B5816084BD85B5826085BD85B5A7
:1055D000816085BD80916E00816080936E00109225
:1055E00081008091810082608093810080918100A0
:1055F0008160809381008091800081608093800031
:105600008091B10084608093B1008091B00081608E
:105610008093B0008091910082608093910080918E
:1056200091008160809391008091900081608093CF
:1056300090008091A10082608093A1008091A100E0
:1056400081608093A1008091A00081608093A00080
:1056500080912101826080932101809121018160EC
:1056600080932101809120018160809320018091AD
:105670007A00846080937A0080917A0082608093BF
:105680007A0080917A00816080937A0080917A001C
:10569000806880937A001092C100E0916904F091D3
:1056A0006A0482E08083E0916504F09166041082D0
:1056B000E0916704F091680480E1808310927104A6
:1056C000E0916D04F0916E0486E08083E0916B04BC
:1056D000F0916C04808180618083E0916B04F09193
:1056E0006C04808188608083E0916B04F0916C048D
:1056F000808180688083E0916B04F0916C048081EC
:105700008F7D80836DEA72E089E594E00E948723B3
:1057100061E772E089E594E00E94872320E030E0B1
:1057200046E954E460910D0870910E0880910F08CD
:10573000909110080E94413F882339F180E090E069
:10574000A6E9B4E480930D0890930E08A0930F0887
:10575000B093100885E595E5A0E5B4E480933108A1
:1057600090933208A0933308B093340880912508B1
:1057700090912608A0912708B091280818161906BC
:105780001A061B0614F40E949B2020E030E04AE732
:1057900054E46091090870910A0880910B08909177
:1057A0000C080E94413F8823E9F180900D089090F9
:1057B0000E08A0900F08B090100875016401F7FA68
:1057C000F094F7F8F09420E030E04AE754ECC5019B
:1057D000B4010E94413F87FD0CC020E030E04AE761
:1057E00054E4C501B4010E94413F87FF16C1750111
:1057F000640120E030E0A901C701B6010E94413FE9
:10580000811111C11092F4071092F5071092F6075A
:105810001092F707C0920908D0920A08E0920B088C
:10582000F0920C0860E070E086E994E40E94F622B1
:1058300062EC72E089E594E00E94872361E772E000
:1058400089E594E00E9487236EED72E089E594E09B
:105850000E94DB2484E190E00E94E22364EE72E087
:1058600089E594E00E94DB2485E190E00E94E22338
:1058700090E080E00E94533E8093250481E090E018
:105880000E94533E8093260482E090E00E94533EA3
:105890008093270483E090E00E94533E8093280485
:1058A000C0902504D0902604E0902704F0902804AE
:1058B00084E090E00E94533E8093380485E090E0BD
:1058C0000E94533E8093390486E090E00E94533E4C
:1058D00080933A0487E090E00E94533E80933B041B
:1058E0008091380490913904A0913A04B0913B041E
:1058F00080933A0890933B08A0933C08B0933D08EE
:10590000C0923E08D0923F08E0924008F0924108D1
:1059100085E18093370884E18093380861E085E170
:105920000E94AB0860E0809138080E94AB0881E0DB
:105930008093390860E090E080E00E94000D7C01D7
:10594000883024E5920791F1803234E5930771F1B4
:105950008938994809F465C160E087E690E00E94C3
:10596000000D37E4E32E33E8F32E87349744F1F04B
:105970008FEE90E00E940F0E7B0187E2E81683E92C
:10598000F806A1F081EA90E00E94F00D23E6E22EF5
:1059900029E1F22E613091E6790741F06F3F7607F9
:1059A00009F063C0A6E2EA2EA5E1FA2E0E94D10C0E
:1059B0001092D8071092D707F092DC07E092DB072D
:1059C00031E3E31630E8F30611F40C949B3808F049
:1059D00015C253E5E51650E2F50611F40C94FB38B8
:1059E00008F095C191E1E91695E1F90609F403C3C0
:1059F00008F042C1E9E9EE16F10411F40C94AD3857
:105A000008F023C180E091E1EA94EF2809F42BC16A
:105A10001092C1071092C007EBC2C12CD12CBAE77B
:105A2000EB2EB4E4FB2EA701960160E074E284E75C
:105A300099E40E94463F9F770E94BF3F6093F4071E
:105A40007093F5078093F6079093F707BB24B39400
:105A500020E030E0A901C701B6010E94A04018165D
:105A60000CF0B12CB092F307D5CE6115EFEF7E07A5
:105A700029F4F0E2EF2EF5E1FF2E98CF91EAE92E1E
:105A800095E0F92E6115704F09F490CF8FEB90E0FF
:105A90000E940F0E7B01673523E8720709F486CF59
:105AA000613834E9730709F481CF613145E1740746
:105AB00009F47CCF60327541E1F286E2E81685E1B7
:105AC000F80609F46FCF91E8E91695E1F90609F4B3
:105AD0006DCFE114A4E1FA0609F4A8C084ED90E0CA
