:100000000C947A040C94AB040C94AB040C94AB04E5
:100010000C94AB040C94AB040C94AB040C94AB04A4
:100020000C94AB040C94AB040C94AB040C94AB0494
:100030000C94AB040C94AB040C94AB040C94AB0484
:100040000C94AB040C94AB040C94AB040C94AB0474
:100050000C94AB040C94AB040C94AB040C94361EBF
:100060000C94AB040C94AA1E0C94801E0C94AB044C
:100070000C94AB040C94AB040C94AB040C94AB0444
:100080000C94AB040C94AB040C94AB040C94AB0434
:100090000C94AB040C94AB040C94AB040C94AB0424
:1000A0000C94AB040C94AB040C94AB040C94AB0414
:1000B0000C94AB040C94AB040C94AB040C94AB0404
:1000C0000C94AB040C94AB040C94AB040C94AB04F4
:1000D0000C94AB040C94AB040C94AB040C94AB04E4
:1000E0000C94AB040C94EA040C9413170C94E604DF
:1000F0000C9402050C9411060C94D1040C949B14DE
:100100000C94AB140C94AA160C94D9040C944D06C0
:100110000C9455160C947A150C949B170C94CB04E4
:100120000C9477150C94FB150C9461060C94DD046B
:100130000C94F1150C9485170C94341E0C94DA0D64
:100140000C947A0B0C94C3140C94B7140C94FF0801
:100150000C9476150C9451170C94AE150C949317BF
:100160000C94CC150C94FF150C943E060C94241999
:100170000C949A140C94F8040C94C70D0C94D709A1
:100180000C94F0040C9455100C94F4040C946F0629
:100190000C94D5040C94FD160C94A7060C944E0BED
:1001A0000C9470170C94FD150C94F3150C947717A0
:1001B0000C94CB160C94CA140C9406050C940F07DF
:1001C0000C9427110C94E0040C9425190C947E17C0
:1001D0000C9423190C949A170C940B050C94761616
:1001E0000C94FE040C9468170C948C170C94F7155F
:1001F0000C94E01E0C9410050C944E130C94F51501
:100200000C94F9150C94321E0C940C057829204599
:1002100078697400352920526573657276656400CB
:1002200034292052656164205363616C6520436FFB
:100230006E74696E756F75736C7900332920436134
:100240006C696272617465205363616C6500322968
:100250002054617265205363616C6500312920432D
:100260006F6E766579204B61626F6F6D004D6169CD
:100270006E204D656E753A0000000000003E5B4F39
:100280005B3E3E6B4F6B3E1C3E7C3E1C183C7E3CF6
:10029000181C577D571C1C5E7F5E1C00183C180004
:1002A000FFE7C3E7FF0018241800FFE7DBE7FF3094
:1002B000483A060E2629792926407F050507407F02
:1002C00005253F5A3CE73C5A7F3E1C1C08081C1C75
:1002D0003E7F14227F22145F5F005F5F06097F016B
:1002E0007F006689956A606060606094A2FFA29456
:1002F00008047E040810207E201008082A1C080824
:100300001C2A08081E101010100C1E0C1E0C303871
:100310003E3830060E3E0E06000000000000005F72
:1003200000000007000700147F147F14242A7F2A8E
:100330001223130864623649562050000807030050
:10034000001C2241000041221C002A1C7F1C2A089C
:10035000083E0808008070300008080808080000FF
:1003600060600020100804023E5149453E00427F73
:10037000400072494949462141494D331814127FC2
:100380001027454545393C4A494931412111090762
:100390003649494936464949291E000014000000E3
:1003A00040340000000814224114141414140041B5
:1003B00022140802015909063E415D594E7C121172
:1003C000127C7F494949363E414141227F414141AA
:1003D0003E7F494949417F090909013E4141517325
:1003E0007F0808087F00417F41002040413F017F96
:1003F000081422417F404040407F021C027F7F045E
:1004000008107F3E4141413E7F090909063E4151A6
:10041000215E7F09192946264949493203017F0196
:10042000033F4040403F1F2040201F3F4038403F97
:10043000631408146303047804036159494D4300AD
:100440007F4141410204081020004141417F0402E4
:10045000010204404040404000030708002054547B
:1004600078407F2844443838444444283844442859
:100470007F385454541800087E090218A4A49C78AC
:100480007F0804047800447D40002040403D007F08
:100490001028440000417F40007C047804787C08E8
:1004A0000404783844444438FC18242418182424BC
:1004B00018FC7C08040408485454542404043F44A1
:1004C000243C4040207C1C2040201C3C4030403CD0
:1004D00044281028444C9090907C4464544C440030
:1004E0000836410000007700000041360800020194
:1004F0000204023C2623263C1EA1A161123A404080
:10050000207A3854545559215555794122545478FC
:1005100042215554784020545579400C1E52721295
:10052000395555555939545454593955545458001E
:1005300000457C410002457D420001457C407D1222
:1005400011127DF0282528F07C5455450020545484
:100550007C547C0A097F4932494949323A4444442F
:100560003A324A4848303A4141217A3A424020786A
:10057000009DA0A07D3D4242423D3D4040403D3C6B
:1005800024FF2424487E4943662B2FFC2F2BFF0990
:1005900029F620C0887E0903205454794100004484
:1005A0007D413048484A32384040227A007A0A0A6F
:1005B000727D0D19317D2629292F282629292926E2
:1005C00030484D4020380808080808080808382F27
:1005D00010C8ACBA2F102834FA00007B00000814B1
:1005E0002A142222142A14085500550055AA55AA87
:1005F00055AAFF55FF55FF000000FF00101010FF27
:1006000000141414FF001010FF00FF1010F010F081
:10061000141414FC001414F700FF0000FF00FF1472
:1006200014F404FC141417101F10101F101F1414BE
:10063000141F00101010F0000000001F1010101008
:100640001F10101010F010000000FF1010101010FC
:1006500010101010FF10000000FF140000FF00FF3A
:1006600000001F10170000FC04F4141417101714D6
:1006700014F404F40000FF00F714141414141414F8
:10068000F700F7141414171410101F101F1414146B
:10069000F4141010F010F000001F101F0000001FD5
:1006A00014000000FC140000F010F01010FF10FF08
:1006B000141414FF141010101F00000000F010FF9D
:1006C000FFFFFFFFF0F0F0F0F0FFFFFF0000000081
:1006D00000FFFF0F0F0F0F0F3844443844FC4A4A05
:1006E0004A347E02020606027E027E0263554941BA
:1006F000633844443C04407E201E2006027E0202F1
:1007000099A5E7A5991C2A492A1C4C7201724C3004
:100710004A4D4D303048784830BC625A463D3E49DB
:100720004949007E0101017E2A2A2A2A2A44445F7F
:10073000444440514A444040444A51400000FF0173
:1007400003E080FF000008086B6B08361236243681
:10075000060F090F060000181800000010100030E6
:1007600040FF0101001F01011E00191D1712003C6E
:100770003C3C3C00000000000A0D47657474696E43
:1007800067205461726520706F696E743A2000456D
:1007900078697465642053797374656D20436F6E56
:1007A0006669672C20707265737320616E79206BA7
:1007B000657920746F20676F206261636B20696EBA
:1007C000746F2053797374656D20436F6E6669672B
:1007D0000000002100240027002A002D00300033F3
:1007E0000001010000040107010A010000200023AC
:1007F00000260029002C002F003200000100000319
:10080000010601090100000A0B02090C0D0E080780
:1008100003040100000000000000000000000000D0
:1008200000000000000000000000000000000000C8
:100830000012111000000000000000000000000085
:100840000000000000000000000000010210202055
:100850000808102040102040800201020108040214
:10086000010102040810204080804020100804028A
:1008700001800402018040201008040201080402E3
:1008800001010204081020408001020408102040E9
:100890008000002200250028002B002E00310034AB
:1008A0000002010000050108010B0105050505070F
:1008B0000508080808020202020A0A0808040404DB
:1008C0000401010101010101010303030303030307
:1008D00003040707070C0C0C0C0C0C0C0C02020296
:1008E0000206060606060606060B0B0B0B0B0B0B89
:1008F0000B00E01E11241FBECFEFD1E2DEBFCDBF43
:1009000000E00CBF13E0A0E0B2E0ECECF1E600E0A8
:100910000BBF02C007900D92A43EB107D9F726E0A5
:10092000A4EEB3E001C01D92A23AB207E1F714E0D1
:10093000CAE7D4E000E006C021970109802FFE013C
:100940000E94622BC937D10780E00807A9F70E94EF
:10095000DC200C94E4300C9400008150823108F0CB
:100960005AC0E82FF0E08827E754FB4F8F4F0C94D4
:10097000622BD904DD04CB04D104D5040B05E004BB
:10098000E604EA04F004F404F804FE0402050B058E
:1009900006050C051005809180008F7780938000FC
:1009A0000895809180008F7DF9CF80918000877FAE
:1009B000F5CF84B58F7784BD089584B58F7DFBCF47
:1009C0008091B0008F778093B00008958091B0003F
:1009D0008F7DF9CF809190008F778093900008955C
:1009E000809190008F7DF9CF80919000877FF5CF27
:1009F0008091A0008F778093A00008958091A0003F
:100A00008F7DF9CF8091A000877FF5CF8091200165
:100A10008F77809320010895809120018F7DF9CFF9
:100A200080912001877FF5CFCF93DF93282F30E08F
:100A3000F901EB5FF74F8491F901E55BF74FD49132
:100A4000F901E555F74FC491CC23A1F081110E9423
:100A5000AD04EC2FF0E0EE0FFF1FE551F84FA5912C
:100A6000B491EC91ED2381E090E009F480E0DF9116
:100A7000CF91089580E090E0FACF1F93CF93DF935A
:100A8000282F30E0F901EB5FF74F8491F901E55B26
:100A9000F74FD491F901E555F74FC491CC23A9F054
:100AA000162F81110E94AD04EC2FF0E0EE0FFF1F16
:100AB000EF56F74FA591B4918FB7F894EC911111BF
:100AC00008C0D095DE23DC938FBFDF91CF911F91BB
:100AD0000895DE2BF8CFCF93DF9390E0FC01E55B28
:100AE000F74F24918555974FFC0184918823D1F0CD
:100AF00090E0880F991FFC01EF52F84FA591B49137
:100B0000FC01EF56F74FC591D49161110EC09FB70C
:100B1000F8948C91E22FE0958E238C932881E22328
:100B2000E8839FBFDF91CF9108958FB7F894EC9140
:100B3000E22BEC938FBFF6CF863308F086532091DB
:100B40007B00982F9870277F922B90937B00877063
:100B5000806480937C0080917A00806480937A0026
:100B600080917A0086FDFCCF809178009091790089
:100B700008953FB7F8948091FB039091FC03A091F6
:100B8000FD03B091FE0326B5A89B05C02F3F19F0C9
:100B90000196A11DB11D3FBFBA2FA92F982F8827FD
:100BA000BC01CD01620F711D811D911D42E0660FD8
:100BB000771F881F991F4A95D1F708958F929F92AA
:100BC000AF92BF92CF92DF92EF92FF926B017C01C6
:100BD0000E94B9054B015C01C114D104E104F10488
:100BE000B9F00E94B905681979098A099B09683E1C
:100BF00073408105910580F321E0C21AD108E10814
:100C0000F10888EE880E83E0981EA11CB11CE4CF89
:100C1000FF90EF90DF90CF90BF90AF909F908F901C
:100C20000895AF92BF92CF92DF92EF92FF920F930F
:100C30001F93CF93DF936C017B018B01040F151F72
:100C4000EB015E01AE18BF08C017D10759F06991DA
:100C5000D601ED91FC910190F081E02DC60119952E
:100C6000892B79F7C501DF91CF911F910F91FF90EB
:100C7000EF90DF90CF90BF90AF900895FC01538D1F
:100C8000448D252F30E0842F90E0821B930B541766
:100C900010F0CF96089501970895FC01918D828DF3
:100CA000981761F0A28DAE0FBF2FB11D5D968C918C
:100CB000928D9F5F9F73928F90E008958FEF9FEFCB
:100CC0000895FC01918D828D981731F0828DE80F87
:100CD000F11D858D90E008958FEF9FEF0895FC0141
:100CE000918D228D892F90E0805C9F4F821B91090E
:100CF0008F73992708958FEF93E00E946F0621E08C
:100D0000892B09F420E0822F0895FC01A48DA80FFF
:100D1000B92FB11DA35ABF4F2C91848D90E001963D
:100D20008F739927848FA689B7892C93A089B1895D
:100D30008C91837080648C93938D848D981306C0FE
:100D40000288F389E02D80818F7D80830895EF9262
:100D5000FF920F931F93CF93DF93EC0181E0888F75
:100D60009B8D8C8D98131AC0E889F989808185FF45
:100D700015C09FB7F894EE89FF896083E889F989E7
:100D800080818370806480839FBF81E090E0DF91E9
:100D9000CF911F910F91FF90EF900895F62E0B8D3C
:100DA00010E00F5F1F4F0F731127E02E8C8D8E11F7
:100DB0000CC00FB607FCFACFE889F989808185FF5E
:100DC000F5CFCE010E948506F1CFEB8DEC0FFD2F04
:100DD000F11DE35AFF4FF0829FB7F8940B8FEA8919
:100DE000FB8980818062CFCF0F931F93CF93DF93D6
:100DF0008C01D0E0C0E0F801EC0FFD1F6491662388
:100E000041F08FEF93E00E94A706892B11F0219605
:100E1000F2CFCE01DF91CF911F910F910895CF9323
:100E2000DF93EC01888D8823B9F0AA89BB89E88912
:100E3000F9898C9185FD03C0808186FD0DC00FB6B8
:100E400007FCF7CF8C9185FFF2CF808185FFEDCF36
:100E5000CE010E948506E9CFDF91CF91089580E011
:100E600090E0892B29F00E947B0681110E940000EE
:100E700080E090E0892B49F080E090E0892B29F018
:100E80000E94000081110E94000080E090E0892B08
:100E900049F080E090E0892B29F00E940000811148
:100EA0000E94000080E090E0892B49F080E090E013
:100EB000892B29F00E94000081110C9400000895F4
:100EC0008B988A9820910201277820930201A59897
:100ED0002EB1277C2EB970910201292F30E0F90143
:100EE000A5E0EE0FFF1FAA95E1F7E076E72BE09370
:100EF00002017EB1F901EE0FFF1FEE0FFF1FE0733D
:100F0000E72BEEB974B3F901EE0FFF1FE072E72B88
:100F1000E4BB7EB1F901F595E795F595E795E870A5
:100F2000E72BEEB970910201E3E035952795EA953C
:100F3000E1F72871272B209302018998899A209143
:100F40000201277820930201A5982EB1277C2EB9A3
:100F5000709102019C01F5E0880F991FFA95E1F765
:100F60008076872B809302017EB1C901880F991F7B
:100F7000880F991F8073872B8EB974B3C901880FAE
:100F8000991F8072872B84BB7EB1C9019595879587
:100F9000959587958870872B8EB980910201F3E033
:100FA00035952795FA95E1F72871282B20930201B2
:100FB0008998899A8A9AFA01615008F43EC0819111
:100FC00090910201977890930201A5989EB1977C29
:100FD0009EB94091020190E09C0155E0220F331F21
:100FE0005A95E1F72076242B209302014EB19C0103
:100FF000220F331F220F331F2073242B2EB944B32B
:101000009C01220F331F2072242B24BB4EB19C0164
:1010100035952795359527952870242B2EB9209145
:10102000020133E0959587953A95E1F78871822B17
:10103000809302018998899ABFCF8B9A08958B98E3
:101040008A98E2E0F1E0208127782083A5982EB1EC
:10105000277C2EB9A081292F30E0A901B5E0440FEB
:10106000551FBA95E1F740764A2B4083AEB1A901EE
:10107000440F551F440F551F40734A2B4EB9A4B35C
:10108000A901440F551F40724A2B44BBAEB1A901C0
:10109000559547955595479548704A2B4EB94081CF
:1010A00053E0359527955A95E1F72871242B208335
:1010B0008998899A208127782083A5982EB1277C4A
:1010C0002EB940819C01A5E0880F991FAA95E1F7F0
:1010D0008076842B80834EB1C901880F991F880FB9
:1010E000991F8073842B8EB944B3C901880F991F4F
:1010F0008072842B84BB4EB1C901959587959595D7
:1011000087958870842B8EB98081B3E035952795BB
:10111000BA95E1F72871282B20838998899A8A9AB1
:10112000808187788083A5988EB1877C8EB9408135
:10113000872F90E09C0155E0220F331F5A95E1F76D
:101140002076242B20834EB19C01220F331F220FC7
:10115000331F2073242B2EB944B39C01220F331F5D
:101160002072242B24BB4EB19C01359527953595D3
:1011700027952870242B2EB92081A3E0959587957B
:10118000AA95E1F78871822B80838998899A80815A
:1011900087788083A5988EB1877C8EB94081CB01FA
:1011A0009B01B5E0220F331FBA95E1F72076242B7F
:1011B00020834EB19B01220F331F220F331F207358
:1011C000242B2EB944B39B01220F331F2072242BF2
:1011D00024BB4EB19C0135952795359527952870F0
:1011E000242B2EB92081A3E095958795AA95E1F748
:1011F0008871822B80838998899A8B9A0895FC0143
:10120000262F358D868D82958170982F9627692F90
:1012100070E072A361A330FF0CC0821307C080E2AC
:1012200090E050E040E060E00C94600781E290E0E4
:10123000F8CF878D90A1833927E7920741F058F4C2
:10124000843521E0920791F080329445C1F46260C8
:1012500081E094E012C0863223E99207C1F389301D
:1012600025EB9207A1F38532924949F4660F771F67
:10127000660F771F636187E090E00C941F0881E69A
:1012800090E0FBCF8F929F92AF92BF92CF92DF926E
:10129000EF92FF920F931F93CF93DF9300D01F9293
:1012A000CDB7DEB77C014B015A016901FC01878D86
:1012B00090A18632954151F4F701868980FF06C0DE
:1012C000C801841B950B81F50F5F1F4FF701858DBA
:1012D00080FF31C085A599828A82DB82CC82AE01F3
:1012E0004F5F5F4F64E090E00E946007F70181A9C3
:1012F000B982AA821B830C83AE014F5F5F4F64E00B
:1013000090E00E9460070F900F900F900F90DF9178
:10131000CF911F910F91FF90EF90DF90CF90BF90F2
:10132000AF909F908F9008952617370779F6C80ED3
:10133000D91E8A01CBCFB40187A190A50E941F08B6
:10134000B501F70181A592A50E941F08C814D90410
:1013500019F40A151B05B9F2F701858D85FF08C040
:10136000868980FF1EC0102F0027A02AB12A850180
:10137000B401F70185A596A50E941F08B501F701E4
:1013800081A992A90E941F08B601F70187A590A91B
:101390000E941F08B801F70183A994A90E941F08A1
:1013A000B2CFDC2CCC248C289D286401E1CFAF92F5
:1013B000BF92CF92DF92EF92FF920F931F93CF9342
:1013C000DF93EC0137FF05C0620F731F3195219544
:1013D0003109260F371F77FF02C070E060E0888573
:1013E0009985281739070CF4C9016C01C61AD70A68
:1013F00017FF05C0400F511F119501951109040FEA
:10140000151F57FF02C050E040E02A853B850217B8
:1014100013070CF498015901A41AB50A8901015067
:1014200011099C0121503109CE010E9442098B987B
:101430008A985BA54CA58091020187788093020170
:10144000A5988EB1877C8EB960910201842F90E0BF
:101450009C0175E0220F331F7A95E1F72076262B49
:10146000209302016EB19C01220F331F220F331F04
:101470002073262B2EB964B39C01220F331F2072D8
:10148000262B24BB6EB19C01359527953595279564
:101490002870262B2EB920910201B3E095958795EF
:1014A000BA95E1F78871822B809302018998899A15
:1014B00080910201877880930201A5988EB1877C84
:1014C0008EB960910201852F942F9C0115E0220FA7
:1014D000331F1A95E1F72076262B209302014EB197
:1014E0009C01220F331F220F331F2073242B2EB990
:1014F00044B39C01220F331F2072242B24BB4EB116
:101500009C0135952795359527952870242B2EB964
:101510002091020173E0959587957A95E1F788719E
:10152000822B809302018998899A8A9ACA14DB04D3
:101530002CF09A2D8B2D5601C92ED82E8F2D90E090
:101540009C0145E0220F331F4A95E1F7322F307698
:10155000AC01440F551F440F551F4073BC01660F6B
:10156000771F562F5072BC017595679575956795D5
:101570006870A3E095958795AA95E1F7282F2871C3
:10158000C701F701B5E0EE0FFF1FBA95E1F77E2F17
:101590007076F701EE0FFF1FEE0FFF1FE073D7010C
:1015A000AA0FBB1FFA2FF072D701B595A795B59575
:1015B000A7951A2F187003E0959587950A95E1F77E
:1015C00088711C141D040CF043C0D50190910201D8
:1015D000977890930201A5989EB1977C9EB99091BF
:1015E0000201932B909302019EB1942B9EB994B368
:1015F000952B94BB9EB1962B9EB990910201922B94
:10160000909302018998899A90910201977890931A
:101610000201A5989EB1977C9EB990910201972BEB
:10162000909302019EB19E2B9EB994B39F2B94BBC5
:101630009EB1912B9EB990910201982B909302013B
:101640008998899A119711F691E0C91AD108B9CFF2
:101650008B9A8D8D80FF08C08F8D98A18632954121
:1016600091F48E8980FF0FC00A851B8501501109F6
:10167000288539852150310950E040E070E060E074
:10168000CE010E944209DF91CF911F910F91FF90EF
:10169000EF90DF90CF90BF90AF900895EF92FF92C0
:1016A0000F931F93CF93DF93EC0177FD1CC057FD81
:1016B0001AC0E885F9856E177F07ACF4EA85FB85CB
:1016C0004E175F0784F479018A019B010E94420949
:1016D000B7018BA59CA5DF91CF911F910F91FF9032
:1016E000EF900C941F08DF91CF911F910F91FF9005
:1016F000EF900895EF92FF920F931F93CF93DF9394
:1017000000D000D000D01F92CDB7DEB77C01862F6D
:101710008370F701868B962F917060FFE3C026815E
:101720003781F70131872087992309F4DEC02481AE
:101730003581F70133872287823009F4DBC083309B
:1017400009F4DAC0813009F4D3C088E48A87F7014C
:10175000858D968D90FF03C02A8520582A8791FF9A
:1017600004C02A8530E423272A8793FF04C02A85F2
:1017700038E023272A87F701278D30A180FF00C199
:101780002431F8E63F0709F0B9C09A85892F88729D
:101790008A871F82892F85958074282F2260892F40
:1017A00090E09595879580729927822B88878BE3A7
:1017B0008987AE01495F5F4F63E086EB90E00E944E
:1017C00060072AE230E0F70130A727A38BE290E020
:1017D00092A781A74CE250E054A743A736A725A7BC
:1017E00030AB27A792AB81AB94AB83ABAE01465F26
:1017F0005F4F61E086E390E00E9460078A8590E099
:10180000F70194A383A3F701868980FF1CC0858D0F
:10181000968D92FD18C087A190A521A532A530A76D
:1018200027A392A781A785A596A521A932A936A7A6
:1018300025A792AB81AB87A590A923A934A930AB8A
:1018400027A794AB83ABF7010285138501501109DB
:10185000208531852150310950E040E070E060E0A2
:10186000C7010E944209F70166817781878D90A1A7
:1018700020E08732F3E99F0709F420E2F701358D74
:1018800030FF39C119821A827B836C831D822E83BB
:10189000AE014F5F5F4F66E083E390E00E94600718
:1018A00019821A82AE014F5F5F4F62E087E390E0DA
:1018B0000E946007F701858D80FF07C050E040E07F
:1018C00060E083E190E00E9460072A960FB6F894EA
:1018D000DEBF0FBECDBFDF91CF911F910F91FF9063
:1018E000EF900895248135811CCF2681378121CF47
:1018F00088E22CCF88E92ACF88EF28CF273243E926
:10190000340789F41F8281E388878A8585958595C8
:101910008595859588708987AE01495F5F4F63E043
:1019200080EC90E04CCF233689E1380749F021382C
:10193000E4E93E0729F02131F5E13F0709F041CF05
:101940008A8587FF02C081608A878A8586FF02C0F8
:1019500082608A878A858F73233649E1340731F0A4
:10196000213884E9380721F48A858F728A8729CF44
:101970002131354109F025CF8A858F7E806CF6CFE5
:101980006A85862F062E000C990B2339F7E73F074F
:1019900051F0A8F52435E1E03E0709F45CC020329F
:1019A000F4E53F07A1F540E052E0F70150A747A357
:1019B00041E052E052A741A742E052E054A743A7BA
:1019C00040E152E056A745A741E152E050AB47A79E
:1019D00042E152E052AB41AB43E152E054AB43AB86
:1019E000882790782632F3E93F0721F020323445EA
:1019F00009F071C067FD846060E071E36EC026325B
:101A000043E9340781F22930E5EB3E0761F220E239
:101A100030E0F70130A727A321E230E032A721A769
:101A200022E230E034A723A720E530E036A725A73F
:101A300021E530E030AB27A722E530E032AB21AB27
:101A400023E530E034AB23ABBC01662770787762C6
:101A500080E690E046C027E330E0F70136A725A7EF
:101A600026E330E030AB27A729E330E032AB21ABEF
:101A700028E330E034AB23AB20E230E030A727A3EB
:101A800021E230E032A721A722E230E034A723A7E9
:101A9000F4E06F9FB001112466277170882792705F
:101AA0008862682B792B81E090E00E941F088A856C
:101AB000682F70E0759567957595679568707727BD
:101AC00083FD70616063F70174A363A383E090E01A
:101AD0000E941F0898CE60E072E6682B792B80E0A8
:101AE00094E00E941F086A85F4E06F9FB001112402
:101AF00066277170D8CF8339F7E79F07D9F1F0F4E3
:101B0000803244E59407B1F18338E7E79E0731F16D
:101B100084359140F1F46150710981E390E00E94B5
:101B20001F0870E060E082E390E00E941F0870E010
:101B300060E083E390E00E941F08C7CE863223E96D
:101B40009207C1F0893045EB9407A1F085329249A4
:101B500011F3F70161A172A1626003C0F70161A1F5
:101B600072A181E690E00E941F0870E060E08AE6C2
:101B700090E0E1CFF70161A172A1626081E094E0A1
:101B80000E941F0870E060E084E094E0D4CFEF9200
:101B9000FF920F931F93DC01ED91FC9100A0F1A146
:101BA000E02D780101E010E019951F910F91FF9051
:101BB000EF900895EF92FF920F931F93DC01ED9148
:101BC000FC9100A0F1A1E02D7801890121E030E035
:101BD00019951F910F91FF90EF900895FC01248DAE
:101BE000211102C0858D089580E00895FC01848D47
:101BF000882319F0858D91E089270895FC01828161
:101C0000938168177907A4F026813781820F931F8B
:101C1000681779076CF4248135814217530744F023
:101C200080859185280F391F81E0421753070CF0FA
:101C300080E008950895FC016370668B848195812E
:101C400026813781613039F0633029F091878087B0
:101C50003387228708953187208793878287089565
:101C60002F923F924F925F926F927F928F929F92AC
:101C7000AF92BF92CF92DF92EF92FF920F931F939A
:101C8000CF93DF93CDB7DEB76A970FB6F894DEBF78
:101C90000FBECDBF9A8F898F7A8369834A01D22E76
:101CA00018870F833701BC2CDC0159962D913C918C
:101CB0005A972115310509F015C118968D919C91FF
:101CC0001997681779070CF0D7C11A968D919C91D6
:101CD000481759070CF0D0C14C2C512CB6E0CB9EC4
:101CE000600D711D11247C876B87161617060CF08A
:101CF000C3C1EA2DF0E0FA87E98793E0EE0FFF1FFA
:101D00009A95E1F7F88BEF87CF01840F951F18168E
:101D100019060CF0B1C1A98DBA8D58968C9181111C
:101D200004C0BFEABD1508F4D394A98DBA8DED9116
:101D3000FC9111970284F385E02DCD011995B5E052
:101D4000DB9EC0011124E981FA81FC83EB83312CF5
:101D5000212C9C0128583D4F388F2F8B4A2D50E065
:101D60005E8B4D8BEF89F88DE20DF31D44919E82C1
:101D70008D82D12CC12C69817A81620D731D7A8B81
:101D8000698B842F90E09C8B8B8BE98DFA8DA081E1
:101D9000B18140FF82C0F1E0BF126FC0AF126DC0D1
:101DA0001C96ED91FC912F813885A4014C0D5D1D91
:101DB00069897A89898D9A8D1995EB89FC89F595C0
:101DC000E7954E2F5FEFC51AD50A6D817E818D890B
:101DD0009E89680F791F7E836D8398E0C916D104B0
:101DE00081F6AFEF2A1A3A0AEB81FC81E40DF51D6A
:101DF000FC83EB83F5E02F16310409F0B3CF2F817C
:101E0000388526153705B9F0A98DBA8DED91FC916D
:101E1000B1E0BB1257C0AB1255C069817A816B5FCC
:101E20007F4F0088F189E02D830128E030E0A40194
:101E3000898D9A8D1995A98DBA8DED91FC91119787
:101E40000688F789E02DCD016A960FB6F894DEBFBB
:101E50000FBECDBFDF91CF911F910F91FF90EF90FB
:101E6000DF90CF90BF90AF909F908F907F906F90BA
:101E70005F904F903F902F9019941E96ED91FC919A
:101E8000EF80F88409851A8592014D815E816B810E
:101E90007C81898D9A8D199590CF2F813885261553
:101EA000370509F48ACF31E0B31207C0A31205C089
:101EB0001C96ED91FC91930178CF1E96ED91FC91CB
:101EC0007301E0CF6B857C85641975090684F785FD
:101ED000E02D73010F8518899201A401898D9A8DD7
:101EE0001995A9CFF901349694913297459154915F
:101EF000D91AB7E0DB9E400D511D1124F90125913F
:101F000034913C8B2B8BFA0125903490FA01329658
:101F1000749031963491398B329664903196449016
:101F200041E04C1518F04A1508F07FC0662D062CCC
:101F3000000C770B7C836B83842D042C000C990B95
:101F40009E838D83A98DBA8DED91FC9111970284AA
:101F5000F385E02DCD011995512CD12CC12CEA2D02
:101F6000F0E0FA87E9872B2D30E03C872B87A4012E
:101F7000440D511D47FC5A95588F4F8B69817A81CA
:101F8000660D711D67FC7A957E876D877989C71606
:101F900008F051CF2C2D30E04D815E81420F531F50
:101FA000A985BA854A9FC0014B9F900D5A9F900DFD
:101FB0001124FC01E80DF91DF88BEF87852D612CAC
:101FC0004F89588D420F531F5E8B4D8B671408F05D
:101FD00050C044244394480E877041F4C1010196D7
:101FE000EB89FC89E20DF31DD4901C01D7FE19C0CA
:101FF000A98DBA8DED91FC91662D70E0B1E0BB1218
:1020000019C0AB1217C02D853E85620F731F048463
:10201000F585E02D2F8138854D895E89898D9A8DD2
:102020001995DD0C6394842DD1CF1E821D821C82F4
:102030001B8288CF4B815C81640F751FAB85BC858B
:102040006A9FC0016B9F900D7A9F900D112469814A
:102050007A81680F791F0684F785E02DEF80F88478
:1020600009851A859D014F855889898D9A8D199505
:10207000D8CF570CC3948ACF6A960FB6F894DEBFB8
:102080000FBECDBFDF91CF911F910F91FF90EF90C9
:10209000DF90CF90BF90AF909F908F907F906F9088
:1020A0005F904F903F902F9008958F929F92AF92A4
:1020B000CF92EF92FF920F931F93CF93DF93EC0198
:1020C000262F898D9A8D009709F051C06A30D1F47E
:1020D0001D861C868D8948E0849F900111248E8581
:1020E0009F85820F931F9F878E8781E090E0DF910D
:1020F000CF911F910F91FF90EF90CF90AF909F9055
:102100008F9008956D3089F3CC88AD888F898823AE
:10211000C1F08C859D8536E0C39E800D911D1124F4
:10212000488559854817590764F44E855F851D8693
:102130001C8638E0A39EC0011124840F951F9F8741
:102140008E87EA88FB88088919894E855F856C85AA
:102150007D85CE010E94300E2C898C859D8546E0C0
:10216000249F800D911D11249D878C87BECF6A30DE
:1021700069F41D861C86FC013896E4912D898E85B4
:102180009F85E29F800D911D1124ADCF6D3009F424
:10219000ACCFFC0134963491631708F4A6CF329685
:1021A000E491E61708F4A1CFFC0132968590949053
:1021B000462F431B342F47E0349F800C911C112481
:1021C000F401329634913196E4913323A9F1EE2350
:1021D00099F1CC88F4013596E491AD884F89442378
:1021E00001F10E2E000CFF0BE30FF11DCE9EA0019E
:1021F000CF9E500D11246C857D85460F571F688535
:102200007985641775076CF44E855F851D861C867D
:10221000FC013896E491AE9E400D511D11245F875C
:102220004E87EA88FB88088919894E855F856C8509
:102230007D85CE010E94300EF4013496E4912C8904
:102240008C859D85E29F800D911D11248DCF6F920D
:102250007F928F929F92AF92BF92CF92DF92EF9236
:10226000FF920F931F93CF93DF93EC016B015A0101
:1022700039014801E881F9810284F385E02D19953F
:10228000E881F9810288F389E02D87019301A50196
:10229000B601CE011995A501480D591D41505109AE
:1022A000E881F9810288F389E02D9301B601CE011E
:1022B0001995E881F9810088F189E02D9401A50143
:1022C000B601CE011995C60CD71CB6016150710933
:1022D000E881F9810088F189E02D9401A501CE0102
:1022E0001995E881F9810688F789E02DCE01DF9103
:1022F000CF911F910F91FF90EF90DF90CF90BF9003
:10230000AF909F908F907F906F9019942F923F92F3
:102310004F925F926F927F928F929F92AF92BF92F5
:10232000CF92DF92EF92FF920F931F93CF93DF93A1
:10233000CDB7DEB72D970FB6F894DEBF0FBECDBF79
:102340005C011B0158874F833D872C870987FC82DE
:10235000EB82360181E090E06C01C21AD30AC90118
:102360009195819591099C01220F331F3A8329830E
:10237000C70101969E838D83F12CE12C4424439464
:10238000512CDA011196BB87AA872C853D85E21670
:10239000F3060CF070C08C849D84D7FC0BC04901FF
:1023A00031E0831A910889819A8102969A83898300
:1023B000C80ED91E9FEFE91AF90AA2E04A0E511C75
:1023C000C40CD51C8E149F0444F42C853D8528151F
:1023D0003905F1F49D868C86D8CF9401220F331FE6
:1023E0004F81588548195909D501ED91FC91B9855E
:1023F0008D819E81280F391F0088F189E02D83018E
:10240000B101B13009F56E0D7F1DC5011995DDCF04
:102410009985913019F5920122503109AB81BC8127
:102420002A0F3B1F6C857D85620D731DD501ED91D3
:10243000FC910088F189E02D83014A855B854E1966
:102440005F09C5011995C6CF6E197F09C501199598
:10245000AC85BD85A815B90509F4BCCF9201225001
:1024600031098B819C81280F391FB101AC85BD8555
:102470006A1B7B0BDBCF2D960FB6F894DEBF0FBE29
:10248000CDBFDF91CF911F910F91FF90EF90DF9023
:10249000CF90BF90AF909F908F907F906F905F9004
:1024A0004F903F902F9008952F923F924F925F92BE
:1024B0006F927F928F929F92AF92BF92CF92DF9254
:1024C000EF92FF920F931F93CF93DF9300D000D032
:1024D000CDB7DEB79E838D834B013A016901802F12
:1024E00021E030E029014C185D08222433242C1807
:1024F0003D08220C331CB12CA12C01E010E0982FD8
:1025000094709983A82FA270AA83B82FB870BB8348
:1025100081708C83AC14BD040CF0A7C057FC08C0BC
:1025200081E0C81AD10892E0290E311C420C531CDC
:10253000AFEFAA1ABA0A0E5F1F4F400E511EB981A3
:10254000BB2311F1AD81BE81ED91FC911197048403
:10255000F585E02D9701A601460D571DB4016A0DC2
:102560007B1DCD011995AD81BE81ED91FC91119737
:102570000484F585E02D9701A3014A0D5B1DB6018A
:10258000680D791DCD011995BA81BB2311F1AD817B
:10259000BE81ED91FC9111970484F585E02D9701A2
:1025A000A3014C195D09B4016A0D7B1DCD0119957C
:1025B000AD81BE81ED91FC9111970484F585E02DEC
:1025C0009701A3014A195B09B601680D791DCD0178
:1025D0001995BB81BB2311F1AD81BE81ED91FC91B9
:1025E00011970484F585E02D9701A3014A0D5B1D29
:1025F000B4016C197D09CD011995AD81BE81ED91B4
:10260000FC9111970484F585E02D9701A601460DF4
:10261000571DB4016A197B09CD011995BC81BB23F3
:1026200009F478CFAD81BE81ED91FC9111970484BE
:10263000F585E02D9701A3014A195B09B4016C19D6
:102640007D09CD011995AD81BE81ED91FC91119768
:102650000484F585E02D9701A3014C195D09B401AF
:102660006A197B09CD01199555CF26960FB6F894B6
:10267000DEBF0FBECDBFDF91CF911F910F91FF90B5
:10268000EF90DF90CF90BF90AF909F908F907F9012
:102690006F905F904F903F902F9008956F927F9230
:1026A0008F929F92AF92BF92CF92DF92EF92FF9262
:1026B0000F931F93CF93DF935C01EB016A014901F4
:1026C00038018701DC01ED91FC916217730719F560
:1026D000641675062CF0962D872D3A01C92ED82E3A
:1026E0009601261937092F5F3F4F048CF58DE02D99
:1026F000A301BE01C5011995DF91CF911F910F91E3
:10270000FF90EF90DF90CF90BF90AF909F908F9011
:102710007F906F9008954615570591F42617370757
:1027200024F0892D4B01C22FD82F9E012819390979
:102730002F5F3F4F068CF78DE02DA601B401DACF55
:102740000284F385E02D1995D501ED91FC91048863
:10275000F589E02D83019401A601BE01C5011995FB
:10276000D501ED91FC910688F789E02DC501DF9137
:10277000CF911F910F91FF90EF90DF90CF90BF907E
:10278000AF909F908F907F906F901994EF92FF92EF
:102790000F931F93DC011A960D911C911B971896AD
:1027A0002D913C911997ED91FC9100A0F1A1E02DA4
:1027B0007B0150E040E070E060E019951F910F91BF
:1027C000FF90EF9008954F925F926F927F928F9259
:1027D0009F92AF92BF92CF92DF92EF92FF920F93B0
:1027E0001F93CF93DF936C012B015A0139014801EC
:1027F000DC01ED91FC910284F385E02D1995E20155
:10280000640C751CD601ED91FC91C615D7055CF4DE
:102810000088F189E02D87019401A501BE01C60160
:1028200019952196EFCF0688F789E02DC601DF9133
:10283000CF911F910F91FF90EF90DF90CF90BF90BD
:10284000AF909F908F907F906F905F904F90199472
:102850008F929F92AF92BF92CF92DF92EF92FF92B0
:102860000F931F93CF93DF93EC015B014A01690142
:10287000E881F9810284F385E02D199595012C0DED
:102880003D1D21503109E881F9810488F589E02D49
:1028900078018401A401B501CE011995E881F9817F
:1028A0000688F789E02DCE01DF91CF911F910F911E
:1028B000FF90EF90DF90CF90BF90AF909F908F9060
:1028C00019948F929F92AF92BF92CF92DF92EF9224
:1028D000FF920F931F93CF93DF93EC015B014A01AB
:1028E00069017801E881F9810284F385E02D199569
:1028F000C80CD91C860101501109E881F9810488AE
:10290000F589E02D9501A401B501CE011995E88165
:10291000F9810688F789E02DCE01DF91CF911F91D3
:102920000F91FF90EF90DF90CF90BF90AF909F906E
:102930008F9019940895EF92FF920F931F93DC01EB
:10294000ED91FC9100A0F1A1E02D19951F910F913F
:10295000FF90EF9008950F931F93DC01ED91FC9190
:10296000068CF78DE02D19951F910F9108950F9307
:102970001F93DC01ED91FC91048CF58DE02D1995F0
:102980001F910F910895DC01ED91FC910084F18578
:10299000E02D19942F923F924F925F926F927F9207
:1029A0008F929F92AF92BF92CF92DF92EF92FF925F
:1029B0000F931F93CF93DF9300D000D0CDB7DEB736
:1029C0003C016A013E832D83FC82EB825801A41AEC
:1029D000B50AB7FE03C0B194A194B1088D809E8062
:1029E000861A970A97FE03C09194819491088A14DD
:1029F0009B045CF0902F812F0D811E819D838E831F
:102A00009C2D8D2D6B01692F782F0C151D055CF009
:102A10009D818E817E836D83692F782F902F812FEA
:102A20008601C92ED82E1601201A310A2B012D81BC
:102A30003E81421A530A57FE03C0519441945108F3
:102A4000710137FE03C03FEFE31AF30AF594E794F0
:102A50008D819E81861797075CF5A1E0B0E0BA836F
:102A6000A983C016D1064CF1D301ED91FC910484E9
:102A7000F585E02D2B813C81A8016D817E818A1432
:102A80009B041CF04D815E81B801C3011995E418C7
:102A9000F508F7FE0AC02D813E8189819A81280FB1
:102AA000391F3E832D83E20CF31C0F5F1F4FD9CFDC
:102AB0002FEF3FEF3A832983D4CF26960FB6F894B1
:102AC000DEBF0FBECDBFDF91CF911F910F91FF9061
:102AD000EF90DF90CF90BF90AF909F908F907F90BE
:102AE0006F905F904F903F902F900895089590E0E1
:102AF00080E00895CF93DF93FC012781222359F1D1
:102B0000EC0161E080850E946B0561E089850E948F
:102B10006B058F81843011F08830B1F461E08A85D3
:102B20000E946B0561E08B850E946B058FA58F3F2E
:102B300091F061E00E946B056EA581E068278FA58A
:102B4000DF91CF910C943D05833011F0863071F701
:102B500061E08A85E9CFDF91CF910895CF93DF932C
:102B6000FC0127812223A9F0EC010190F081E02DE6
:102B70000284F385E02D60E019958FA58F3F49F021
:102B800061E00E946B056EA58FA5DF91CF910C943B
:102B90003D05DF91CF910895DC01ED91FC911197F6
:102BA000228533854770552766277727415051097D
:102BB00061097109473051056105710570F4FA0129
:102BC0008827EA51FA4E8F4F0C94622BF115F315BA
:102BD000F515F715F915FB15FD1561E0CD01F901A6
:102BE000199465E0FBCF64E0F9CF66E0F7CF62E0CF
:102BF000F5CF6AE0F3CF68E0F1CF69E0EFCFCF9394
:102C0000DF93EC01CB01BA0126E030E040E050E078
:102C10000E94FF2A623071058105910589F16CF4EB
:102C20006115710581059105D1F06130710581054E
:102C30009105F9F0DF91CF91089564307105810518
:102C4000910561F124F1653071058105910591F7D8
:102C5000E881F9810284F385E02D66E006C0E88111
:102C6000F9810284F385E02D64E0CE01DF91CF91FC
:102C70001994E881F9810284F385E02D65E0F5CFB0
:102C8000E881F9810284F385E02D61E0EECFE881EF
:102C9000F9810284F385E02D63E0E7CFE881F981D3
:102CA0000284F385E02D62E0E0CFDC01ED91FC9140
:102CB0000284F385E02D437055276627772742303D
:102CC00051056105710571F04330510561057105CC
:102CD00059F0413051056105710511F065E0199415
:102CE00066E0FDCF6AE0FBCF69E0F9CFCF93DF93D9
:102CF000EC01CB01BA0123E030E040E050E00E945B
:102D0000FF2A613071058105910599F062307105E6
:102D100081059105A9F0672B682B692BC1F4E88127
:102D2000F9810284F385E02D64E0CE01DF91CF913B
:102D30001994E881F9810284F385E02D61E0F5CFF3
:102D4000E881F9810284F385E02D62E0EECFDF9126
:102D5000CF910895DC01ED91FC910284F385E02D83
:102D60004370552766277727423051056105710565
:102D700071F0433051056105710559F0413051053D
:102D80006105710511F062E0199463E0FDCF61E027
:102D9000FBCF60E0F9CFCF93DF93EC01E881F981BD
:102DA0000284F385E02D8A8160E0811162E0CE012A
:102DB0001995E881F9810284F385E02D8A8161E02B
:102DC000811163E0CE0119958CA59DA582309105F6
:102DD00038F0880F991F880F991F05970197F1F711
:102DE000E881F9810284F385E02D8A8160E0811118
:102DF00062E0CE01DF91CF911994CF93DF93EC0184
:102E000020E030E0A901688D798D8A8D9B8D0E942C
:102E10007F2C18162CF4E8A9F9A9DF91CF91199409
:102E2000EAA9FBA9FACFCF92DF92EF92FF920F931C
:102E30001F93CF93DF93DC011796CC91C43039F008
:102E4000C83059F1C33019F0C63049F1C2E08C01E5
:102E5000085F1F4FF12CE12CC62ED12CD1E0F801D8
:102E60006481C6010E2C02C0959587950A94E2F7FD
:102E700080FD6D270F5F1F4F80810E943D05BFEFD2
:102E8000EB1AFB0AEC1658F3DF91CF911F910F91CB
:102E9000FF90EF90DF90CF900895C4E0D8CFC3E0CB
:102EA000D6CFDC011796EC911797E93008F042C0B5
:102EB000F0E08827E15AF84E8F4F0C94622B681788
:102EC000701777177E1785179A178C179A1793170D
:102ED000ED91FC9111970684F785E02DCD011994B1
:102EE000ED91FC9111970088F189E02DF7CFED91DC
:102EF000FC9111970288F389E02DF0CFED91FC91C0
:102F000011970488F589E02DE9CFED91FC91119797
:102F10000688F789E02DE2CFED91FC911197008CA6
:102F2000F18DE02DDBCFED91FC911197028CF38DAB
:102F3000E02DD4CF08954F925F926F927F928F923F
:102F40009F92AF92BF92CF92DF92EF92FF920F9338
:102F50001F93CF93DF93EC01CC88DD88EE88FF8848
:102F600088899989AA89BB89C81AD90AEA0AFB0AF9
:102F7000688D798D8A8D9B8D9B01AC010E94412AC1
:102F80004B015C0168A179A18AA19BA19B01AC01C5
:102F90000E946B2B9B01AC01C501B4010E94D72B91
:102FA0000E94492CC114D104E104F10409F0B6C017
:102FB00062307105810591050CF0D0C01B821C8226
:102FC0001D821E82188E198E1A8E1B8E1CAA1DAA97
:102FD0001EAA1FAAC12CD12C7601C701B601DF9110
:102FE000CF911F910F91FF90EF90DF90CF90BF9006
:102FF000AF909F908F907F906F905F904F900895CB
:103000001016110612061306B4F46C157D058E0514
:103010009F051CF42A812111A1C09B01AC018827C6
:103020009927DC01821B930BA40BB50B8CAB9DABDA
:10303000AEABBFAB93C0011511052105310509F4F5
:103040008DC06C157D058E059F050CF087C08A81AB
:10305000882309F483C030952095109501951F4F62
:103060002F4F3F4F0CAB1DAB2EAB3FAB77C00115C5
:1030700011052105310509F471C0882499245401F2
:103080008C189D08AE08BF08681579058A059B0550
:103090000CF064C08A81811161C0DDCFCCACDDACA5
:1030A000EEACFFACA7019601C701B6010E946B2BE5
:1030B0002B013C01C501B4010E94E22920E030E06F
:1030C00040E850E40E94412A20E030E040E85FE31D
:1030D0000E946B2B9B01AC01C301B2010E94D72B54
:1030E0009B01AC01C701B6010E946A2B3B016C0138
:1030F000FE01E05CFF4FE080F180028113819701C7
:10310000A8010E947F2C181614F473018601C701D0
:10311000D8018CAF9DAFAEAFBFAF3AC00CA91DA90F
:103120002EA93FA91C141D041E041F040CF468CF13
:1031300010161106120613060CF099CF002711275E
:1031400098010C191D092E093F09601771078207A4
:1031500093070CF062CF2A8121115FCF8CA89DA824
:10316000AEA8BFA881149104A104B10409F096CFC0
:1031700088AD99ADAAADBBAD8CAF9DAFAEAFBFAFC3
:1031800081E01C141D041E041F040CF080E08A83DF
:103190003FEF831A930AA30AB30A8CAA9DAAAEAA88
:1031A000BFAA8CAC9DACAEACBFACC501B4010E9453
:1031B000502C6B017C01CB82DC82ED82FE82A5016A
:1031C000940160E074E284E799E40E94D72B688F51
:1031D000798F8A8F9B8F2A812111FFCE9058688F1B
:1031E000798F8A8F9B8FF9CECF92DF92EF92FF92E9
:1031F000CF93DF93CDE4D6E0688D798D8A8D9B8D5A
:103200009B01AC010E94412A6B017C0168A179A15C
:103210008AA19BA19B01AC010E946B2B9B01AC017D
:10322000C701B6010E94D72B0E94492C6CAB7DAB25
:103230008EAB9FABCE01DF91CF91FF90EF90DF90EF
:10324000CF900C949B1708950895EF92FF920F93DF
:103250001F93DC011A960D911C911B9718962D91C6
:103260003C911997ED91FC9100A0F1A1E02D7B011B
:1032700050E040E070E060E019951F910F91FF90E1
:10328000EF900895FF920F931F93CF93DF93F82E43
:10329000062FC7E0D0E010E061E0802F0E943D05DE
:1032A0008F2D0E9414050C2E01C0880F0A94EAF796
:1032B000182B60E0802F0E943D05219768F7812F31
:1032C000DF91CF911F910F91FF900895EF92FF92A0
:1032D0000F931F93CF93DF93809194060E94140560
:1032E000892B31F060E070E0CB010E94DE05F4CF65
:1032F000DFB7F89460919306809194060E9442197A
:10330000082F60919306809194060E944219C82F5D
:1033100060919306809194060E944219182FF12C17
:10332000E12C809195068E151F0479F070F061E014
:10333000809193060E943D0560E0809193060E9473
:103340003D058FEFE81AF80AECCFDFBF6C2F70E075
:1033500090E080E0982F872F762F6627802B612BB7
:10336000000F000B10E030E020E0302F2227112763
:103370000027602B712B822B932BDF91CF911F9114
:103380000F91FF90EF900895CF92DF92EF92FF920E
:10339000CF93DF93D82FC0E0C12CD12C7601CD176D
:1033A00069F00E946619C60ED71EE81EF91E60E07D
:1033B00070E0CB010E94DE05CF5FF1CF2C2F30E013
:1033C00050E040E0C701B6010E94FF2ACA01B901DE
:1033D000DF91CF91FF90EF90DF90CF9008954F92C3
:1033E0005F926F927F928F929F92AF92BF92CF9295
:1033F000DF92EF92FF926B017C0120E030E0A901A7
:103400000E94DB2987FF04C0F7FAF094F7F8F094E4
:1034100080906D0690906E06A0906F06B09070063A
:10342000A7019601C501B4010E94DB29882309F494
:1034300058C06091810670918206809183069091B8
:1034400084060E94E2292B013C01A7019601C501D7
:10345000B4010E94D72B9B01AC01C301B2010E94B1
:10346000412A0E94492C60938106709382068093C2
:10347000830690938406A701960160E070E080E0E7
:1034800090E40E94D72B0E948A2C26E53EE04DE274
:103490005FE30E94412A20E034E244E759E40E94BD
:1034A000412A6093850670938606809387069093E1
:1034B0008806C0926D06D0926E06E0926F06F0927A
:1034C00070068DE496E0FF90EF90DF90CF90BF9074
:1034D000AF909F908F907F906F905F904F900C94E3
:1034E0009B17FF90EF90DF90CF90BF90AF909F9091
:1034F0008F907F906F905F904F9008950E94092E5B
:10350000FB0101900020E9F73197AF01461B570BF3
:10351000DC01ED91FC910280F381E02D19946CE6C1
:1035200072E08FEF93E00C94801ACF93DF930E94A8
:10353000F406EC010E948F1A8C0F9D1FDF91CF9132
:103540000895CF93DF93682F8FEF93E00E94A70633
:10355000EC010E948F1A8C0F9D1FDF91CF9108956F
:103560000E948F1A8DE692E00E94951A8CE592E0F7
:103570000E94951A8EE492E00E94951A8BE392E0E5
:103580000E94951A80E292E00E94951A84E192E0EE
:103590000E94951A8CE092E00C94951A8F929F925B
:1035A000AF92BF920F931F93CF93DF93CDB7DEB748
:1035B000A1970FB6F894DEBF0FBECDBF19A242305F
:1035C00008F44AE08E010F5D1F4F842E912CB12C20
:1035D000A12CA50194010E94312BE62FB901CA014B
:1035E000EA3004F5E05DD801EE938D01232B242B06
:1035F000252B79F790E080E0109729F0BD018FEF3F
:1036000093E00E94801AA1960FB6F894DEBF0FBE19
:10361000CDBFDF91CF911F910F91BF90AF909F9041
:103620008F900895E95CDFCFCF92DF92EF92FF9207
:10363000CF93DF936B017C016DE28FEF93E00E94EB
:10364000A706EC0166277727CB016C197D098E0947
:103650009F094AE00E94CE1A8C0F9D1FDF91CF91E7
:10366000FF90EF90DF90CF900895CF93DF9397FF77
:103670000AC00E94141BEC010E948F1A8C0F9D1F20
:10368000DF91CF9108954AE00E94CE1AF4CFCF93F4
:10369000DF93BC01990F880B990B97FF0AC00E941A
:1036A000141BEC010E948F1A8C0F9D1FDF91CF918C
:1036B00008954AE00E94CE1AF4CF4F925F926F9223
:1036C0007F928F929F92AF92BF92CF92DF92EF92B2
:1036D000FF921F93CF93DF936B017C01C42FAC014A
:1036E0009B010E94CA2C6FE672E081111AC046014C
:1036F0005701E894B7F82FEF3FEF4FE75FE7C501B9
:10370000B4010E94CA2C811125C02FEF3FEF4FE773
:103710005FE7C501B4010E94DB291816DCF463E7FA
:1037200072E08FEF93E00E94801AEC010E948F1AE2
:103730008C0F9D1FDF91CF911F91FF90EF90DF9035
:10374000CF90BF90AF909F908F907F906F905F9041
:103750004F9008952FEF3FEF4FE75FE4C701B601A9
:103760000E947F2C18161CF467E772E0DACF2FEF67
:103770003FEF4FE75FECC701B6010E94DB2987FDF1
:10378000F3CF20E030E0A901C701B6010E94DB2998
:10379000B12CA12C87FF0AC06DE28FEF93E00E944D
:1037A000A7065C01F7FAF094F7F8F0941C2F60E09C
:1037B00070E080E09FE3D0E020E030E040E251E4C0
:1037C0000E94D72B21E02D0FD1E02C17A8F3A701E1
:1037D00096010E946B2B6B017C010E94502C2B01E7
:1037E0003C010E94E0299B01AC01C701B6010E9487
:1037F0006A2B6B017C014AE0C301B2010E94CE1A20
:10380000EC016EE28FEF93E00E94A706C80FD91F6C
:10381000CA0DDB1D115008F489CF20E030E040E2F2
:1038200051E4C701B6010E94412A4B015C010E948C
:10383000502C6B01F12CE12C4AE0C701B6010E942B
:10384000CE1AC80FD91FC701B6010E94E0299B01FB
:10385000AC01C501B4010E946A2B6B017C01DACF77
:10386000CF93DF93BC018FEF93E00E94801AEC01AD
:103870000E948F1A8C0F9D1FDF91CF9108956115C3
:10388000710511F00C94801A90E080E008952F9259
:103890003F924F925F926F927F928F929F92AF92E0
:1038A000BF92CF92DF92EF92FF920F931F93CF932D
:1038B000DF93CDB7DEB72E970FB6F894DEBF0FBEFD
:1038C000CDBF9E878D87DC015096BC91B987FC01E6
:1038D000F189FA87DC011C960D90BC91A02DBA836A
:1038E000A983FC0186849784662331F0982D892D65
:1038F00089849A8499878A87AD85BE851696CD90EE
:10390000DC9017971896AD90BC90C601CA14DB04E2
:1039100008F0C5019695879596958795ED85FE8566
:1039200040805180282F30E03C832B836480758059
:10393000828193819E838D83CA14DB042CF4C6019B
:10394000D7FE05C0019603C0C501B7FCFBCF959516
:1039500087952B803C80821593050CF41C01D201C5
:10396000ED91FC910284F385E02DC2011995F101DE
:10397000EE0FFF1FF887EF832D813E81220D331D4F
:103980003C872B8796012E1B3F0BD201ED91FC91BA
:103990000684F785E02D74018501A3016B857C8584
:1039A000C2011995EF81F885AE1ABF0AF1E0AF1A8E
:1039B000B108620C731C6D817E816C0D7D1D6219D6
:1039C0007309615071096401750101E09101A3015E
:1039D000C2010E94861102E09101A3016B857C85E2
:1039E000C2010E948611D201ED91FC910688F789EF
:1039F000E02DC2011995ED85FE85C080D180A0849F
:103A0000B184E680F78064807580228133813E83B3
:103A10002D83EA14FB042CF4C701F7FE05C00196C0
:103A200003C0C501B7FCFBCF959587958B809C8023
:103A3000881599050CF44C01D601ED91FC91028496
:103A4000F385E02DC60119951401220C331CF701F2
:103A5000E219F309FC83EB834D805E80480C591C0E
:103A6000D601ED91FC910288F389E02D09811A813C
:103A70002B813C81A301B201C6011995F501E60D28
:103A8000F71DF887EF83AF0141505109D601ED9141
:103A9000FC910288F389E02D09811A812B813C81F8
:103AA000B201C6011995F501E219F3091F01680C6D
:103AB000791CD601ED91FC910088F189E02D0981F6
:103AC0001A819101A3016D817E81C6011995AD8096
:103AD000BE80AE0CBF1CB50161507109D601ED91DD
:103AE000FC910088F189E02D09811A819101A301DF
:103AF000C6011995E980FA8001E09401A301B201A1
:103B0000C6010E945412A818B908B1E0AB1AB10856
:103B1000E980FA8002E09401A301B501C6010E9488
:103B200054126F80788468187908E1E06E1A710881
:103B3000E980FA8004E09401A301B501C6010E9466
:103B40005412E980FA8008E09401A301B201C60191
:103B50000E945412D601ED91FC910688F789E02D60
:103B6000C6011995AD85BE85ED91FC91119718960A
:103B70008D919C9119979695879514962D913C91CE
:103B80001597820F931F1B962C91B4E02B9F8019E1
:103B9000910911246D857E856E5E7F4FDB010D904E
:103BA0000020E9F7AD0141505109461B570BAD8587
:103BB000BE8516962D913C911797369527951296AE
:103BC000ED90FC9013972E0D3F1D1A96FC9013E07C
:103BD000F19ED0011124A49F7001A59FF00CB49F09
:103BE000F00C11242E193F09358724879787868783
:103BF000AD85BE85ED91FC91B985B28B1A85138B8D
:103C0000B08B118BAD85BE85ED91FC9111971B9604
:103C10008C911B971A969C91911101C091E0948B05
:103C2000811101C081E0858BED85FE8580819181C8
:103C30002E960FB6F894DEBF0FBECDBFDF91CF91A9
:103C40001F910F91FF90EF90DF90CF90BF90AF90BA
:103C50009F908F907F906F905F904F903F902F90AC
:103C60000C943F1C0C94802D0C94802D1F920F926D
:103C70000FB60F9211242F933F938F939F93AF937F
:103C8000BF938091F7039091F803A091F903B0914D
:103C9000FA033091F60323E0230F2D3758F50196F0
:103CA000A11DB11D2093F6038093F7039093F803B1
:103CB000A093F903B093FA038091FB039091FC0366
:103CC000A091FD03B091FE030196A11DB11D80934B
:103CD000FB039093FC03A093FD03B093FE03BF91FD
:103CE000AF919F918F913F912F910F900FBE0F90A9
:103CF0001F90189526E8230F0296A11DB11DD2CF63
:103D00001F920F920FB60F9211240BB60F922F93A2
:103D10003F934F935F936F937F938F939F93AF9353
:103D2000BF93EF93FF938FEF93E00E948506FF917F
:103D3000EF91BF91AF919F918F917F916F915F9123
:103D40004F913F912F910F900BBE0F900FBE0F9090
:103D50001F9018951F920F920FB60F9211240BB659
:103D60000F922F938F939F93EF93FF93E0910F0404
:103D7000F09110048081E0911504F091160482FD09
:103D80001DC09081809118048F5F8F73209119045A
:103D9000821741F0E0911804F0E0E150FC4F958F5C
:103DA00080931804FF91EF919F918F912F910F9025
:103DB0000BBE0F900FBE0F901F9018958081F2CF11
:103DC000CF92DF92EF92FF921092020410920104C0
:103DD00088EE93E0A0E0B0E08093030490930404A5
:103DE000A0930504B09306048AE092E09093000447
:103DF0008093FF0385EC90E090930C0480930B0478
:103E000084EC90E090930E0480930D0480EC90E09D
:103E10009093100480930F0481EC90E0909312042F
:103E20008093110482EC90E0909314048093130427
:103E300086EC90E090931604809315041092180479
:103E40001092190410921A0410921B0488E692E052
:103E50009093920680939106109296061092970680
:103E60001092980610929906C12CD12C40E8E42EAD
:103E70004FE3F42EC0929A06D0929B06E0929C06E5
:103E8000F0929D0688E492E090934E0680934D0652
:103E900081E08093540610925D0610925E061092A7
:103EA0005F061092600610926106109262061092F0
:103EB00063061092640610926506109266061092D0
:103EC0006706109268061092690610926A061092B0
:103ED0006B0610926C0610926D0610926E06109290
:103EE0006F0610927006C0927106D0927206E09230
:103EF0007306F092740610925006109251061092BA
:103F000052061092530681E090E090937A068093D7
:103F100079068FEF80937C061092750610927606D4
:103F2000109277061092780684E08093550696E00A
:103F3000909356068093570685E08093580610921A
:103F40007B061092810610928206109283061092D0
:103F500084061092850610928606109287061092AB
:103F600088061092890610928A0610928B0610928B
:103F70008C06C0928D06D0928E06E0928F06F0924B
:103F8000900610924F061092590610925A061092FF
:103F90005B0610925C068DE496E00E947A15C701DC
:103FA000B6010E94EF19A701960160916906709110
:103FB0006A0680916B0690916C060E94DB2988232B
:103FC00019F1C0926906D0926A06E0926B06F092EF
:103FD0006C0680E094E2A4E7B9E480938D069093A8
:103FE0008E06A0938F06B0939006809181069091E3
:103FF0008206A0918306B0918406181619061A0647
:104000001B0614F40E94F41810921B0610921A0654
:1040100020EF30E030931D0620931C0680E491E0F1
:1040200090931F0680931E0630932106209320064E
:10403000909323068093220610922E061092250656
:1040400010922406109227061092260681E0809393
:104050002D0680932C062FEF3FEF30932B062093F5
:104060002A06309329062093280680932F06109263
:10407000300610923206109231068CE192E0909355
:1040800019068093180688E38093060687E38093D9
:10409000080686E08093070687E0809309068CE295
:1040A00091E090930B0680930A06E2EBF8E0E4912E
:1040B000F0E0EE0FFF1FEF56F74F8591949190932C
:1040C0000D0680930C06E3EEF8E0E491F0E0EE0FCD
:1040D000FF1FEF56F74F8591949190930F068093B1
:1040E0000E06E2EEF8E0E491F0E0EE0FFF1FEF566F
:1040F000F74F859194919093110680931006E1EB10
:10410000F8E0E491F0E0EE0FFF1FEF56F74F8591D6
:1041100094919093130680931206E2E5F8E0E491FF
:10412000E0931406E3E8F8E0E491E0931606E2E891
:10413000F8E0E491E0931506E1E5F8E0E491E0931E
:1041400017068AE090E0909305068093040610928B
:10415000E7051092E6051092C9051092C805109265
:10416000AB051092AA0510928D0510928C05109245
:104170006F0510926E051092510510925005109225
:104180003305109232051092150510921405109205
:10419000F7041092F6041092D9041092D8041092E9
:1041A000BB041092BA0410929D0410929C04FF90DC
:1041B000EF90DF90CF900895CF93DF9300D01F92C0
:1041C0001F92CDB7DEB7789484B5826084BD84B584
:1041D000816084BD85B5826085BD85B5816085BD02
:1041E00080916E00816080936E00109281008091BA
:1041F0008100826080938100809181008160809342
:104200008100809180008160809380008091B10066
:1042100084608093B1008091B00081608093B00091
:1042200080919100826080939100809191008160E3
:1042300080939100809190008160809390008091A4
:10424000A10082608093A1008091A1008160809391
:10425000A1008091A00081608093A0008091210145
:1042600082608093210180912101816080932101EE
:104270008091200181608093200180917A00846088
:1042800080937A0080917A00826080937A00809196
:104290007A00816080937A0080917A0080688093B0
:1042A0007A001092C100E0910F04F091100482E0B6
:1042B0008083E0910B04F0910C041082E0910D04D6
:1042C000F0910E0480E1808310921704E0911304B2
:1042D000F091140486E08083E0911104F0911204BF
:1042E000808180618083E0911104F09112048081CB
:1042F00088608083E0911104F091120480818068CD
:104300008083E0911104F091120480818F7D80837D
:104310008BE792E00E94301C20E030E046E954E454
:104320006091690670916A0680916B0690916C06A7
:104330000E94DB29882339F180E090E0A6E9B4E40B
:104340008093690690936A06A0936B06B0936C06FF
:1043500085E595E5A0E5B4E480938D0690938E06FF
:10436000A0938F06B093900680918106909182066B
:10437000A0918306B0918406181619061A061B062A
:1043800014F40E94F41820E030E04AE754E460910D
:1043900065067091660680916706909168060E9496
:1043A000DB298823E9F14090690650906A06609005
:1043B0006B0670906C0673016201F7FAF094F7F8DF
:1043C000F09420E030E04AE754ECC301B2010E94CF
:1043D000DB2987FD0CC020E030E04AE754E4C3014C
:1043E000B2010E94DB2987FF95C67301620120E0BC
:1043F00030E0A901C701B6010E94DB29811190C6F6
:1044000010925006109251061092520610925306C6
:10441000C0926506D0926606E0926706F092680642
:1044200060E070E086E994E40E94EF1980E992E090
:104430000E94301C6CEA72E08FEF93E00E943F1CF8
:1044400084E190E00E94471B62EB72E08FEF93E003
:104450000E943F1C85E190E00E94471B85E180930C
:10446000930684E18093940661E085E10E946B05E8
:1044700060E0809194060E946B0581E08093950630
:104480000E94B01AAA24AA94BA2C58EB852E52E0A6
:10449000952E64EE262E63E0362E04E110E060E0F7
:1044A000809106060E946B0560E0809107060E94DD
:1044B0006B0561E0809109060E946B0561E08091C7
:1044C00008060E946B0590911406E0910C06F0918D
:1044D0000D068081892B808380911506E09110065E
:1044E000F091110690818095892380838091060642
:1044F0000E949C057C01809106060E949C05970104
:10450000281B390B2C5F3F4F2930310508F02BC693
:104510008E0D9F1D95958795A1E0A9832FEF33E020
:10452000281B390B3B832A8360E0809109060E9497
:104530006B0560E0809108060E946B0561E0809148
:1045400006060E946B0561E0809107060E946B05DC
:1045500080911706E0911206F091130690818095E4
:104560008923808380911606E0910E06F0910F0654
:104570009081892B8083809108060E949C056C01A4
:10458000809108060E949C057C01C6018E199F0936
:104590000496099708F0E9C5EC0CFD1CF594E79426
:1045A00061E0809109060E946B0560E0809106063B
:1045B0000E946B0580911406E0910C06F0910D06A7
:1045C000908180958923808380911706E09112065F
:1045D000F09113069081892B8083809108060E94B8
:1045E0009C056C01809106060E949C05BC0180918F
:1045F0000A0690910B069D838C83892B09F4B7C51D
:10460000072E000C880B990B0E94E2292B013C011C
:10461000B601DD0C880B990B0E94E2299B01AC01CD
:10462000C301B2010E94D72B20E030E040E85FE3F5
:104630000E946A2B2B013C01AA81BB81BD01BB0FEB
:10464000880B990B0E94E229A30192010E94412A42
:104650002B013C012C813D81B90190E080E00E945A
:10466000E029A30192010E94412A20E030E040E8C5
:104670005AE30E94412A0E94492C6B013981311171
:1046800002C0D12CC12C61E088E30E946B0561E07F
:1046900087E30E946B0561E088E30E943D0561E0CD
:1046A00087E30E943D0589ECC81AD10880E09FE1AC
:1046B000C91693E0D906E8F5A0912006B09121062D
:1046C0008A819B819C01990F440B550B205B31091A
:1046D000410951090E94292B29EE32E040E050E0C7
:1046E0000E94FF2A29013093F0032093EF032FEF5C
:1046F00033E02E193F09032E000C440B550B215BB0
:10470000310941095109A0912206B09123060E9466
:10471000292B2AEF32E040E050E00E94FF2A30933C
:10472000F2032093F103A901B20186EE95E00E9405
:10473000FE0D90910206909303068093020680E09E
:104740009FE1C91693E0D90660F44091F1035091BE
:10475000F2036091EF037091F00388EC95E00E9402
:10476000FE0D9091E4059093E5058093E40580E0CB
:10477000AFE1CA16A3E0DA0660F44091F10350916C
:10478000F2036091EF037091F0038AEA95E00E94D2
:10479000FE0D9091C6059093C7058093C60580E0F5
:1047A000BFE1CB16B3E0DB0660F44091F10350911A
:1047B000F2036091EF037091F0038CE895E00E94A2
:1047C000FE0D9091A8059093A9058093A80580E01F
:1047D0002FE1C21623E0D20660F44091F10350911C
:1047E000F2036091EF037091F0038EE695E00E9472
:1047F000FE0D90918A0590938B0580938A0580E049
:104800003FE1C31633E0D30660F44091F1035091C9
:10481000F2036091EF037091F00380E595E00E9450
:10482000FE0D90916C0590936D0580936C058FE162
:10483000C81683E0D80608F0A3C44091F103509154
:10484000F2036091EF037091F00382E395E00E9420
:10485000FE0D90914E0590934F0580934E0580E09C
:104860009FE1C91693E0D90660F44091F10350919D
:10487000F2036091EF037091F00384E195E00E94F0
:10488000FE0D90913005909331058093300580E0C6
:10489000AFE1CA16A3E0DA0660F44091F10350914B
:1048A000F2036091EF037091F00386EF94E00E94B1
:1048B000FE0D90911205909313058093120580E0F0
:1048C000BFE1CB16B3E0DB0660F44091F1035091F9
:1048D000F2036091EF037091F00388ED94E00E9481
:1048E000FE0D9091F4049093F5048093F40480E01D
:1048F0002FE1C21623E0D20660F44091F1035091FB
:10490000F2036091EF037091F0038AEB94E00E9450
:10491000FE0D9091D6049093D7048093D60480E046
:104920003FE1C31633E0D30660F44091F1035091A8
:10493000F2036091EF037091F0038CE994E00E9420
:10494000FE0D9091B8049093B9048093B80486EE5C
:1049500095E00E94EE0D882329F060E086EE95E058
:104960000E94471C88EC95E00E94EE0D882329F0F8
:1049700060E088EC95E00E94471C8AEA95E00E947E
:10498000EE0D882329F060E08AEA95E00E94471C3A
:104990008CE895E00E94EE0D882329F060E08CE819
:1049A00095E00E94471C8EE695E00E94EE0D88235C
:1049B00029F060E08EE695E00E94471C80E595E0D6
:1049C0000E94EE0D882329F060E080E595E00E94CA
:1049D000471C82E395E00E94EE0D882329F060E0F9
:1049E00082E395E00E94471C84E195E00E94EE0D71
:1049F000882329F060E084E195E00E94471C86EF5F
:104A000094E00E94EE0D882329F060E086EF94E0A8
:104A10000E94471C88ED94E00E94EE0D882329F047
:104A200060E088ED94E00E94471C8AEB94E00E94CD
:104A3000EE0D882329F060E08AEB94E00E94471C89
:104A40008CE994E00E94EE0D882329F060E08CE967
:104A500094E00E94471C86EE95E00E94F60D8823A4
:104A600089F161E086EE95E00E94471CB09229062C
:104A7000A092280610922B0610922A0683E08093BB
:104A80002C0680932D061F9281E08F939F928F9228
:104A90003F922F920E940E2E80E590E09093250683
:104AA00080932406109327060093260664EE73E095
:104AB00088E196E00E943F1C0F900F900F900F909E
:104AC0000F900F9088EC95E00E94F60D882389F1F5
:104AD00061E088EC95E00E94471CB0922906A09204
:104AE000280610922B0610922A0683E080932C064B
:104AF00080932D061F9282E08F939F928F923F9218
:104B00002F920E940E2EA0E5B0E0B0932506A09350
:104B10002406109327060093260664EE73E088E1CE
:104B200096E00E943F1C0F900F900F900F900F90F7
:104B30000F908AEA95E00E94F60D882381F161E0EA
:104B40008AEA95E00E94471CB0922906A0922806A6
:104B500010922B0610922A0683E080932C068093F5
:104B60002D061F928F939F928F923F922F920E94B9
:104B70000E2E20E530E03093250620932406109376
:104B800027060093260664EE73E088E196E00E9413
:104B90003F1C0F900F900F900F900F900F908CE88C
:104BA00095E00E94F60D882389F161E08CE895E09C
:104BB0000E94471CB0922906A092280610922B064C
:104BC00010922A0683E080932C0680932D061F9274
:104BD00084E08F939F928F923F922F920E940E2E8D
:104BE00080E590E090932506809324061093270695
:104BF0000093260664EE73E088E196E00E943F1C75
:104C00000F900F900F900F900F900F908EE695E001
:104C10000E94F60D882389F161E08EE695E00E94FE
:104C2000471CB0922906A092280610922B061092DB
:104C30002A0683E080932C0680932D061F9285E040
:104C40008F939F928F923F922F920E940E2EA0E5FB
:104C5000B0E0B0932506A093240610932706009396
:104C6000260664EE73E088E196E00E943F1C0F90F8
:104C70000F900F900F900F900F9080E595E00E949D
:104C8000F60D882389F161E080E595E00E94471CDC
:104C9000B0922906A092280610922B0610922A069E
:104CA00083E080932C0680932D061F9286E08F93DD
:104CB0009F928F923F922F920E940E2E20E530E01D
:104CC000309325062093240610932706009326068A
:104CD00064EE73E088E196E00E943F1C0F900F9015
:104CE0000F900F900F900F9082E395E00E94F60DC9
:104CF000882389F161E082E395E00E94471CB0922D
:104D00002906A092280610922B0610922A0683E00C
:104D100080932C0680932D061F9287E08F939F929D
:104D20008F923F922F920E940E2E80E590E09093FA
:104D3000250680932406109327060093260664EE2A
:104D400073E088E196E00E943F1C0F900F900F9057
:104D50000F900F900F9084E195E00E94F60D88234C
:104D600089F161E084E195E00E94471CB092290638
:104D7000A092280610922B0610922A0683E08093B8
:104D80002C0680932D061F9288E08F939F928F921E
:104D90003F922F920E940E2EA0E5B0E0B093250620
:104DA000A0932406109327060093260664EE73E072
:104DB00088E196E00E943F1C0F900F900F900F909B
:104DC0000F900F9086EF94E00E94F60D882389F1F2
:104DD00061E086EF94E00E94471CB0922906A09201
:104DE000280610922B0610922A0683E080932C0648
:104DF00080932D061F9289E08F939F928F923F920E
:104E00002F920E940E2E20E530E03093250620934D
:104E10002406109327060093260664EE73E088E1CB
:104E200096E00E943F1C0F900F900F900F900F90F4
:104E30000F9088ED94E00E94F60D882381F161E0E7
:104E400088ED94E00E94471CB0922906A0922806A3
:104E500010922B0610922A0683E080932C068093F2
:104E60002D061F921F929F928F923F922F920E9427
:104E70000E2E80E590E090932506809324061093F3
:104E800027060093260664EE73E088E196E00E9410
:104E90003F1C0F900F900F900F900F900F908AEB88
:104EA00094E00E94F60D8823A1F161E08AEB94E082
:104EB0000E94471CB0922906A092280610922B0649
:104EC00010922A0683E080932C0680932D06ADEB8A
:104ED000B2E0BF93AF9387EC92E09F938F933F92A2
:104EE0002F920E940E2E20E530E03093250620936D
:104EF0002406109327060093260664EE73E088E1EB
:104F000096E00E943F1C0F900F900F900F900F9013
:104F10000F908CE994E00E94F60D8823A1F161E0E6
:104F20008CE994E00E94471CB0922906A0922806C2
:104F300010922B0610922A0683E080932C06809311
:104F40002D068CEC92E09F938F9387EC92E09F93D9
:104F50008F933F922F920E940E2E20E530E03093E7
:104F6000250620932406109327060093260664EE58
:104F700073E088E196E00E943F1C0F900F900F9025
:104F80000F900F900F908FEF93E00E946F06892B88
:104F900009F482C18FEF93E00E944D068093F503E0
:104FA00064ED72E08FEF93E00E943F1C8091F50367
:104FB0000E94A11A8091F503813309F0E7C0809126
:104FC000F3039091F403181619060CF465C18FEFE2
:104FD00093E00E946F06892BB1F08FEF93E00E945F
:104FE0004D068093F50364ED72E08FEF93E00E942D
:104FF0003F1C8091F5030E94A11A6FED72E08FEFC4
:1050000093E00E943F1C80915D0690915E06A09106
:105010005F06B09160060196A11DB11D4091610629
:10502000509162066091630670916406841795073B
:10503000A607B70761F08093610690936206A0937C
:105040006306B09364068DE496E00E949B178091FE
:10505000500690915106A0915206B0915306892BAB
:105060008A2B8B2B09F44FC00E94B9056B017C0180
:105070008091750690917606A0917706B09178069A
:10508000B701A601481B590B6A0B7B0B8091500698
:1050900090915106A0915206B091530648175907B6
:1050A0006A077B0780F180915D0690915E06A09172
:1050B0005F06B091600620914F06222309F462C07A
:1050C0000196A11DB11D80935D0690935E06A0938D
:1050D0005F06B093600640915D0650915E06609158
:1050E0005F06709160068DE496E00E945117C092B1
:1050F0007506D0927606E0927706F09278068DE4F7
:1051000096E00E949B170E9466197093F4036093C7
:10511000F30355CFC12CD12C7AE7E72E74E4F72E98
:10512000A701960160E074E284E799E40E94D72B1E
:105130009F770E94502C6093500670935106809385
:1051400052069093530621E0298320E030E0A90124
:10515000C701B6010E947F2C18160CF01982398104
:1051600030934F0655C91982D9C9198219CA6C19C9
:105170007D09CC24CA9493E0D92EC61AD70A7ECAD8
:1051800080E067CB0197A109B1099DCF8233A9F5D2
:1051900088E797E00E94F4068AE00E94C4190E9402
:1051A000E2290E94492C609396067093970680939B
:1051B0009806909399068AE00E94C419CB010E9438
:1051C000471B89EF92E00E94301C8AE0E82EF12C08
:1051D000809194060E941405892B09F485C060E033
:1051E00070E0CB010E94DE0531E0E31AF10881F79F
:1051F00082ED93E00E94301C4FC0833309F04FC012
:105200008AE093E00E94301C8BE393E00E94301C04
:105210008FEF93E00E946F06892B69F480E090E0A5
:10522000A8E4B2E480939A0690939B06A0939C0610
:10523000B0939D06EDCF8AE493E00E94301C60910C
:1052400096067091970680919806909199060E9413
:10525000351B85E693E00E94301C81E00E94C41952
:10526000C0909606D0909706E0909806F090990628
:105270006C197D098E099F090E94E22920919A06E6
:1052800030919B0640919C0650919D060E94D72B21
:1052900042E050E00E945D1B0E942F0700C984334A
:1052A00099F48FEF93E00E946F06892B31F485E02B
:1052B0000E94C4190E94351BF4CF8CE693E00E9433
:1052C000301C0E94B01AE8CF853339F464EF71E0E6
:1052D00080E090E00E94DE05DFCF8837E9F68FE8B6
:1052E00097E00E94951AD8CF8AE00E94C4190E94C4
:1052F000E2290E94492C609396067093970680934A
:1053000098069093990665E873E08FEF93E00E940A
:105310003F1C0E9466190E94351B65E973E08FEF00
:1053200093E00E943F1C85E00E94C4190E94351B37
:1053300069EA73E08FEF93E00E943F1C85E00E94D2
:10534000C419C0909606D0909706E0909806F09009
:1053500099066C197D098E099F090E94E22942E095
:1053600050E00E945D1B67EB73E08FEF93E00E94BB
:105370003F1C85E00E94C419C0909606D090970605
:10538000E0909806F09099066C197D098E099F09A6
:105390000E94E22920919A0630919B0640919C063A
:1053A00050919D060E94D72B41E050E00E945D1B6A
:1053B00085EC93E084CF0E941D2A08F481E00895D3
:1053C000E89409C097FB3EF490958095709561959F
:1053D0007F4F8F4F9F4F9923A9F0F92F96E9BB2755
:1053E0009395F695879577956795B795F111F8CFD1
:1053F000FAF4BB0F11F460FF1BC06F5F7F4F8F4F3C
:105400009F4F16C0882311F096E911C0772321F031
:105410009EE8872F762F05C0662371F096E8862FC9
:1054200070E060E02AF09A95660F771F881FDAF720
:10543000880F9695879597F90895990F0008550F4D
:10544000AA0BE0E8FEEF16161706E807F907C0F00A
:1054500012161306E407F50798F0621B730B840B12
:10546000950B39F40A2661F0232B242B252B21F4EC
:1054700008950A2609F4A140A6958FEF811D811D8C
:1054800008950E94542A0C94C52A0E94B72A38F025
:105490000E94BE2A20F0952311F00C94AE2A0C94A1
:1054A000B42A11240C94F92A0E94D62A70F3959FED
:1054B000C1F3950F50E0551F629FF001729FBB270B
:1054C000F00DB11D639FAA27F00DB11DAA1F649FA7
:1054D0006627B00DA11D661F829F2227B00DA11D5A
:1054E000621F739FB00DA11D621F839FA00D611DE0
:1054F000221F749F3327A00D611D231F849F600D01
:10550000211D822F762F6A2F11249F5750409AF029
:10551000F1F088234AF0EE0FFF1FBB1F661F771FB5
:10552000881F91505040A9F79E3F510580F00C9480
:10553000AE2A0C94F92A5F3FE4F3983ED4F38695A3
:1055400077956795B795F795E7959F5FC1F7FE2B20
:10555000880F911D9695879597F9089597F99F67FC
:1055600080E870E060E008959FEF80EC08950024EB
:105570000A941616170618060906089500240A94B8
:1055800012161306140605060895092E0394000C3E
:1055900011F4882352F0BB0F40F4BF2B11F460FFCD
:1055A00004C06F5F7F4F8F4F9F4F089557FD9058F6
:1055B000440F551F59F05F3F71F04795880F97FBD7
:1055C000991F61F09F3F79F0879508951216130691
:1055D0001406551FF2CF4695F1DF08C016161706C0
:1055E0001806991FF1CF86957105610508940895F5
:1055F000E894BB2766277727CB0197F90895052EF6
:1056000097FB1EF400940E94162B57FD07D00E94B2
:10561000312B07FC03D04EF40C94162B509540957B
:10562000309521953F4F4F4F5F4F0895909580954E
:10563000709561957F4F8F4F9F4F08950E94532B18
:10564000A59F900DB49F900DA49F800D911D1124D6
:105650000895B7FF0C941E2B0E941E2B821B930BE8
:105660000895A1E21A2EAA1BBB1BFD010DC0AA1FA3
:10567000BB1FEE1FFF1FA217B307E407F50720F0BB
:10568000A21BB30BE40BF50B661F771F881F991F36
:105690001A9469F760957095809590959B01AC017F
:1056A000BD01CF010895A29FB001B39FC001A39F88
:1056B000700D811D1124911DB29F700D811D11244B
:1056C000911D0895EE0FFF1F881F8BBF0790F69165
:1056D000E02D19945058BB27AA270E94822B0C94C6
:1056E000C52A0E94B72A38F00E94BE2A20F039F459
:1056F0009F3F19F426F40C94B42A0EF4E095E7FBCE
:105700000C94AE2AE92F0E94D62A58F3BA176207E2
:1057100073078407950720F079F4A6F50C94F82A0E
:105720000EF4E0950B2EBA2FA02D0B01B9019001BC
:105730000C01CA01A0011124FF27591B99F0593F00
:1057400050F4503E68F11A16F040A22F232F342F48
:105750004427585FF3CF469537952795A795F04096
:105760005395C9F77EF41F16BA0B620B730B840BAB
:10577000BAF09150A1F0FF0FBB1F661F771F881F63
:10578000C2F70EC0BA0F621F731F841F48F48795BB
:1057900077956795B795F7959E3F08F0B0CF9395AD
:1057A000880F08F09927EE0F9795879508950E9426
:1057B000EB2B0C94C52A0E94BE2A58F00E94B72AEF
:1057C00040F029F45F3F29F00C94AE2A51110C945B
:1057D000F92A0C94B42A0E94D62A68F39923B1F3CB
:1057E000552391F3951B550BBB27AA276217730707
:1057F000840738F09F5F5F4F220F331F441FAA1F9B
:10580000A9F335D00E2E3AF0E0E832D09150504056
:10581000E695001CCAF72BD0FE2F29D0660F771F04
:10582000881FBB1F261737074807AB07B0E809F0EA
:10583000BB0B802DBF01FF2793585F4F3AF09E3F6F
:10584000510578F00C94AE2A0C94F92A5F3FE4F3EA
:10585000983ED4F3869577956795B795F7959F5FB2
:10586000C9F7880F911D9695879597F90895E1E0FE
:10587000660F771F881FBB1F621773078407BA075D
:1058800020F0621B730B840BBA0BEE1F88F7E095B8
:1058900008950E94502C6894B1110C94F92A08952F
:1058A0000E94DE2A88F09F5798F0B92F9927B751A8
:1058B000B0F0E1F0660F771F881F991F1AF0BA95B4
:1058C000C9F714C0B13091F00E94F82AB1E00895F0
:1058D0000C94F82A672F782F8827B85F39F0B93FE2
:1058E000CCF3869577956795B395D9F73EF4909567
:1058F0008095709561957F4F8F4F9F4F08950E94BF
:105900001D2A08F48FEF089519F416F40C94B42AA4
:105910000C94CF2C0E94DE2AB8F39923C9F3B6F376
:105920009F57550B87FF0E94DD2C0024A0E640EA1C
:10593000900180585695979528F4805C660F771FE4
:10594000881F20F026173707480730F4621B730BB7
:10595000840B202931294A2BA695179407942025DA
:1059600031254A2758F7660F771F881F20F0261722
:105970003707480730F4620B730B840B200D311D81
:10598000411DA09581F7B901842F9158880F9695F4
:10599000879508950E941D2A880B990B08959F3FB3
:1059A00031F0915020F4879577956795B795880FDA
:1059B000911D9695879597F9089591505040660FDF
:1059C000771F881FD2F708950F931F93CF93DF930C
:1059D0008230910510F482E090E0E091A006F09111
:1059E000A10630E020E0B0E0A0E0309799F4211566
:1059F000310509F44AC0281B390B24303105D8F58C
:105A00008A819B816115710589F1FB0193838283F2
:105A1000FE0111C04081518102811381481759074D
:105A2000E0F04817590799F4109761F012960C931B
:105A3000129713961C933296CF01DF91CF911F914D
:105A40000F9108950093A0061093A106F4CF21159D
:105A5000310551F04217530738F0A901DB019A01D3
:105A6000BD01DF01F801C1CFEF01F9CF9093A1068D
:105A70008093A006CDCFFE01E20FF31F8193919397
:105A80002250310939832883D7CF20919E06309147
:105A90009F06232B41F420910202309103023093A0
:105AA0009F0620939E06209100023091010221154D
:105AB000310541F42DB73EB74091040250910502E3
:105AC000241B350BE0919E06F0919F06E217F30729
:105AD000A0F42E1B3F0B2817390778F0AC014E5F5E
